30926759117GPM 001Renting                            000347745THYSSENKRUPP ELEVADORES SLU        P1319500030103B00 LAS PALMAS                   000000125450700082227072017071          EP2017070120170731FB46001897A78007473
30926759117GPM 003Seguro                             000347745THYSSENKRUPP ELEVADORES SLU        P1319500030103B00 LAS PALMAS                   000000059750700082227072017071          EP2017070120170731FB46001897A78007473
30926759117GPM 005ITV                                000347745THYSSENKRUPP ELEVADORES SLU        P1319500030103B00 LAS PALMAS                   000000005830700082227072017071          EP2017070120170731FB46001897A78007473
30926759117GPM 002Mantenim.                          000347745THYSSENKRUPP ELEVADORES SLU        P1319500030103B00 LAS PALMAS                   000000037950700082227072017071          EP2017070120170731FB46001897A78007473
30926759117GPM 004Administ.                          000347745THYSSENKRUPP ELEVADORES SLU        P1319500030103B00 LAS PALMAS                   000000010000700082227072017071          EP2017070120170731FB46001897A78007473
38878105051HMX 001Renting                            000347745THYSSENKRUPP ELEVADORES SLU        P1319500030103B00 LAS PALMAS                   000000115070700082227072017071          EP2017070120170731FB46001897A78007473
38878105051HMX 003Seguro                             000347745THYSSENKRUPP ELEVADORES SLU        P1319500030103B00 LAS PALMAS                   000000054720700082227072017071          EP2017070120170731FB46001897A78007473
38878105051HMX 005ITV                                000347745THYSSENKRUPP ELEVADORES SLU        P1319500030103B00 LAS PALMAS                   000000001970700082227072017071          EP2017070120170731FB46001897A78007473
38878105051HMX 002Mantenim.                          000347745THYSSENKRUPP ELEVADORES SLU        P1319500030103B00 LAS PALMAS                   000000044640700082227072017071          EP2017070120170731FB46001897A78007473
38878105051HMX 004Administ.                          000347745THYSSENKRUPP ELEVADORES SLU        P1319500030103B00 LAS PALMAS                   000000010000700082227072017071          EP2017070120170731FB46001897A78007473
38911993318HMX 001Renting                            000347745THYSSENKRUPP ELEVADORES SLU        P1319500030103B00 LAS PALMAS                   000000115070700082227072017071          EP2017070120170731FB46001897A78007473
38911993318HMX 003Seguro                             000347745THYSSENKRUPP ELEVADORES SLU        P1319500030103B00 LAS PALMAS                   000000054720700082227072017071          EP2017070120170731FB46001897A78007473
38911993318HMX 005ITV                                000347745THYSSENKRUPP ELEVADORES SLU        P1319500030103B00 LAS PALMAS                   000000001970700082227072017071          EP2017070120170731FB46001897A78007473
38911993318HMX 002Mantenim.                          000347745THYSSENKRUPP ELEVADORES SLU        P1319500030103B00 LAS PALMAS                   000000044640700082227072017071          EP2017070120170731FB46001897A78007473
38911993318HMX 004Administ.                          000347745THYSSENKRUPP ELEVADORES SLU        P1319500030103B00 LAS PALMAS                   000000010000700082227072017071          EP2017070120170731FB46001897A78007473
38914925042HMX 001Renting                            000347745THYSSENKRUPP ELEVADORES SLU        P1319500030103B00 LAS PALMAS                   000000115070700082227072017071          EP2017070120170731FB46001897A78007473
38914925042HMX 003Seguro                             000347745THYSSENKRUPP ELEVADORES SLU        P1319500030103B00 LAS PALMAS                   000000054720700082227072017071          EP2017070120170731FB46001897A78007473
38914925042HMX 005ITV                                000347745THYSSENKRUPP ELEVADORES SLU        P1319500030103B00 LAS PALMAS                   000000001970700082227072017071          EP2017070120170731FB46001897A78007473
38914925042HMX 002Mantenim.                          000347745THYSSENKRUPP ELEVADORES SLU        P1319500030103B00 LAS PALMAS                   000000044640700082227072017071          EP2017070120170731FB46001897A78007473
38914925042HMX 004Administ.                          000347745THYSSENKRUPP ELEVADORES SLU        P1319500030103B00 LAS PALMAS                   000000010000700082227072017071          EP2017070120170731FB46001897A78007473
38915043308HMX 001Renting                            000347745THYSSENKRUPP ELEVADORES SLU        P1319500030103B00 LAS PALMAS                   000000115070700082227072017071          EP2017070120170731FB46001897A78007473
38915043308HMX 003Seguro                             000347745THYSSENKRUPP ELEVADORES SLU        P1319500030103B00 LAS PALMAS                   000000054720700082227072017071          EP2017070120170731FB46001897A78007473
38915043308HMX 005ITV                                000347745THYSSENKRUPP ELEVADORES SLU        P1319500030103B00 LAS PALMAS                   000000001970700082227072017071          EP2017070120170731FB46001897A78007473
38915043308HMX 002Mantenim.                          000347745THYSSENKRUPP ELEVADORES SLU        P1319500030103B00 LAS PALMAS                   000000044640700082227072017071          EP2017070120170731FB46001897A78007473
38915043308HMX 004Administ.                          000347745THYSSENKRUPP ELEVADORES SLU        P1319500030103B00 LAS PALMAS                   000000010000700082227072017071          EP2017070120170731FB46001897A78007473
38915935048HMX 001Renting                            000347745THYSSENKRUPP ELEVADORES SLU        P1319500030103B00 LAS PALMAS                   000000115070700082227072017071          EP2017070120170731FB46001897A78007473
38915935048HMX 003Seguro                             000347745THYSSENKRUPP ELEVADORES SLU        P1319500030103B00 LAS PALMAS                   000000054720700082227072017071          EP2017070120170731FB46001897A78007473
38915935048HMX 005ITV                                000347745THYSSENKRUPP ELEVADORES SLU        P1319500030103B00 LAS PALMAS                   000000001970700082227072017071          EP2017070120170731FB46001897A78007473
38915935048HMX 002Mantenim.                          000347745THYSSENKRUPP ELEVADORES SLU        P1319500030103B00 LAS PALMAS                   000000044640700082227072017071          EP2017070120170731FB46001897A78007473
38915935048HMX 004Administ.                          000347745THYSSENKRUPP ELEVADORES SLU        P1319500030103B00 LAS PALMAS                   000000010000700082227072017071          EP2017070120170731FB46001897A78007473
39915150485HPS 001Renting                            000347745THYSSENKRUPP ELEVADORES SLU        P1319500030103B00 LAS PALMAS                   000000105760700082227072017071          EP2017070120170731FB46001897A78007473
39915150485HPS 003Seguro                             000347745THYSSENKRUPP ELEVADORES SLU        P1319500030103B00 LAS PALMAS                   000000054540700082227072017071          EP2017070120170731FB46001897A78007473
39915150485HPS 005ITV                                000347745THYSSENKRUPP ELEVADORES SLU        P1319500030103B00 LAS PALMAS                   000000001970700082227072017071          EP2017070120170731FB46001897A78007473
39915150485HPS 002Mantenim.                          000347745THYSSENKRUPP ELEVADORES SLU        P1319500030103B00 LAS PALMAS                   000000040330700082227072017071          EP2017070120170731FB46001897A78007473
39915150485HPS 004Administ.                          000347745THYSSENKRUPP ELEVADORES SLU        P1319500030103B00 LAS PALMAS                   000000010000700082227072017071          EP2017070120170731FB46001897A78007473
40023188948HRR 001Renting                            000347745THYSSENKRUPP ELEVADORES SLU        P1319500030103B00 LAS PALMAS                   000000105760700082227072017071          EP2017070120170731FB46001897A78007473
40023188948HRR 003Seguro                             000347745THYSSENKRUPP ELEVADORES SLU        P1319500030103B00 LAS PALMAS                   000000054540700082227072017071          EP2017070120170731FB46001897A78007473
40023188948HRR 005ITV                                000347745THYSSENKRUPP ELEVADORES SLU        P1319500030103B00 LAS PALMAS                   000000001970700082227072017071          EP2017070120170731FB46001897A78007473
40023188948HRR 002Mantenim.                          000347745THYSSENKRUPP ELEVADORES SLU        P1319500030103B00 LAS PALMAS                   000000040330700082227072017071          EP2017070120170731FB46001897A78007473
40023188948HRR 004Administ.                          000347745THYSSENKRUPP ELEVADORES SLU        P1319500030103B00 LAS PALMAS                   000000010000700082227072017071          EP2017070120170731FB46001897A78007473
30927906476GNW 001Renting                            000347745THYSSENKRUPP ELEVADORES SLU        P1319500320102220 MONTAJE LAS PALMAS           000000110801350082227082017071          EP2017070120170731FB46001897A78007473
30927906476GNW 003Seguro                             000347745THYSSENKRUPP ELEVADORES SLU        P1319500320102220 MONTAJE LAS PALMAS           000000058761350082227082017071          EP2017070120170731FB46001897A78007473
30927906476GNW 005ITV                                000347745THYSSENKRUPP ELEVADORES SLU        P1319500320102220 MONTAJE LAS PALMAS           000000003231350082227082017071          EP2017070120170731FB46001897A78007473
30927906476GNW 002Mantenim.                          000347745THYSSENKRUPP ELEVADORES SLU        P1319500320102220 MONTAJE LAS PALMAS           000000032961350082227082017071          EP2017070120170731FB46001897A78007473
30927906476GNW 004Administ.                          000347745THYSSENKRUPP ELEVADORES SLU        P1319500320102220 MONTAJE LAS PALMAS           000000010001350082227082017071          EP2017070120170731FB46001897A78007473
34146880350HBF 001Renting                            000347745THYSSENKRUPP ELEVADORES SLU        P1319500323102221 LAS PALMAS MONTAJE MOD       000000124910700082227092017071          EP2017070120170731FB46001897A78007473
34146880350HBF 003Seguro                             000347745THYSSENKRUPP ELEVADORES SLU        P1319500323102221 LAS PALMAS MONTAJE MOD       000000065860700082227092017071          EP2017070120170731FB46001897A78007473
34146880350HBF 005ITV                                000347745THYSSENKRUPP ELEVADORES SLU        P1319500323102221 LAS PALMAS MONTAJE MOD       000000002360700082227092017071          EP2017070120170731FB46001897A78007473
34146880350HBF 002Mantenim.                          000347745THYSSENKRUPP ELEVADORES SLU        P1319500323102221 LAS PALMAS MONTAJE MOD       000000036000700082227092017071          EP2017070120170731FB46001897A78007473
34146880350HBF 004Administ.                          000347745THYSSENKRUPP ELEVADORES SLU        P1319500323102221 LAS PALMAS MONTAJE MOD       000000010000700082227092017071          EP2017070120170731FB46001897A78007473
38878466966HMV 001Renting                            000347745THYSSENKRUPP ELEVADORES SLU        P1319500351103B01 -LAS PALMAS MOI              000000113971350082227102017071          EP2017070120170731FB46001897A78007473
38878466966HMV 003Seguro                             000347745THYSSENKRUPP ELEVADORES SLU        P1319500351103B01 -LAS PALMAS MOI              000000047991350082227102017071          EP2017070120170731FB46001897A78007473
38878466966HMV 005ITV                                000347745THYSSENKRUPP ELEVADORES SLU        P1319500351103B01 -LAS PALMAS MOI              000000001031350082227102017071          EP2017070120170731FB46001897A78007473
38878466966HMV 002Mantenim.                          000347745THYSSENKRUPP ELEVADORES SLU        P1319500351103B01 -LAS PALMAS MOI              000000047531350082227102017071          EP2017070120170731FB46001897A78007473
38878466966HMV 004Administ.                          000347745THYSSENKRUPP ELEVADORES SLU        P1319500351103B01 -LAS PALMAS MOI              000000010001350082227102017071          EP2017070120170731FB46001897A78007473
41091583573HTS 001Renting                            000347745THYSSENKRUPP ELEVADORES SLU        P1319500351103B01 -LAS PALMAS MOI              000000107441350082227102017071          EP2017070120170731FB46001897A78007473
41091583573HTS 003Seguro                             000347745THYSSENKRUPP ELEVADORES SLU        P1319500351103B01 -LAS PALMAS MOI              000000047871350082227102017071          EP2017070120170731FB46001897A78007473
41091583573HTS 005ITV                                000347745THYSSENKRUPP ELEVADORES SLU        P1319500351103B01 -LAS PALMAS MOI              000000001031350082227102017071          EP2017070120170731FB46001897A78007473
41091583573HTS 002Mantenim.                          000347745THYSSENKRUPP ELEVADORES SLU        P1319500351103B01 -LAS PALMAS MOI              000000042541350082227102017071          EP2017070120170731FB46001897A78007473
41091583573HTS 004Administ.                          000347745THYSSENKRUPP ELEVADORES SLU        P1319500351103B01 -LAS PALMAS MOI              000000010001350082227102017071          EP2017070120170731FB46001897A78007473
38878586969HMV 001Renting                            000347745THYSSENKRUPP ELEVADORES SLU        P1319500355105D11  TCR CENTRO CANARIAS         000000113971350082227112017071          EP2017070120170731FB46001897A78007473
38878586969HMV 003Seguro                             000347745THYSSENKRUPP ELEVADORES SLU        P1319500355105D11  TCR CENTRO CANARIAS         000000047991350082227112017071          EP2017070120170731FB46001897A78007473
38878586969HMV 005ITV                                000347745THYSSENKRUPP ELEVADORES SLU        P1319500355105D11  TCR CENTRO CANARIAS         000000001031350082227112017071          EP2017070120170731FB46001897A78007473
38878586969HMV 002Mantenim.                          000347745THYSSENKRUPP ELEVADORES SLU        P1319500355105D11  TCR CENTRO CANARIAS         000000047531350082227112017071          EP2017070120170731FB46001897A78007473
38878586969HMV 004Administ.                          000347745THYSSENKRUPP ELEVADORES SLU        P1319500355105D11  TCR CENTRO CANARIAS         000000010001350082227112017071          EP2017070120170731FB46001897A78007473
32137357403GVS 001Renting                            000347745THYSSENKRUPP ELEVADORES SLU        P1319500253103790 LANZAROTE                    000000133490700082227132017071          EP2017070120170731FB46001897A78007473
32137357403GVS 003Seguro                             000347745THYSSENKRUPP ELEVADORES SLU        P1319500253103790 LANZAROTE                    000000059440700082227132017071          EP2017070120170731FB46001897A78007473
32137357403GVS 005ITV                                000347745THYSSENKRUPP ELEVADORES SLU        P1319500253103790 LANZAROTE                    000000003830700082227132017071          EP2017070120170731FB46001897A78007473
32137357403GVS 002Mantenim.                          000347745THYSSENKRUPP ELEVADORES SLU        P1319500253103790 LANZAROTE                    000000034870700082227132017071          EP2017070120170731FB46001897A78007473
32137357403GVS 004Administ.                          000347745THYSSENKRUPP ELEVADORES SLU        P1319500253103790 LANZAROTE                    000000010000700082227132017071          EP2017070120170731FB46001897A78007473
38915163305HMX 001Renting                            000347745THYSSENKRUPP ELEVADORES SLU        P1319500253103790 LANZAROTE                    000000115070700082227132017071          EP2017070120170731FB46001897A78007473
38915163305HMX 003Seguro                             000347745THYSSENKRUPP ELEVADORES SLU        P1319500253103790 LANZAROTE                    000000054720700082227132017071          EP2017070120170731FB46001897A78007473
38915163305HMX 005ITV                                000347745THYSSENKRUPP ELEVADORES SLU        P1319500253103790 LANZAROTE                    000000001970700082227132017071          EP2017070120170731FB46001897A78007473
38915163305HMX 002Mantenim.                          000347745THYSSENKRUPP ELEVADORES SLU        P1319500253103790 LANZAROTE                    000000044640700082227132017071          EP2017070120170731FB46001897A78007473
38915163305HMX 004Administ.                          000347745THYSSENKRUPP ELEVADORES SLU        P1319500253103790 LANZAROTE                    000000010000700082227132017071          EP2017070120170731FB46001897A78007473
38915283302HMX 001Renting                            000347745THYSSENKRUPP ELEVADORES SLU        P1319500253103790 LANZAROTE                    000000115070700082227132017071          EP2017070120170731FB46001897A78007473
38915283302HMX 003Seguro                             000347745THYSSENKRUPP ELEVADORES SLU        P1319500253103790 LANZAROTE                    000000054720700082227132017071          EP2017070120170731FB46001897A78007473
38915283302HMX 005ITV                                000347745THYSSENKRUPP ELEVADORES SLU        P1319500253103790 LANZAROTE                    000000001970700082227132017071          EP2017070120170731FB46001897A78007473
38915283302HMX 002Mantenim.                          000347745THYSSENKRUPP ELEVADORES SLU        P1319500253103790 LANZAROTE                    000000044640700082227132017071          EP2017070120170731FB46001897A78007473
38915283302HMX 004Administ.                          000347745THYSSENKRUPP ELEVADORES SLU        P1319500253103790 LANZAROTE                    000000010000700082227132017071          EP2017070120170731FB46001897A78007473
38915303327HMX 001Renting                            000347745THYSSENKRUPP ELEVADORES SLU        P1319500253103790 LANZAROTE                    000000115070700082227132017071          EP2017070120170731FB46001897A78007473
38915303327HMX 003Seguro                             000347745THYSSENKRUPP ELEVADORES SLU        P1319500253103790 LANZAROTE                    000000054720700082227132017071          EP2017070120170731FB46001897A78007473
38915303327HMX 005ITV                                000347745THYSSENKRUPP ELEVADORES SLU        P1319500253103790 LANZAROTE                    000000001970700082227132017071          EP2017070120170731FB46001897A78007473
38915303327HMX 002Mantenim.                          000347745THYSSENKRUPP ELEVADORES SLU        P1319500253103790 LANZAROTE                    000000044640700082227132017071          EP2017070120170731FB46001897A78007473
38915303327HMX 004Administ.                          000347745THYSSENKRUPP ELEVADORES SLU        P1319500253103790 LANZAROTE                    000000010000700082227132017071          EP2017070120170731FB46001897A78007473
40850471507HTB 001Renting                            000347745THYSSENKRUPP ELEVADORES SLU        P1319500253103790 LANZAROTE                    000000105760700082227132017071          EP2017070120170731FB46001897A78007473
40850471507HTB 003Seguro                             000347745THYSSENKRUPP ELEVADORES SLU        P1319500253103790 LANZAROTE                    000000054540700082227132017071          EP2017070120170731FB46001897A78007473
40850471507HTB 005ITV                                000347745THYSSENKRUPP ELEVADORES SLU        P1319500253103790 LANZAROTE                    000000001970700082227132017071          EP2017070120170731FB46001897A78007473
40850471507HTB 002Mantenim.                          000347745THYSSENKRUPP ELEVADORES SLU        P1319500253103790 LANZAROTE                    000000040330700082227132017071          EP2017070120170731FB46001897A78007473
40850471507HTB 004Administ.                          000347745THYSSENKRUPP ELEVADORES SLU        P1319500253103790 LANZAROTE                    000000010000700082227132017071          EP2017070120170731FB46001897A78007473
40850591503HTB 001Renting                            000347745THYSSENKRUPP ELEVADORES SLU        P1319500253103790 LANZAROTE                    000000105760700082227132017071          EP2017070120170731FB46001897A78007473
40850591503HTB 003Seguro                             000347745THYSSENKRUPP ELEVADORES SLU        P1319500253103790 LANZAROTE                    000000054540700082227132017071          EP2017070120170731FB46001897A78007473
40850591503HTB 005ITV                                000347745THYSSENKRUPP ELEVADORES SLU        P1319500253103790 LANZAROTE                    000000001970700082227132017071          EP2017070120170731FB46001897A78007473
40850591503HTB 002Mantenim.                          000347745THYSSENKRUPP ELEVADORES SLU        P1319500253103790 LANZAROTE                    000000040330700082227132017071          EP2017070120170731FB46001897A78007473
40850591503HTB 004Administ.                          000347745THYSSENKRUPP ELEVADORES SLU        P1319500253103790 LANZAROTE                    000000010000700082227132017071          EP2017070120170731FB46001897A78007473
39915277058HPV 001Renting                            000347745THYSSENKRUPP ELEVADORES SLU        P1319500372103791 LANZAROTE MOI                000000107441350082227142017071          EP2017070120170731FB46001897A78007473
39915277058HPV 003Seguro                             000347745THYSSENKRUPP ELEVADORES SLU        P1319500372103791 LANZAROTE MOI                000000047871350082227142017071          EP2017070120170731FB46001897A78007473
39915277058HPV 005ITV                                000347745THYSSENKRUPP ELEVADORES SLU        P1319500372103791 LANZAROTE MOI                000000001031350082227142017071          EP2017070120170731FB46001897A78007473
39915277058HPV 002Mantenim.                          000347745THYSSENKRUPP ELEVADORES SLU        P1319500372103791 LANZAROTE MOI                000000042541350082227142017071          EP2017070120170731FB46001897A78007473
39915277058HPV 004Administ.                          000347745THYSSENKRUPP ELEVADORES SLU        P1319500372103791 LANZAROTE MOI                000000010001350082227142017071          EP2017070120170731FB46001897A78007473
30925629113GPM 001Renting                            000347745THYSSENKRUPP ELEVADORES SLU        P1319500058103070 TENERIFE                     000000125450700082227152017071          EP2017070120170731FB46001897A78007473
30925629113GPM 003Seguro                             000347745THYSSENKRUPP ELEVADORES SLU        P1319500058103070 TENERIFE                     000000059750700082227152017071          EP2017070120170731FB46001897A78007473
30925629113GPM 005ITV                                000347745THYSSENKRUPP ELEVADORES SLU        P1319500058103070 TENERIFE                     000000005830700082227152017071          EP2017070120170731FB46001897A78007473
30925629113GPM 002Mantenim.                          000347745THYSSENKRUPP ELEVADORES SLU        P1319500058103070 TENERIFE                     000000037950700082227152017071          EP2017070120170731FB46001897A78007473
30925629113GPM 004Administ.                          000347745THYSSENKRUPP ELEVADORES SLU        P1319500058103070 TENERIFE                     000000010000700082227152017071          EP2017070120170731FB46001897A78007473
30925989120GPM 001Renting                            000347745THYSSENKRUPP ELEVADORES SLU        P1319500058103070 TENERIFE                     000000125450700082227152017071          EP2017070120170731FB46001897A78007473
30925989120GPM 003Seguro                             000347745THYSSENKRUPP ELEVADORES SLU        P1319500058103070 TENERIFE                     000000059750700082227152017071          EP2017070120170731FB46001897A78007473
30925989120GPM 005ITV                                000347745THYSSENKRUPP ELEVADORES SLU        P1319500058103070 TENERIFE                     000000005830700082227152017071          EP2017070120170731FB46001897A78007473
30925989120GPM 002Mantenim.                          000347745THYSSENKRUPP ELEVADORES SLU        P1319500058103070 TENERIFE                     000000037950700082227152017071          EP2017070120170731FB46001897A78007473
30925989120GPM 004Administ.                          000347745THYSSENKRUPP ELEVADORES SLU        P1319500058103070 TENERIFE                     000000010000700082227152017071          EP2017070120170731FB46001897A78007473
32043764340GTY 001Renting                            000347745THYSSENKRUPP ELEVADORES SLU        P1319500058103070 TENERIFE                     000000125190700082227152017071          EP2017070120170731FB46001897A78007473
32043764340GTY 003Seguro                             000347745THYSSENKRUPP ELEVADORES SLU        P1319500058103070 TENERIFE                     000000058820700082227152017071          EP2017070120170731FB46001897A78007473
32043764340GTY 005ITV                                000347745THYSSENKRUPP ELEVADORES SLU        P1319500058103070 TENERIFE                     000000005830700082227152017071          EP2017070120170731FB46001897A78007473
32043764340GTY 002Mantenim.                          000347745THYSSENKRUPP ELEVADORES SLU        P1319500058103070 TENERIFE                     000000037950700082227152017071          EP2017070120170731FB46001897A78007473
32043764340GTY 004Administ.                          000347745THYSSENKRUPP ELEVADORES SLU        P1319500058103070 TENERIFE                     000000010000700082227152017071          EP2017070120170731FB46001897A78007473
32136846765GVD 001Renting                            000347745THYSSENKRUPP ELEVADORES SLU        P1319500058103070 TENERIFE                     000000133490700082227152017071          EP2017070120170731FB46001897A78007473
32136846765GVD 003Seguro                             000347745THYSSENKRUPP ELEVADORES SLU        P1319500058103070 TENERIFE                     000000059440700082227152017071          EP2017070120170731FB46001897A78007473
32136846765GVD 005ITV                                000347745THYSSENKRUPP ELEVADORES SLU        P1319500058103070 TENERIFE                     000000003830700082227152017071          EP2017070120170731FB46001897A78007473
32136846765GVD 002Mantenim.                          000347745THYSSENKRUPP ELEVADORES SLU        P1319500058103070 TENERIFE                     000000034870700082227152017071          EP2017070120170731FB46001897A78007473
32136846765GVD 004Administ.                          000347745THYSSENKRUPP ELEVADORES SLU        P1319500058103070 TENERIFE                     000000010000700082227152017071          EP2017070120170731FB46001897A78007473
32137117410GVS 001Renting                            000347745THYSSENKRUPP ELEVADORES SLU        P1319500058103070 TENERIFE                     000000133490700082227152017071          EP2017070120170731FB46001897A78007473
32137117410GVS 003Seguro                             000347745THYSSENKRUPP ELEVADORES SLU        P1319500058103070 TENERIFE                     000000059440700082227152017071          EP2017070120170731FB46001897A78007473
32137117410GVS 005ITV                                000347745THYSSENKRUPP ELEVADORES SLU        P1319500058103070 TENERIFE                     000000003830700082227152017071          EP2017070120170731FB46001897A78007473
32137117410GVS 002Mantenim.                          000347745THYSSENKRUPP ELEVADORES SLU        P1319500058103070 TENERIFE                     000000034870700082227152017071          EP2017070120170731FB46001897A78007473
32137117410GVS 004Administ.                          000347745THYSSENKRUPP ELEVADORES SLU        P1319500058103070 TENERIFE                     000000010000700082227152017071          EP2017070120170731FB46001897A78007473
34147399387GZY 001Renting                            000347745THYSSENKRUPP ELEVADORES SLU        P1319500058103070 TENERIFE                     000000127190700082227152017071          EP2017070120170731FB46001897A78007473
34147399387GZY 003Seguro                             000347745THYSSENKRUPP ELEVADORES SLU        P1319500058103070 TENERIFE                     000000059690700082227152017071          EP2017070120170731FB46001897A78007473
34147399387GZY 005ITV                                000347745THYSSENKRUPP ELEVADORES SLU        P1319500058103070 TENERIFE                     000000002360700082227152017071          EP2017070120170731FB46001897A78007473
34147399387GZY 002Mantenim.                          000347745THYSSENKRUPP ELEVADORES SLU        P1319500058103070 TENERIFE                     000000034520700082227152017071          EP2017070120170731FB46001897A78007473
34147399387GZY 004Administ.                          000347745THYSSENKRUPP ELEVADORES SLU        P1319500058103070 TENERIFE                     000000010000700082227152017071          EP2017070120170731FB46001897A78007473
36151553045HGD 001Renting                            000347745THYSSENKRUPP ELEVADORES SLU        P1319500058103070 TENERIFE                     000000127240700082227152017071          EP2017070120170731FB46001897A78007473
36151553045HGD 003Seguro                             000347745THYSSENKRUPP ELEVADORES SLU        P1319500058103070 TENERIFE                     000000061010700082227152017071          EP2017070120170731FB46001897A78007473
36151553045HGD 005ITV                                000347745THYSSENKRUPP ELEVADORES SLU        P1319500058103070 TENERIFE                     000000001360700082227152017071          EP2017070120170731FB46001897A78007473
36151553045HGD 002Mantenim.                          000347745THYSSENKRUPP ELEVADORES SLU        P1319500058103070 TENERIFE                     000000034520700082227152017071          EP2017070120170731FB46001897A78007473
36151553045HGD 004Administ.                          000347745THYSSENKRUPP ELEVADORES SLU        P1319500058103070 TENERIFE                     000000010000700082227152017071          EP2017070120170731FB46001897A78007473
38910593314HMX 001Renting                            000347745THYSSENKRUPP ELEVADORES SLU        P1319500058103070 TENERIFE                     000000115070700082227152017071          EP2017070120170731FB46001897A78007473
38910593314HMX 003Seguro                             000347745THYSSENKRUPP ELEVADORES SLU        P1319500058103070 TENERIFE                     000000054720700082227152017071          EP2017070120170731FB46001897A78007473
38910593314HMX 005ITV                                000347745THYSSENKRUPP ELEVADORES SLU        P1319500058103070 TENERIFE                     000000001970700082227152017071          EP2017070120170731FB46001897A78007473
38910593314HMX 002Mantenim.                          000347745THYSSENKRUPP ELEVADORES SLU        P1319500058103070 TENERIFE                     000000044640700082227152017071          EP2017070120170731FB46001897A78007473
38910593314HMX 004Administ.                          000347745THYSSENKRUPP ELEVADORES SLU        P1319500058103070 TENERIFE                     000000010000700082227152017071          EP2017070120170731FB46001897A78007473
38910613330HMX 001Renting                            000347745THYSSENKRUPP ELEVADORES SLU        P1319500058103070 TENERIFE                     000000115070700082227152017071          EP2017070120170731FB46001897A78007473
38910613330HMX 003Seguro                             000347745THYSSENKRUPP ELEVADORES SLU        P1319500058103070 TENERIFE                     000000054720700082227152017071          EP2017070120170731FB46001897A78007473
38910613330HMX 005ITV                                000347745THYSSENKRUPP ELEVADORES SLU        P1319500058103070 TENERIFE                     000000001970700082227152017071          EP2017070120170731FB46001897A78007473
38910613330HMX 002Mantenim.                          000347745THYSSENKRUPP ELEVADORES SLU        P1319500058103070 TENERIFE                     000000044640700082227152017071          EP2017070120170731FB46001897A78007473
38910613330HMX 004Administ.                          000347745THYSSENKRUPP ELEVADORES SLU        P1319500058103070 TENERIFE                     000000010000700082227152017071          EP2017070120170731FB46001897A78007473
38910743319HMX 001Renting                            000347745THYSSENKRUPP ELEVADORES SLU        P1319500058103070 TENERIFE                     000000115070700082227152017071          EP2017070120170731FB46001897A78007473
38910743319HMX 003Seguro                             000347745THYSSENKRUPP ELEVADORES SLU        P1319500058103070 TENERIFE                     000000054720700082227152017071          EP2017070120170731FB46001897A78007473
38910743319HMX 005ITV                                000347745THYSSENKRUPP ELEVADORES SLU        P1319500058103070 TENERIFE                     000000001970700082227152017071          EP2017070120170731FB46001897A78007473
38910743319HMX 002Mantenim.                          000347745THYSSENKRUPP ELEVADORES SLU        P1319500058103070 TENERIFE                     000000044640700082227152017071          EP2017070120170731FB46001897A78007473
38910743319HMX 004Administ.                          000347745THYSSENKRUPP ELEVADORES SLU        P1319500058103070 TENERIFE                     000000010000700082227152017071          EP2017070120170731FB46001897A78007473
38915793333HMX 001Renting                            000347745THYSSENKRUPP ELEVADORES SLU        P1319500058103070 TENERIFE                     000000115070700082227152017071          EP2017070120170731FB46001897A78007473
38915793333HMX 003Seguro                             000347745THYSSENKRUPP ELEVADORES SLU        P1319500058103070 TENERIFE                     000000054720700082227152017071          EP2017070120170731FB46001897A78007473
38915793333HMX 005ITV                                000347745THYSSENKRUPP ELEVADORES SLU        P1319500058103070 TENERIFE                     000000001970700082227152017071          EP2017070120170731FB46001897A78007473
38915793333HMX 002Mantenim.                          000347745THYSSENKRUPP ELEVADORES SLU        P1319500058103070 TENERIFE                     000000044640700082227152017071          EP2017070120170731FB46001897A78007473
38915793333HMX 004Administ.                          000347745THYSSENKRUPP ELEVADORES SLU        P1319500058103070 TENERIFE                     000000010000700082227152017071          EP2017070120170731FB46001897A78007473
38916053288HMX 001Renting                            000347745THYSSENKRUPP ELEVADORES SLU        P1319500058103070 TENERIFE                     000000115070700082227152017071          EP2017070120170731FB46001897A78007473
38916053288HMX 003Seguro                             000347745THYSSENKRUPP ELEVADORES SLU        P1319500058103070 TENERIFE                     000000054720700082227152017071          EP2017070120170731FB46001897A78007473
38916053288HMX 005ITV                                000347745THYSSENKRUPP ELEVADORES SLU        P1319500058103070 TENERIFE                     000000001970700082227152017071          EP2017070120170731FB46001897A78007473
38916053288HMX 002Mantenim.                          000347745THYSSENKRUPP ELEVADORES SLU        P1319500058103070 TENERIFE                     000000044640700082227152017071          EP2017070120170731FB46001897A78007473
38916053288HMX 004Administ.                          000347745THYSSENKRUPP ELEVADORES SLU        P1319500058103070 TENERIFE                     000000010000700082227152017071          EP2017070120170731FB46001897A78007473
39079829682HND 001Renting                            000347745THYSSENKRUPP ELEVADORES SLU        P1319500058103070 TENERIFE                     000000115070700082227152017071          EP2017070120170731FB46001897A78007473
39079829682HND 003Seguro                             000347745THYSSENKRUPP ELEVADORES SLU        P1319500058103070 TENERIFE                     000000054720700082227152017071          EP2017070120170731FB46001897A78007473
39079829682HND 005ITV                                000347745THYSSENKRUPP ELEVADORES SLU        P1319500058103070 TENERIFE                     000000001970700082227152017071          EP2017070120170731FB46001897A78007473
39079829682HND 002Mantenim.                          000347745THYSSENKRUPP ELEVADORES SLU        P1319500058103070 TENERIFE                     000000044640700082227152017071          EP2017070120170731FB46001897A78007473
39079829682HND 004Administ.                          000347745THYSSENKRUPP ELEVADORES SLU        P1319500058103070 TENERIFE                     000000010000700082227152017071          EP2017070120170731FB46001897A78007473
39079949021HNF 001Renting                            000347745THYSSENKRUPP ELEVADORES SLU        P1319500058103070 TENERIFE                     000000115070700082227152017071          EP2017070120170731FB46001897A78007473
39079949021HNF 003Seguro                             000347745THYSSENKRUPP ELEVADORES SLU        P1319500058103070 TENERIFE                     000000054710700082227152017071          EP2017070120170731FB46001897A78007473
39079949021HNF 005ITV                                000347745THYSSENKRUPP ELEVADORES SLU        P1319500058103070 TENERIFE                     000000001970700082227152017071          EP2017070120170731FB46001897A78007473
39079949021HNF 002Mantenim.                          000347745THYSSENKRUPP ELEVADORES SLU        P1319500058103070 TENERIFE                     000000044640700082227152017071          EP2017070120170731FB46001897A78007473
39079949021HNF 004Administ.                          000347745THYSSENKRUPP ELEVADORES SLU        P1319500058103070 TENERIFE                     000000010000700082227152017071          EP2017070120170731FB46001897A78007473
39080069703HND 001Renting                            000347745THYSSENKRUPP ELEVADORES SLU        P1319500058103070 TENERIFE                     000000115070700082227152017071          EP2017070120170731FB46001897A78007473
39080069703HND 003Seguro                             000347745THYSSENKRUPP ELEVADORES SLU        P1319500058103070 TENERIFE                     000000054720700082227152017071          EP2017070120170731FB46001897A78007473
39080069703HND 005ITV                                000347745THYSSENKRUPP ELEVADORES SLU        P1319500058103070 TENERIFE                     000000001970700082227152017071          EP2017070120170731FB46001897A78007473
39080069703HND 002Mantenim.                          000347745THYSSENKRUPP ELEVADORES SLU        P1319500058103070 TENERIFE                     000000044640700082227152017071          EP2017070120170731FB46001897A78007473
39080069703HND 004Administ.                          000347745THYSSENKRUPP ELEVADORES SLU        P1319500058103070 TENERIFE                     000000010000700082227152017071          EP2017070120170731FB46001897A78007473
39091989699HND 001Renting                            000347745THYSSENKRUPP ELEVADORES SLU        P1319500058103070 TENERIFE                     000000115070700082227152017071          EP2017070120170731FB46001897A78007473
39091989699HND 003Seguro                             000347745THYSSENKRUPP ELEVADORES SLU        P1319500058103070 TENERIFE                     000000054720700082227152017071          EP2017070120170731FB46001897A78007473
39091989699HND 005ITV                                000347745THYSSENKRUPP ELEVADORES SLU        P1319500058103070 TENERIFE                     000000001970700082227152017071          EP2017070120170731FB46001897A78007473
39091989699HND 002Mantenim.                          000347745THYSSENKRUPP ELEVADORES SLU        P1319500058103070 TENERIFE                     000000044640700082227152017071          EP2017070120170731FB46001897A78007473
39091989699HND 004Administ.                          000347745THYSSENKRUPP ELEVADORES SLU        P1319500058103070 TENERIFE                     000000010000700082227152017071          EP2017070120170731FB46001897A78007473
39229561699HNF 001Renting                            000347745THYSSENKRUPP ELEVADORES SLU        P1319500058103070 TENERIFE                     000000106880700082227152017071          EP2017070120170731FB46001897A78007473
39229561699HNF 003Seguro                             000347745THYSSENKRUPP ELEVADORES SLU        P1319500058103070 TENERIFE                     000000055970700082227152017071          EP2017070120170731FB46001897A78007473
39229561699HNF 005ITV                                000347745THYSSENKRUPP ELEVADORES SLU        P1319500058103070 TENERIFE                     000000001970700082227152017071          EP2017070120170731FB46001897A78007473
39229561699HNF 002Mantenim.                          000347745THYSSENKRUPP ELEVADORES SLU        P1319500058103070 TENERIFE                     000000053590700082227152017071          EP2017070120170731FB46001897A78007473
39229561699HNF 004Administ.                          000347745THYSSENKRUPP ELEVADORES SLU        P1319500058103070 TENERIFE                     000000010000700082227152017071          EP2017070120170731FB46001897A78007473
40021228938HRR 001Renting                            000347745THYSSENKRUPP ELEVADORES SLU        P1319500058103070 TENERIFE                     000000105760700082227152017071          EP2017070120170731FB46001897A78007473
40021228938HRR 003Seguro                             000347745THYSSENKRUPP ELEVADORES SLU        P1319500058103070 TENERIFE                     000000054540700082227152017071          EP2017070120170731FB46001897A78007473
40021228938HRR 005ITV                                000347745THYSSENKRUPP ELEVADORES SLU        P1319500058103070 TENERIFE                     000000001970700082227152017071          EP2017070120170731FB46001897A78007473
40021228938HRR 002Mantenim.                          000347745THYSSENKRUPP ELEVADORES SLU        P1319500058103070 TENERIFE                     000000040330700082227152017071          EP2017070120170731FB46001897A78007473
40021228938HRR 004Administ.                          000347745THYSSENKRUPP ELEVADORES SLU        P1319500058103070 TENERIFE                     000000010000700082227152017071          EP2017070120170731FB46001897A78007473
40021348937HRR 001Renting                            000347745THYSSENKRUPP ELEVADORES SLU        P1319500058103070 TENERIFE                     000000105760700082227152017071          EP2017070120170731FB46001897A78007473
40021348937HRR 003Seguro                             000347745THYSSENKRUPP ELEVADORES SLU        P1319500058103070 TENERIFE                     000000054540700082227152017071          EP2017070120170731FB46001897A78007473
40021348937HRR 005ITV                                000347745THYSSENKRUPP ELEVADORES SLU        P1319500058103070 TENERIFE                     000000001970700082227152017071          EP2017070120170731FB46001897A78007473
40021348937HRR 002Mantenim.                          000347745THYSSENKRUPP ELEVADORES SLU        P1319500058103070 TENERIFE                     000000040330700082227152017071          EP2017070120170731FB46001897A78007473
40021348937HRR 004Administ.                          000347745THYSSENKRUPP ELEVADORES SLU        P1319500058103070 TENERIFE                     000000010000700082227152017071          EP2017070120170731FB46001897A78007473
40049823948HSC 001Renting                            000347745THYSSENKRUPP ELEVADORES SLU        P1319500058103070 TENERIFE                     000000105760700082227152017071          EP2017070120170731FB46001897A78007473
40049823948HSC 003Seguro                             000347745THYSSENKRUPP ELEVADORES SLU        P1319500058103070 TENERIFE                     000000054540700082227152017071          EP2017070120170731FB46001897A78007473
40049823948HSC 005ITV                                000347745THYSSENKRUPP ELEVADORES SLU        P1319500058103070 TENERIFE                     000000001970700082227152017071          EP2017070120170731FB46001897A78007473
40049823948HSC 002Mantenim.                          000347745THYSSENKRUPP ELEVADORES SLU        P1319500058103070 TENERIFE                     000000040330700082227152017071          EP2017070120170731FB46001897A78007473
40049823948HSC 004Administ.                          000347745THYSSENKRUPP ELEVADORES SLU        P1319500058103070 TENERIFE                     000000010000700082227152017071          EP2017070120170731FB46001897A78007473
40486940914HSS 001Renting                            000347745THYSSENKRUPP ELEVADORES SLU        P1319500058103070 TENERIFE                     000000105760700082227152017071          EP2017070120170731FB46001897A78007473
40486940914HSS 003Seguro                             000347745THYSSENKRUPP ELEVADORES SLU        P1319500058103070 TENERIFE                     000000054540700082227152017071          EP2017070120170731FB46001897A78007473
40486940914HSS 005ITV                                000347745THYSSENKRUPP ELEVADORES SLU        P1319500058103070 TENERIFE                     000000001970700082227152017071          EP2017070120170731FB46001897A78007473
40486940914HSS 002Mantenim.                          000347745THYSSENKRUPP ELEVADORES SLU        P1319500058103070 TENERIFE                     000000040330700082227152017071          EP2017070120170731FB46001897A78007473
40486940914HSS 004Administ.                          000347745THYSSENKRUPP ELEVADORES SLU        P1319500058103070 TENERIFE                     000000010000700082227152017071          EP2017070120170731FB46001897A78007473
40487210916HSS 001Renting                            000347745THYSSENKRUPP ELEVADORES SLU        P1319500058103070 TENERIFE                     000000105760700082227152017071          EP2017070120170731FB46001897A78007473
40487210916HSS 003Seguro                             000347745THYSSENKRUPP ELEVADORES SLU        P1319500058103070 TENERIFE                     000000054540700082227152017071          EP2017070120170731FB46001897A78007473
40487210916HSS 005ITV                                000347745THYSSENKRUPP ELEVADORES SLU        P1319500058103070 TENERIFE                     000000001970700082227152017071          EP2017070120170731FB46001897A78007473
40487210916HSS 002Mantenim.                          000347745THYSSENKRUPP ELEVADORES SLU        P1319500058103070 TENERIFE                     000000040330700082227152017071          EP2017070120170731FB46001897A78007473
40487210916HSS 004Administ.                          000347745THYSSENKRUPP ELEVADORES SLU        P1319500058103070 TENERIFE                     000000010000700082227152017071          EP2017070120170731FB46001897A78007473
40487450917HSS 001Renting                            000347745THYSSENKRUPP ELEVADORES SLU        P1319500058103070 TENERIFE                     000000105760700082227152017071          EP2017070120170731FB46001897A78007473
40487450917HSS 003Seguro                             000347745THYSSENKRUPP ELEVADORES SLU        P1319500058103070 TENERIFE                     000000054540700082227152017071          EP2017070120170731FB46001897A78007473
40487450917HSS 005ITV                                000347745THYSSENKRUPP ELEVADORES SLU        P1319500058103070 TENERIFE                     000000001970700082227152017071          EP2017070120170731FB46001897A78007473
40487450917HSS 002Mantenim.                          000347745THYSSENKRUPP ELEVADORES SLU        P1319500058103070 TENERIFE                     000000040330700082227152017071          EP2017070120170731FB46001897A78007473
40487450917HSS 004Administ.                          000347745THYSSENKRUPP ELEVADORES SLU        P1319500058103070 TENERIFE                     000000010000700082227152017071          EP2017070120170731FB46001897A78007473
40490565085HSM 001Renting                            000347745THYSSENKRUPP ELEVADORES SLU        P1319500058103070 TENERIFE                     000000105760700082227152017071          EP2017070120170731FB46001897A78007473
40490565085HSM 003Seguro                             000347745THYSSENKRUPP ELEVADORES SLU        P1319500058103070 TENERIFE                     000000054540700082227152017071          EP2017070120170731FB46001897A78007473
40490565085HSM 005ITV                                000347745THYSSENKRUPP ELEVADORES SLU        P1319500058103070 TENERIFE                     000000001970700082227152017071          EP2017070120170731FB46001897A78007473
40490565085HSM 002Mantenim.                          000347745THYSSENKRUPP ELEVADORES SLU        P1319500058103070 TENERIFE                     000000040330700082227152017071          EP2017070120170731FB46001897A78007473
40490565085HSM 004Administ.                          000347745THYSSENKRUPP ELEVADORES SLU        P1319500058103070 TENERIFE                     000000010000700082227152017071          EP2017070120170731FB46001897A78007473
40845601509HTB 001Renting                            000347745THYSSENKRUPP ELEVADORES SLU        P1319500058103070 TENERIFE                     000000105760700082227152017071          EP2017070120170731FB46001897A78007473
40845601509HTB 003Seguro                             000347745THYSSENKRUPP ELEVADORES SLU        P1319500058103070 TENERIFE                     000000054540700082227152017071          EP2017070120170731FB46001897A78007473
40845601509HTB 005ITV                                000347745THYSSENKRUPP ELEVADORES SLU        P1319500058103070 TENERIFE                     000000001970700082227152017071          EP2017070120170731FB46001897A78007473
40845601509HTB 002Mantenim.                          000347745THYSSENKRUPP ELEVADORES SLU        P1319500058103070 TENERIFE                     000000040330700082227152017071          EP2017070120170731FB46001897A78007473
40845601509HTB 004Administ.                          000347745THYSSENKRUPP ELEVADORES SLU        P1319500058103070 TENERIFE                     000000010000700082227152017071          EP2017070120170731FB46001897A78007473
40845721505HTB 001Renting                            000347745THYSSENKRUPP ELEVADORES SLU        P1319500058103070 TENERIFE                     000000105760700082227152017071          EP2017070120170731FB46001897A78007473
40845721505HTB 003Seguro                             000347745THYSSENKRUPP ELEVADORES SLU        P1319500058103070 TENERIFE                     000000054540700082227152017071          EP2017070120170731FB46001897A78007473
40845721505HTB 005ITV                                000347745THYSSENKRUPP ELEVADORES SLU        P1319500058103070 TENERIFE                     000000001970700082227152017071          EP2017070120170731FB46001897A78007473
40845721505HTB 002Mantenim.                          000347745THYSSENKRUPP ELEVADORES SLU        P1319500058103070 TENERIFE                     000000040330700082227152017071          EP2017070120170731FB46001897A78007473
40845721505HTB 004Administ.                          000347745THYSSENKRUPP ELEVADORES SLU        P1319500058103070 TENERIFE                     000000010000700082227152017071          EP2017070120170731FB46001897A78007473
40856297794HTJ 001Renting                            000347745THYSSENKRUPP ELEVADORES SLU        P1319500058103070 TENERIFE                     000000105760700082227152017071          EP2017070120170731FB46001897A78007473
40856297794HTJ 003Seguro                             000347745THYSSENKRUPP ELEVADORES SLU        P1319500058103070 TENERIFE                     000000054540700082227152017071          EP2017070120170731FB46001897A78007473
40856297794HTJ 005ITV                                000347745THYSSENKRUPP ELEVADORES SLU        P1319500058103070 TENERIFE                     000000001970700082227152017071          EP2017070120170731FB46001897A78007473
40856297794HTJ 002Mantenim.                          000347745THYSSENKRUPP ELEVADORES SLU        P1319500058103070 TENERIFE                     000000040330700082227152017071          EP2017070120170731FB46001897A78007473
40856297794HTJ 004Administ.                          000347745THYSSENKRUPP ELEVADORES SLU        P1319500058103070 TENERIFE                     000000010000700082227152017071          EP2017070120170731FB46001897A78007473
40856310083HTM 001Renting                            000347745THYSSENKRUPP ELEVADORES SLU        P1319500058103070 TENERIFE                     000000105760700082227152017071          EP2017070120170731FB46001897A78007473
40856310083HTM 003Seguro                             000347745THYSSENKRUPP ELEVADORES SLU        P1319500058103070 TENERIFE                     000000054540700082227152017071          EP2017070120170731FB46001897A78007473
40856310083HTM 005ITV                                000347745THYSSENKRUPP ELEVADORES SLU        P1319500058103070 TENERIFE                     000000001970700082227152017071          EP2017070120170731FB46001897A78007473
40856310083HTM 002Mantenim.                          000347745THYSSENKRUPP ELEVADORES SLU        P1319500058103070 TENERIFE                     000000040330700082227152017071          EP2017070120170731FB46001897A78007473
40856310083HTM 004Administ.                          000347745THYSSENKRUPP ELEVADORES SLU        P1319500058103070 TENERIFE                     000000010000700082227152017071          EP2017070120170731FB46001897A78007473
41192523063HVT 001Renting                            000347745THYSSENKRUPP ELEVADORES SLU        P1319500058103070 TENERIFE                     000000105760700082227152017071          EP2017070120170731FB46001897A78007473
41192523063HVT 003Seguro                             000347745THYSSENKRUPP ELEVADORES SLU        P1319500058103070 TENERIFE                     000000054540700082227152017071          EP2017070120170731FB46001897A78007473
41192523063HVT 005ITV                                000347745THYSSENKRUPP ELEVADORES SLU        P1319500058103070 TENERIFE                     000000001970700082227152017071          EP2017070120170731FB46001897A78007473
41192523063HVT 002Mantenim.                          000347745THYSSENKRUPP ELEVADORES SLU        P1319500058103070 TENERIFE                     000000040330700082227152017071          EP2017070120170731FB46001897A78007473
41192523063HVT 004Administ.                          000347745THYSSENKRUPP ELEVADORES SLU        P1319500058103070 TENERIFE                     000000010000700082227152017071          EP2017070120170731FB46001897A78007473
48580008220JPK 001Renting                            000347745THYSSENKRUPP ELEVADORES SLU        P1319500058103070 TENERIFE                     000000095960700082227152017071          EP2017070120170731FB46001897A78007473
48580008220JPK 003Seguro                             000347745THYSSENKRUPP ELEVADORES SLU        P1319500058103070 TENERIFE                     000000063510700082227152017071          EP2017070120170731FB46001897A78007473
48580008220JPK 005ITV                                000347745THYSSENKRUPP ELEVADORES SLU        P1319500058103070 TENERIFE                     000000002430700082227152017071          EP2017070120170731FB46001897A78007473
48580008220JPK 002Mantenim.                          000347745THYSSENKRUPP ELEVADORES SLU        P1319500058103070 TENERIFE                     000000048290700082227152017071          EP2017070120170731FB46001897A78007473
48580008220JPK 004Administ.                          000347745THYSSENKRUPP ELEVADORES SLU        P1319500058103070 TENERIFE                     000000010000700082227152017071          EP2017070120170731FB46001897A78007473
30923516830GNW 001Renting                            000347745THYSSENKRUPP ELEVADORES SLU        P1319500102105D11 TCR CENTRO CANARIAS          000000110801350082227162017071          EP2017070120170731FB46001897A78007473
30923516830GNW 003Seguro                             000347745THYSSENKRUPP ELEVADORES SLU        P1319500102105D11 TCR CENTRO CANARIAS          000000058761350082227162017071          EP2017070120170731FB46001897A78007473
30923516830GNW 005ITV                                000347745THYSSENKRUPP ELEVADORES SLU        P1319500102105D11 TCR CENTRO CANARIAS          000000003231350082227162017071          EP2017070120170731FB46001897A78007473
30923516830GNW 002Mantenim.                          000347745THYSSENKRUPP ELEVADORES SLU        P1319500102105D11 TCR CENTRO CANARIAS          000000032961350082227162017071          EP2017070120170731FB46001897A78007473
30923516830GNW 004Administ.                          000347745THYSSENKRUPP ELEVADORES SLU        P1319500102105D11 TCR CENTRO CANARIAS          000000010001350082227162017071          EP2017070120170731FB46001897A78007473
30920846470GNW 001Renting                            000347745THYSSENKRUPP ELEVADORES SLU        P1319500103103070 TENERIFE CENTRO MOI          000000110801350082227172017071          EP2017070120170731FB46001897A78007473
30920846470GNW 003Seguro                             000347745THYSSENKRUPP ELEVADORES SLU        P1319500103103070 TENERIFE CENTRO MOI          000000058761350082227172017071          EP2017070120170731FB46001897A78007473
30920846470GNW 005ITV                                000347745THYSSENKRUPP ELEVADORES SLU        P1319500103103070 TENERIFE CENTRO MOI          000000003231350082227172017071          EP2017070120170731FB46001897A78007473
30920846470GNW 002Mantenim.                          000347745THYSSENKRUPP ELEVADORES SLU        P1319500103103070 TENERIFE CENTRO MOI          000000032961350082227172017071          EP2017070120170731FB46001897A78007473
30920846470GNW 004Administ.                          000347745THYSSENKRUPP ELEVADORES SLU        P1319500103103070 TENERIFE CENTRO MOI          000000010001350082227172017071          EP2017070120170731FB46001897A78007473
34146760348HBF 001Renting                            000347745THYSSENKRUPP ELEVADORES SLU        P1319500240102221 LAS PALMAS MONTAJE MOD       000000124910700082227182017071          EP2017070120170731FB46001897A78007473
34146760348HBF 003Seguro                             000347745THYSSENKRUPP ELEVADORES SLU        P1319500240102221 LAS PALMAS MONTAJE MOD       000000065860700082227182017071          EP2017070120170731FB46001897A78007473
34146760348HBF 005ITV                                000347745THYSSENKRUPP ELEVADORES SLU        P1319500240102221 LAS PALMAS MONTAJE MOD       000000002360700082227182017071          EP2017070120170731FB46001897A78007473
34146760348HBF 002Mantenim.                          000347745THYSSENKRUPP ELEVADORES SLU        P1319500240102221 LAS PALMAS MONTAJE MOD       000000036000700082227182017071          EP2017070120170731FB46001897A78007473
34146760348HBF 004Administ.                          000347745THYSSENKRUPP ELEVADORES SLU        P1319500240102221 LAS PALMAS MONTAJE MOD       000000010000700082227182017071          EP2017070120170731FB46001897A78007473
31451705121GRP 001Renting                            000347745THYSSENKRUPP ELEVADORES SLU        P1319500354103071-TENERIFE CENTRO MOI          000000110921350082227192017071          EP2017070120170731FB46001897A78007473
31451705121GRP 003Seguro                             000347745THYSSENKRUPP ELEVADORES SLU        P1319500354103071-TENERIFE CENTRO MOI          000000058671350082227192017071          EP2017070120170731FB46001897A78007473
31451705121GRP 005ITV                                000347745THYSSENKRUPP ELEVADORES SLU        P1319500354103071-TENERIFE CENTRO MOI          000000003231350082227192017071          EP2017070120170731FB46001897A78007473
31451705121GRP 002Mantenim.                          000347745THYSSENKRUPP ELEVADORES SLU        P1319500354103071-TENERIFE CENTRO MOI          000000032961350082227192017071          EP2017070120170731FB46001897A78007473
31451705121GRP 004Administ.                          000347745THYSSENKRUPP ELEVADORES SLU        P1319500354103071-TENERIFE CENTRO MOI          000000010001350082227192017071          EP2017070120170731FB46001897A78007473
38910866968HMV 001Renting                            000347745THYSSENKRUPP ELEVADORES SLU        P1319500354103071-TENERIFE CENTRO MOI          000000113971350082227192017071          EP2017070120170731FB46001897A78007473
38910866968HMV 003Seguro                             000347745THYSSENKRUPP ELEVADORES SLU        P1319500354103071-TENERIFE CENTRO MOI          000000047991350082227192017071          EP2017070120170731FB46001897A78007473
38910866968HMV 005ITV                                000347745THYSSENKRUPP ELEVADORES SLU        P1319500354103071-TENERIFE CENTRO MOI          000000001031350082227192017071          EP2017070120170731FB46001897A78007473
38910866968HMV 002Mantenim.                          000347745THYSSENKRUPP ELEVADORES SLU        P1319500354103071-TENERIFE CENTRO MOI          000000047531350082227192017071          EP2017070120170731FB46001897A78007473
38910866968HMV 004Administ.                          000347745THYSSENKRUPP ELEVADORES SLU        P1319500354103071-TENERIFE CENTRO MOI          000000010001350082227192017071          EP2017070120170731FB46001897A78007473
41192263075HVT 001Renting                            000347745THYSSENKRUPP ELEVADORES SLU        P1319500354103071-TENERIFE CENTRO MOI          000000107441350082227192017071          EP2017070120170731FB46001897A78007473
41192263075HVT 003Seguro                             000347745THYSSENKRUPP ELEVADORES SLU        P1319500354103071-TENERIFE CENTRO MOI          000000047871350082227192017071          EP2017070120170731FB46001897A78007473
41192263075HVT 005ITV                                000347745THYSSENKRUPP ELEVADORES SLU        P1319500354103071-TENERIFE CENTRO MOI          000000001031350082227192017071          EP2017070120170731FB46001897A78007473
41192263075HVT 002Mantenim.                          000347745THYSSENKRUPP ELEVADORES SLU        P1319500354103071-TENERIFE CENTRO MOI          000000042541350082227192017071          EP2017070120170731FB46001897A78007473
41192263075HVT 004Administ.                          000347745THYSSENKRUPP ELEVADORES SLU        P1319500354103071-TENERIFE CENTRO MOI          000000010001350082227192017071          EP2017070120170731FB46001897A78007473
32570476791GWX 001Renting                            000347745THYSSENKRUPP ELEVADORES SLU        P1319500059103600 TENERIFE SUR                 000000132250700082227202017071          EP2017070120170731FB46001897A78007473
32570476791GWX 003Seguro                             000347745THYSSENKRUPP ELEVADORES SLU        P1319500059103600 TENERIFE SUR                 000000059160700082227202017071          EP2017070120170731FB46001897A78007473
32570476791GWX 005ITV                                000347745THYSSENKRUPP ELEVADORES SLU        P1319500059103600 TENERIFE SUR                 000000002360700082227202017071          EP2017070120170731FB46001897A78007473
32570476791GWX 002Mantenim.                          000347745THYSSENKRUPP ELEVADORES SLU        P1319500059103600 TENERIFE SUR                 000000032970700082227202017071          EP2017070120170731FB46001897A78007473
32570476791GWX 004Administ.                          000347745THYSSENKRUPP ELEVADORES SLU        P1319500059103600 TENERIFE SUR                 000000010000700082227202017071          EP2017070120170731FB46001897A78007473
32570596782GWX 001Renting                            000347745THYSSENKRUPP ELEVADORES SLU        P1319500059103600 TENERIFE SUR                 000000132240700082227202017071          EP2017070120170731FB46001897A78007473
32570596782GWX 003Seguro                             000347745THYSSENKRUPP ELEVADORES SLU        P1319500059103600 TENERIFE SUR                 000000059160700082227202017071          EP2017070120170731FB46001897A78007473
32570596782GWX 005ITV                                000347745THYSSENKRUPP ELEVADORES SLU        P1319500059103600 TENERIFE SUR                 000000002360700082227202017071          EP2017070120170731FB46001897A78007473
32570596782GWX 002Mantenim.                          000347745THYSSENKRUPP ELEVADORES SLU        P1319500059103600 TENERIFE SUR                 000000032970700082227202017071          EP2017070120170731FB46001897A78007473
32570596782GWX 004Administ.                          000347745THYSSENKRUPP ELEVADORES SLU        P1319500059103600 TENERIFE SUR                 000000010000700082227202017071          EP2017070120170731FB46001897A78007473
33942179339GZL 001Renting                            000347745THYSSENKRUPP ELEVADORES SLU        P1319500059103600 TENERIFE SUR                 000000128400700082227202017071          EP2017070120170731FB46001897A78007473
33942179339GZL 003Seguro                             000347745THYSSENKRUPP ELEVADORES SLU        P1319500059103600 TENERIFE SUR                 000000059710700082227202017071          EP2017070120170731FB46001897A78007473
33942179339GZL 005ITV                                000347745THYSSENKRUPP ELEVADORES SLU        P1319500059103600 TENERIFE SUR                 000000001360700082227202017071          EP2017070120170731FB46001897A78007473
33942179339GZL 002Mantenim.                          000347745THYSSENKRUPP ELEVADORES SLU        P1319500059103600 TENERIFE SUR                 000000033560700082227202017071          EP2017070120170731FB46001897A78007473
33942179339GZL 004Administ.                          000347745THYSSENKRUPP ELEVADORES SLU        P1319500059103600 TENERIFE SUR                 000000010000700082227202017071          EP2017070120170731FB46001897A78007473
34096369403GZY 001Renting                            000347745THYSSENKRUPP ELEVADORES SLU        P1319500059103600 TENERIFE SUR                 000000127190700082227202017071          EP2017070120170731FB46001897A78007473
34096369403GZY 003Seguro                             000347745THYSSENKRUPP ELEVADORES SLU        P1319500059103600 TENERIFE SUR                 000000059690700082227202017071          EP2017070120170731FB46001897A78007473
34096369403GZY 005ITV                                000347745THYSSENKRUPP ELEVADORES SLU        P1319500059103600 TENERIFE SUR                 000000002360700082227202017071          EP2017070120170731FB46001897A78007473
34096369403GZY 002Mantenim.                          000347745THYSSENKRUPP ELEVADORES SLU        P1319500059103600 TENERIFE SUR                 000000034520700082227202017071          EP2017070120170731FB46001897A78007473
34096369403GZY 004Administ.                          000347745THYSSENKRUPP ELEVADORES SLU        P1319500059103600 TENERIFE SUR                 000000010000700082227202017071          EP2017070120170731FB46001897A78007473
34146909406GZY 001Renting                            000347745THYSSENKRUPP ELEVADORES SLU        P1319500059103600 TENERIFE SUR                 000000127190700082227202017071          EP2017070120170731FB46001897A78007473
34146909406GZY 003Seguro                             000347745THYSSENKRUPP ELEVADORES SLU        P1319500059103600 TENERIFE SUR                 000000059690700082227202017071          EP2017070120170731FB46001897A78007473
34146909406GZY 005ITV                                000347745THYSSENKRUPP ELEVADORES SLU        P1319500059103600 TENERIFE SUR                 000000002360700082227202017071          EP2017070120170731FB46001897A78007473
34146909406GZY 002Mantenim.                          000347745THYSSENKRUPP ELEVADORES SLU        P1319500059103600 TENERIFE SUR                 000000034520700082227202017071          EP2017070120170731FB46001897A78007473
34146909406GZY 004Administ.                          000347745THYSSENKRUPP ELEVADORES SLU        P1319500059103600 TENERIFE SUR                 000000010000700082227202017071          EP2017070120170731FB46001897A78007473
38910093233HMX 001Renting                            000347745THYSSENKRUPP ELEVADORES SLU        P1319500059103600 TENERIFE SUR                 000000115070700082227202017071          EP2017070120170731FB46001897A78007473
38910093233HMX 003Seguro                             000347745THYSSENKRUPP ELEVADORES SLU        P1319500059103600 TENERIFE SUR                 000000054720700082227202017071          EP2017070120170731FB46001897A78007473
38910093233HMX 005ITV                                000347745THYSSENKRUPP ELEVADORES SLU        P1319500059103600 TENERIFE SUR                 000000001970700082227202017071          EP2017070120170731FB46001897A78007473
38910093233HMX 002Mantenim.                          000347745THYSSENKRUPP ELEVADORES SLU        P1319500059103600 TENERIFE SUR                 000000044640700082227202017071          EP2017070120170731FB46001897A78007473
38910093233HMX 004Administ.                          000347745THYSSENKRUPP ELEVADORES SLU        P1319500059103600 TENERIFE SUR                 000000010000700082227202017071          EP2017070120170731FB46001897A78007473
38915813274HMX 001Renting                            000347745THYSSENKRUPP ELEVADORES SLU        P1319500059103600 TENERIFE SUR                 000000115070700082227202017071          EP2017070120170731FB46001897A78007473
38915813274HMX 003Seguro                             000347745THYSSENKRUPP ELEVADORES SLU        P1319500059103600 TENERIFE SUR                 000000054720700082227202017071          EP2017070120170731FB46001897A78007473
38915813274HMX 005ITV                                000347745THYSSENKRUPP ELEVADORES SLU        P1319500059103600 TENERIFE SUR                 000000001970700082227202017071          EP2017070120170731FB46001897A78007473
38915813274HMX 002Mantenim.                          000347745THYSSENKRUPP ELEVADORES SLU        P1319500059103600 TENERIFE SUR                 000000044640700082227202017071          EP2017070120170731FB46001897A78007473
38915813274HMX 004Administ.                          000347745THYSSENKRUPP ELEVADORES SLU        P1319500059103600 TENERIFE SUR                 000000010000700082227202017071          EP2017070120170731FB46001897A78007473
38916173282HMX 001Renting                            000347745THYSSENKRUPP ELEVADORES SLU        P1319500059103600 TENERIFE SUR                 000000115070700082227202017071          EP2017070120170731FB46001897A78007473
38916173282HMX 003Seguro                             000347745THYSSENKRUPP ELEVADORES SLU        P1319500059103600 TENERIFE SUR                 000000054720700082227202017071          EP2017070120170731FB46001897A78007473
38916173282HMX 005ITV                                000347745THYSSENKRUPP ELEVADORES SLU        P1319500059103600 TENERIFE SUR                 000000001970700082227202017071          EP2017070120170731FB46001897A78007473
38916173282HMX 002Mantenim.                          000347745THYSSENKRUPP ELEVADORES SLU        P1319500059103600 TENERIFE SUR                 000000044640700082227202017071          EP2017070120170731FB46001897A78007473
38916173282HMX 004Administ.                          000347745THYSSENKRUPP ELEVADORES SLU        P1319500059103600 TENERIFE SUR                 000000010000700082227202017071          EP2017070120170731FB46001897A78007473
38916293247HMX 001Renting                            000347745THYSSENKRUPP ELEVADORES SLU        P1319500059103600 TENERIFE SUR                 000000115070700082227202017071          EP2017070120170731FB46001897A78007473
38916293247HMX 003Seguro                             000347745THYSSENKRUPP ELEVADORES SLU        P1319500059103600 TENERIFE SUR                 000000054720700082227202017071          EP2017070120170731FB46001897A78007473
38916293247HMX 005ITV                                000347745THYSSENKRUPP ELEVADORES SLU        P1319500059103600 TENERIFE SUR                 000000001970700082227202017071          EP2017070120170731FB46001897A78007473
38916293247HMX 002Mantenim.                          000347745THYSSENKRUPP ELEVADORES SLU        P1319500059103600 TENERIFE SUR                 000000044640700082227202017071          EP2017070120170731FB46001897A78007473
38916293247HMX 004Administ.                          000347745THYSSENKRUPP ELEVADORES SLU        P1319500059103600 TENERIFE SUR                 000000010000700082227202017071          EP2017070120170731FB46001897A78007473
38916433292HMX 001Renting                            000347745THYSSENKRUPP ELEVADORES SLU        P1319500059103600 TENERIFE SUR                 000000115070700082227202017071          EP2017070120170731FB46001897A78007473
38916433292HMX 003Seguro                             000347745THYSSENKRUPP ELEVADORES SLU        P1319500059103600 TENERIFE SUR                 000000054720700082227202017071          EP2017070120170731FB46001897A78007473
38916433292HMX 005ITV                                000347745THYSSENKRUPP ELEVADORES SLU        P1319500059103600 TENERIFE SUR                 000000001970700082227202017071          EP2017070120170731FB46001897A78007473
38916433292HMX 002Mantenim.                          000347745THYSSENKRUPP ELEVADORES SLU        P1319500059103600 TENERIFE SUR                 000000044640700082227202017071          EP2017070120170731FB46001897A78007473
38916433292HMX 004Administ.                          000347745THYSSENKRUPP ELEVADORES SLU        P1319500059103600 TENERIFE SUR                 000000010000700082227202017071          EP2017070120170731FB46001897A78007473
39079439696HND 001Renting                            000347745THYSSENKRUPP ELEVADORES SLU        P1319500059103600 TENERIFE SUR                 000000115070700082227202017071          EP2017070120170731FB46001897A78007473
39079439696HND 003Seguro                             000347745THYSSENKRUPP ELEVADORES SLU        P1319500059103600 TENERIFE SUR                 000000054720700082227202017071          EP2017070120170731FB46001897A78007473
39079439696HND 005ITV                                000347745THYSSENKRUPP ELEVADORES SLU        P1319500059103600 TENERIFE SUR                 000000001970700082227202017071          EP2017070120170731FB46001897A78007473
39079439696HND 002Mantenim.                          000347745THYSSENKRUPP ELEVADORES SLU        P1319500059103600 TENERIFE SUR                 000000044640700082227202017071          EP2017070120170731FB46001897A78007473
39079439696HND 004Administ.                          000347745THYSSENKRUPP ELEVADORES SLU        P1319500059103600 TENERIFE SUR                 000000010000700082227202017071          EP2017070120170731FB46001897A78007473
39080189693HND 001Renting                            000347745THYSSENKRUPP ELEVADORES SLU        P1319500059103600 TENERIFE SUR                 000000115070700082227202017071          EP2017070120170731FB46001897A78007473
39080189693HND 003Seguro                             000347745THYSSENKRUPP ELEVADORES SLU        P1319500059103600 TENERIFE SUR                 000000054720700082227202017071          EP2017070120170731FB46001897A78007473
39080189693HND 005ITV                                000347745THYSSENKRUPP ELEVADORES SLU        P1319500059103600 TENERIFE SUR                 000000001970700082227202017071          EP2017070120170731FB46001897A78007473
39080189693HND 002Mantenim.                          000347745THYSSENKRUPP ELEVADORES SLU        P1319500059103600 TENERIFE SUR                 000000044640700082227202017071          EP2017070120170731FB46001897A78007473
39080189693HND 004Administ.                          000347745THYSSENKRUPP ELEVADORES SLU        P1319500059103600 TENERIFE SUR                 000000010000700082227202017071          EP2017070120170731FB46001897A78007473
39087749691HND 001Renting                            000347745THYSSENKRUPP ELEVADORES SLU        P1319500059103600 TENERIFE SUR                 000000115070700082227202017071          EP2017070120170731FB46001897A78007473
39087749691HND 003Seguro                             000347745THYSSENKRUPP ELEVADORES SLU        P1319500059103600 TENERIFE SUR                 000000054720700082227202017071          EP2017070120170731FB46001897A78007473
39087749691HND 005ITV                                000347745THYSSENKRUPP ELEVADORES SLU        P1319500059103600 TENERIFE SUR                 000000001970700082227202017071          EP2017070120170731FB46001897A78007473
39087749691HND 002Mantenim.                          000347745THYSSENKRUPP ELEVADORES SLU        P1319500059103600 TENERIFE SUR                 000000044640700082227202017071          EP2017070120170731FB46001897A78007473
39087749691HND 004Administ.                          000347745THYSSENKRUPP ELEVADORES SLU        P1319500059103600 TENERIFE SUR                 000000010000700082227202017071          EP2017070120170731FB46001897A78007473
40022095084HSM 001Renting                            000347745THYSSENKRUPP ELEVADORES SLU        P1319500059103600 TENERIFE SUR                 000000099640700082227202017071          EP2017070120170731FB46001897A78007473
40022095084HSM 003Seguro                             000347745THYSSENKRUPP ELEVADORES SLU        P1319500059103600 TENERIFE SUR                 000000055800700082227202017071          EP2017070120170731FB46001897A78007473
40022095084HSM 005ITV                                000347745THYSSENKRUPP ELEVADORES SLU        P1319500059103600 TENERIFE SUR                 000000001970700082227202017071          EP2017070120170731FB46001897A78007473
40022095084HSM 002Mantenim.                          000347745THYSSENKRUPP ELEVADORES SLU        P1319500059103600 TENERIFE SUR                 000000048610700082227202017071          EP2017070120170731FB46001897A78007473
40022095084HSM 004Administ.                          000347745THYSSENKRUPP ELEVADORES SLU        P1319500059103600 TENERIFE SUR                 000000010000700082227202017071          EP2017070120170731FB46001897A78007473
40486320919HSS 001Renting                            000347745THYSSENKRUPP ELEVADORES SLU        P1319500059103600 TENERIFE SUR                 000000099640700082227202017071          EP2017070120170731FB46001897A78007473
40486320919HSS 003Seguro                             000347745THYSSENKRUPP ELEVADORES SLU        P1319500059103600 TENERIFE SUR                 000000055800700082227202017071          EP2017070120170731FB46001897A78007473
40486320919HSS 005ITV                                000347745THYSSENKRUPP ELEVADORES SLU        P1319500059103600 TENERIFE SUR                 000000001970700082227202017071          EP2017070120170731FB46001897A78007473
40486320919HSS 002Mantenim.                          000347745THYSSENKRUPP ELEVADORES SLU        P1319500059103600 TENERIFE SUR                 000000048610700082227202017071          EP2017070120170731FB46001897A78007473
40486320919HSS 004Administ.                          000347745THYSSENKRUPP ELEVADORES SLU        P1319500059103600 TENERIFE SUR                 000000010000700082227202017071          EP2017070120170731FB46001897A78007473
38910116965HMV 001Renting                            000347745THYSSENKRUPP ELEVADORES SLU        P1319500353103601-TENERIFE SUR MOI             000000113971350082227212017071          EP2017070120170731FB46001897A78007473
38910116965HMV 003Seguro                             000347745THYSSENKRUPP ELEVADORES SLU        P1319500353103601-TENERIFE SUR MOI             000000047991350082227212017071          EP2017070120170731FB46001897A78007473
38910116965HMV 005ITV                                000347745THYSSENKRUPP ELEVADORES SLU        P1319500353103601-TENERIFE SUR MOI             000000001031350082227212017071          EP2017070120170731FB46001897A78007473
38910116965HMV 002Mantenim.                          000347745THYSSENKRUPP ELEVADORES SLU        P1319500353103601-TENERIFE SUR MOI             000000047531350082227212017071          EP2017070120170731FB46001897A78007473
38910116965HMV 004Administ.                          000347745THYSSENKRUPP ELEVADORES SLU        P1319500353103601-TENERIFE SUR MOI             000000010001350082227212017071          EP2017070120170731FB46001897A78007473
40850610460HTF 001Renting                            000347745THYSSENKRUPP ELEVADORES SLU        P1319500353103601-TENERIFE SUR MOI             000000105760700082227212017071          EP2017070120170731FB46001897A78007473
40850610460HTF 003Seguro                             000347745THYSSENKRUPP ELEVADORES SLU        P1319500353103601-TENERIFE SUR MOI             000000054540700082227212017071          EP2017070120170731FB46001897A78007473
40850610460HTF 005ITV                                000347745THYSSENKRUPP ELEVADORES SLU        P1319500353103601-TENERIFE SUR MOI             000000001970700082227212017071          EP2017070120170731FB46001897A78007473
40850610460HTF 002Mantenim.                          000347745THYSSENKRUPP ELEVADORES SLU        P1319500353103601-TENERIFE SUR MOI             000000040330700082227212017071          EP2017070120170731FB46001897A78007473
40850610460HTF 004Administ.                          000347745THYSSENKRUPP ELEVADORES SLU        P1319500353103601-TENERIFE SUR MOI             000000010000700082227212017071          EP2017070120170731FB46001897A78007473
40851360466HTF 001Renting                            000347745THYSSENKRUPP ELEVADORES SLU        P1319500353103601-TENERIFE SUR MOI             000000105760700082227212017071          EP2017070120170731FB46001897A78007473
40851360466HTF 003Seguro                             000347745THYSSENKRUPP ELEVADORES SLU        P1319500353103601-TENERIFE SUR MOI             000000054540700082227212017071          EP2017070120170731FB46001897A78007473
40851360466HTF 005ITV                                000347745THYSSENKRUPP ELEVADORES SLU        P1319500353103601-TENERIFE SUR MOI             000000001970700082227212017071          EP2017070120170731FB46001897A78007473
40851360466HTF 002Mantenim.                          000347745THYSSENKRUPP ELEVADORES SLU        P1319500353103601-TENERIFE SUR MOI             000000040330700082227212017071          EP2017070120170731FB46001897A78007473
40851360466HTF 004Administ.                          000347745THYSSENKRUPP ELEVADORES SLU        P1319500353103601-TENERIFE SUR MOI             000000010000700082227212017071          EP2017070120170731FB46001897A78007473
40851480456HTF 001Renting                            000347745THYSSENKRUPP ELEVADORES SLU        P1319500353103601-TENERIFE SUR MOI             000000105760700082227212017071          EP2017070120170731FB46001897A78007473
40851480456HTF 003Seguro                             000347745THYSSENKRUPP ELEVADORES SLU        P1319500353103601-TENERIFE SUR MOI             000000054540700082227212017071          EP2017070120170731FB46001897A78007473
40851480456HTF 005ITV                                000347745THYSSENKRUPP ELEVADORES SLU        P1319500353103601-TENERIFE SUR MOI             000000001970700082227212017071          EP2017070120170731FB46001897A78007473
40851480456HTF 002Mantenim.                          000347745THYSSENKRUPP ELEVADORES SLU        P1319500353103601-TENERIFE SUR MOI             000000040330700082227212017071          EP2017070120170731FB46001897A78007473
40851480456HTF 004Administ.                          000347745THYSSENKRUPP ELEVADORES SLU        P1319500353103601-TENERIFE SUR MOI             000000010000700082227212017071          EP2017070120170731FB46001897A78007473
40851500463HTF 001Renting                            000347745THYSSENKRUPP ELEVADORES SLU        P1319500353103601-TENERIFE SUR MOI             000000105760700082227212017071          EP2017070120170731FB46001897A78007473
40851500463HTF 003Seguro                             000347745THYSSENKRUPP ELEVADORES SLU        P1319500353103601-TENERIFE SUR MOI             000000054540700082227212017071          EP2017070120170731FB46001897A78007473
40851500463HTF 005ITV                                000347745THYSSENKRUPP ELEVADORES SLU        P1319500353103601-TENERIFE SUR MOI             000000001970700082227212017071          EP2017070120170731FB46001897A78007473
40851500463HTF 002Mantenim.                          000347745THYSSENKRUPP ELEVADORES SLU        P1319500353103601-TENERIFE SUR MOI             000000040330700082227212017071          EP2017070120170731FB46001897A78007473
40851500463HTF 004Administ.                          000347745THYSSENKRUPP ELEVADORES SLU        P1319500353103601-TENERIFE SUR MOI             000000010000700082227212017071          EP2017070120170731FB46001897A78007473
47171609521JLD 001Renting                            000347745THYSSENKRUPP ELEVADORES SLU        P0000500008103030 BARCELONA                    000000115432100133516602017071          EP2017070120170731FB46001897A78007473
47171609521JLD 003Seguro                             000347745THYSSENKRUPP ELEVADORES SLU        P0000500008103030 BARCELONA                    000000056612100133516602017071          EP2017070120170731FB46001897A78007473
47171609521JLD 005ITV                                000347745THYSSENKRUPP ELEVADORES SLU        P0000500008103030 BARCELONA                    000000001692100133516602017071          EP2017070120170731FB46001897A78007473
47171609521JLD 002Mantenim.                          000347745THYSSENKRUPP ELEVADORES SLU        P0000500008103030 BARCELONA                    000000038802100133516602017071          EP2017070120170731FB46001897A78007473
47171609521JLD 004Administ.                          000347745THYSSENKRUPP ELEVADORES SLU        P0000500008103030 BARCELONA                    000000010002100133516602017071          EP2017070120170731FB46001897A78007473
30874362646GMX 001Renting                            000347745THYSSENKRUPP ELEVADORES SLU        P1319500034103180 LUGO                         000000126492100133516612017071          EP2017070120170731FB46001897A78007473
30874362646GMX 003Seguro                             000347745THYSSENKRUPP ELEVADORES SLU        P1319500034103180 LUGO                         000000059012100133516612017071          EP2017070120170731FB46001897A78007473
30874362646GMX 005ITV                                000347745THYSSENKRUPP ELEVADORES SLU        P1319500034103180 LUGO                         000000005832100133516612017071          EP2017070120170731FB46001897A78007473
30874362646GMX 002Mantenim.                          000347745THYSSENKRUPP ELEVADORES SLU        P1319500034103180 LUGO                         000000037952100133516612017071          EP2017070120170731FB46001897A78007473
30874362646GMX 004Administ.                          000347745THYSSENKRUPP ELEVADORES SLU        P1319500034103180 LUGO                         000000010002100133516612017071          EP2017070120170731FB46001897A78007473
30874992664GMX 001Renting                            000347745THYSSENKRUPP ELEVADORES SLU        P1319500006103740 BARCELONA CENTRO             000000126492100133516612017071          EP2017070120170731FB46001897A78007473
30874992664GMX 003Seguro                             000347745THYSSENKRUPP ELEVADORES SLU        P1319500006103740 BARCELONA CENTRO             000000059012100133516612017071          EP2017070120170731FB46001897A78007473
30874992664GMX 005ITV                                000347745THYSSENKRUPP ELEVADORES SLU        P1319500006103740 BARCELONA CENTRO             000000005832100133516612017071          EP2017070120170731FB46001897A78007473
30874992664GMX 002Mantenim.                          000347745THYSSENKRUPP ELEVADORES SLU        P1319500006103740 BARCELONA CENTRO             000000037952100133516612017071          EP2017070120170731FB46001897A78007473
30874992664GMX 004Administ.                          000347745THYSSENKRUPP ELEVADORES SLU        P1319500006103740 BARCELONA CENTRO             000000010002100133516612017071          EP2017070120170731FB46001897A78007473
30875342717GMX 001Renting                            000347745THYSSENKRUPP ELEVADORES SLU        P1319500127103830 VALENCIA OESTE               000000126492100133516612017071          EP2017070120170731FB46001897A78007473
30875342717GMX 003Seguro                             000347745THYSSENKRUPP ELEVADORES SLU        P1319500127103830 VALENCIA OESTE               000000059012100133516612017071          EP2017070120170731FB46001897A78007473
30875342717GMX 005ITV                                000347745THYSSENKRUPP ELEVADORES SLU        P1319500127103830 VALENCIA OESTE               000000005832100133516612017071          EP2017070120170731FB46001897A78007473
30875342717GMX 002Mantenim.                          000347745THYSSENKRUPP ELEVADORES SLU        P1319500127103830 VALENCIA OESTE               000000037952100133516612017071          EP2017070120170731FB46001897A78007473
30875342717GMX 004Administ.                          000347745THYSSENKRUPP ELEVADORES SLU        P1319500127103830 VALENCIA OESTE               000000010002100133516612017071          EP2017070120170731FB46001897A78007473
30875582205GNB 001Renting                            000347745THYSSENKRUPP ELEVADORES SLU        P1319500056103080 TALAVERA                     000000126492100133516612017071          EP2017070120170731FB46001897A78007473
30875582205GNB 003Seguro                             000347745THYSSENKRUPP ELEVADORES SLU        P1319500056103080 TALAVERA                     000000059012100133516612017071          EP2017070120170731FB46001897A78007473
30875582205GNB 005ITV                                000347745THYSSENKRUPP ELEVADORES SLU        P1319500056103080 TALAVERA                     000000005832100133516612017071          EP2017070120170731FB46001897A78007473
30875582205GNB 002Mantenim.                          000347745THYSSENKRUPP ELEVADORES SLU        P1319500056103080 TALAVERA                     000000037952100133516612017071          EP2017070120170731FB46001897A78007473
30875582205GNB 004Administ.                          000347745THYSSENKRUPP ELEVADORES SLU        P1319500056103080 TALAVERA                     000000010002100133516612017071          EP2017070120170731FB46001897A78007473
30875727005GPL 001Renting                            000347745THYSSENKRUPP ELEVADORES SLU        P1319500127103830 VALENCIA OESTE               000000126382100133516612017071          EP2017070120170731FB46001897A78007473
30875727005GPL 003Seguro                             000347745THYSSENKRUPP ELEVADORES SLU        P1319500127103830 VALENCIA OESTE               000000059862100133516612017071          EP2017070120170731FB46001897A78007473
30875727005GPL 005ITV                                000347745THYSSENKRUPP ELEVADORES SLU        P1319500127103830 VALENCIA OESTE               000000005832100133516612017071          EP2017070120170731FB46001897A78007473
30875727005GPL 002Mantenim.                          000347745THYSSENKRUPP ELEVADORES SLU        P1319500127103830 VALENCIA OESTE               000000037952100133516612017071          EP2017070120170731FB46001897A78007473
30875727005GPL 004Administ.                          000347745THYSSENKRUPP ELEVADORES SLU        P1319500127103830 VALENCIA OESTE               000000010002100133516612017071          EP2017070120170731FB46001897A78007473
30876111383GPP 001Renting                            000347745THYSSENKRUPP ELEVADORES SLU        P1319500019103400 CIUDAD REAL                  000000126392100133516612017071          EP2017070120170731FB46001897A78007473
30876111383GPP 003Seguro                             000347745THYSSENKRUPP ELEVADORES SLU        P1319500019103400 CIUDAD REAL                  000000059752100133516612017071          EP2017070120170731FB46001897A78007473
30876111383GPP 005ITV                                000347745THYSSENKRUPP ELEVADORES SLU        P1319500019103400 CIUDAD REAL                  000000005832100133516612017071          EP2017070120170731FB46001897A78007473
30876111383GPP 002Mantenim.                          000347745THYSSENKRUPP ELEVADORES SLU        P1319500019103400 CIUDAD REAL                  000000037952100133516612017071          EP2017070120170731FB46001897A78007473
30876111383GPP 004Administ.                          000347745THYSSENKRUPP ELEVADORES SLU        P1319500019103400 CIUDAD REAL                  000000010002100133516612017071          EP2017070120170731FB46001897A78007473
30876594961GNT 001Renting                            000347745THYSSENKRUPP ELEVADORES SLU        P1319500132103A10 ESTEPONA                     000000126502100133516612017071          EP2017070120170731FB46001897A78007473
30876594961GNT 003Seguro                             000347745THYSSENKRUPP ELEVADORES SLU        P1319500132103A10 ESTEPONA                     000000058952100133516612017071          EP2017070120170731FB46001897A78007473
30876594961GNT 005ITV                                000347745THYSSENKRUPP ELEVADORES SLU        P1319500132103A10 ESTEPONA                     000000005832100133516612017071          EP2017070120170731FB46001897A78007473
30876594961GNT 002Mantenim.                          000347745THYSSENKRUPP ELEVADORES SLU        P1319500132103A10 ESTEPONA                     000000037952100133516612017071          EP2017070120170731FB46001897A78007473
30876594961GNT 004Administ.                          000347745THYSSENKRUPP ELEVADORES SLU        P1319500132103A10 ESTEPONA                     000000010002100133516612017071          EP2017070120170731FB46001897A78007473
30876618850GNT 001Renting                            000347745THYSSENKRUPP ELEVADORES SLU        P1319500008103030 BARCELONA                    000000126502100133516612017071          EP2017070120170731FB46001897A78007473
30876618850GNT 003Seguro                             000347745THYSSENKRUPP ELEVADORES SLU        P1319500008103030 BARCELONA                    000000058952100133516612017071          EP2017070120170731FB46001897A78007473
30876618850GNT 005ITV                                000347745THYSSENKRUPP ELEVADORES SLU        P1319500008103030 BARCELONA                    000000005832100133516612017071          EP2017070120170731FB46001897A78007473
30876618850GNT 002Mantenim.                          000347745THYSSENKRUPP ELEVADORES SLU        P1319500008103030 BARCELONA                    000000037952100133516612017071          EP2017070120170731FB46001897A78007473
30876618850GNT 004Administ.                          000347745THYSSENKRUPP ELEVADORES SLU        P1319500008103030 BARCELONA                    000000010002100133516612017071          EP2017070120170731FB46001897A78007473
30876858296GPD 001Renting                            000347745THYSSENKRUPP ELEVADORES SLU        P1319500029103110 LA CORUA                    000000126502100133516612017071          EP2017070120170731FB46001897A78007473
30876858296GPD 003Seguro                             000347745THYSSENKRUPP ELEVADORES SLU        P1319500029103110 LA CORUA                    000000058952100133516612017071          EP2017070120170731FB46001897A78007473
30876858296GPD 005ITV                                000347745THYSSENKRUPP ELEVADORES SLU        P1319500029103110 LA CORUA                    000000005832100133516612017071          EP2017070120170731FB46001897A78007473
30876858296GPD 002Mantenim.                          000347745THYSSENKRUPP ELEVADORES SLU        P1319500029103110 LA CORUA                    000000037952100133516612017071          EP2017070120170731FB46001897A78007473
30876858296GPD 004Administ.                          000347745THYSSENKRUPP ELEVADORES SLU        P1319500029103110 LA CORUA                    000000010002100133516612017071          EP2017070120170731FB46001897A78007473
30877363942GNH 001Renting                            000347745THYSSENKRUPP ELEVADORES SLU        P1319500008103030 BARCELONA                    000000126502100133516612017071          EP2017070120170731FB46001897A78007473
30877363942GNH 003Seguro                             000347745THYSSENKRUPP ELEVADORES SLU        P1319500008103030 BARCELONA                    000000058952100133516612017071          EP2017070120170731FB46001897A78007473
30877363942GNH 005ITV                                000347745THYSSENKRUPP ELEVADORES SLU        P1319500008103030 BARCELONA                    000000005832100133516612017071          EP2017070120170731FB46001897A78007473
30877363942GNH 002Mantenim.                          000347745THYSSENKRUPP ELEVADORES SLU        P1319500008103030 BARCELONA                    000000037952100133516612017071          EP2017070120170731FB46001897A78007473
30877363942GNH 004Administ.                          000347745THYSSENKRUPP ELEVADORES SLU        P1319500008103030 BARCELONA                    000000010002100133516612017071          EP2017070120170731FB46001897A78007473
30877862232GNB 001Renting                            000347745THYSSENKRUPP ELEVADORES SLU        P1319500056103080 TALAVERA                     000000126472100133516612017071          EP2017070120170731FB46001897A78007473
30877862232GNB 003Seguro                             000347745THYSSENKRUPP ELEVADORES SLU        P1319500056103080 TALAVERA                     000000059012100133516612017071          EP2017070120170731FB46001897A78007473
30877862232GNB 005ITV                                000347745THYSSENKRUPP ELEVADORES SLU        P1319500056103080 TALAVERA                     000000005832100133516612017071          EP2017070120170731FB46001897A78007473
30877862232GNB 002Mantenim.                          000347745THYSSENKRUPP ELEVADORES SLU        P1319500056103080 TALAVERA                     000000037952100133516612017071          EP2017070120170731FB46001897A78007473
30877862232GNB 004Administ.                          000347745THYSSENKRUPP ELEVADORES SLU        P1319500056103080 TALAVERA                     000000010002100133516612017071          EP2017070120170731FB46001897A78007473
30878002219GNB 001Renting                            000347745THYSSENKRUPP ELEVADORES SLU        P1319500056103080 TALAVERA                     000000126492100133516612017071          EP2017070120170731FB46001897A78007473
30878002219GNB 003Seguro                             000347745THYSSENKRUPP ELEVADORES SLU        P1319500056103080 TALAVERA                     000000059012100133516612017071          EP2017070120170731FB46001897A78007473
30878002219GNB 005ITV                                000347745THYSSENKRUPP ELEVADORES SLU        P1319500056103080 TALAVERA                     000000005832100133516612017071          EP2017070120170731FB46001897A78007473
30878002219GNB 002Mantenim.                          000347745THYSSENKRUPP ELEVADORES SLU        P1319500056103080 TALAVERA                     000000037952100133516612017071          EP2017070120170731FB46001897A78007473
30878002219GNB 004Administ.                          000347745THYSSENKRUPP ELEVADORES SLU        P1319500056103080 TALAVERA                     000000010002100133516612017071          EP2017070120170731FB46001897A78007473
30878132215GNB 001Renting                            000347745THYSSENKRUPP ELEVADORES SLU        P1319500047103090 MURCIA                       000000126492100133516612017071          EP2017070120170731FB46001897A78007473
30878132215GNB 003Seguro                             000347745THYSSENKRUPP ELEVADORES SLU        P1319500047103090 MURCIA                       000000059012100133516612017071          EP2017070120170731FB46001897A78007473
30878132215GNB 005ITV                                000347745THYSSENKRUPP ELEVADORES SLU        P1319500047103090 MURCIA                       000000005832100133516612017071          EP2017070120170731FB46001897A78007473
30878132215GNB 002Mantenim.                          000347745THYSSENKRUPP ELEVADORES SLU        P1319500047103090 MURCIA                       000000037952100133516612017071          EP2017070120170731FB46001897A78007473
30878132215GNB 004Administ.                          000347745THYSSENKRUPP ELEVADORES SLU        P1319500047103090 MURCIA                       000000010002100133516612017071          EP2017070120170731FB46001897A78007473
