00000011312432965         2017030123NC42  VW             POLO (6R1)     Gasoleo 0110000000006653000000000153000000008183        00005    2017030120170331Passageiros
00000011312432965         2017030123NC42  VW             POLO (6R1)     Gasoleo 1000000000000218000000000000000000000218        00005    2017030120170331Passageiros
00000011312432965         2017030123NC42  VW             POLO (6R1)     Gasoleo 1000000000001123000000000000000000001123        00005    2017030120170331Passageiros
00000011312432965         2017030123NC42  VW             POLO (6R1)     Gasoleo 1000000000000100000000000000000000000100        00005    2017030120170331Passageiros
00000011312432965         2017030123NC42  VW             POLO (6R1)     Gasoleo 1000000000000930000000000000000000000930        00005    2017030120170331Passageiros
00000011312432965         2017030123NC42  VW             POLO (6R1)     Gasoleo 1000000000000175000000000000000000000175        00005    2017030120170331Passageiros
00000011312432965         2017030123NC42  VW             POLO (6R1)     Gasoleo 1000000000000100000000000000000000000100        00005    2017030120170331Passageiros
00000011312432965         2017030123NC42  VW             POLO (6R1)     Gasoleo 5800000000002660000000000061200000003272        00005    2017030120170331Passageiros
00000011312432965         2017030123NC42  VW             POLO (6R1)     Gasoleo 5810000000001705000000000039200000002097        00005    2017030120170331Passageiros
00000011312432965         2017030123NC42  VW             POLO (6R1)     Gasoleo 6200000000000629000000000014500000000774        00005    2017030120170331Passageiros
00000011312432965         2017030123NC42  VW             POLO (6R1)     Gasoleo 6500000000000678000000000015600000000834        00005    2017030120170331Passageiros
00000011312432965         2017030123NC42  VW             POLO (6R1)     Gasoleo 6700000000000316000000000000000000000316        00005    2017030120170331Passageiros
00000011312432965         2017030123NC42  VW             POLO (6R1)     Gasoleo 7110000000000500000000000011500000000615        00005    2017030120170331Passageiros
00000011312432965         2017030123NC42  VW             POLO (6R1)     Gasoleo 7200000000000367000000000008400000000451        00005    2017030120170331Passageiros
00000011312432965         2017030123NC42  VW             POLO (6R1)     Gasoleo 7300000000000237000000000005500000000292        00005    2017030120170331Passageiros
00000011312432965         2017030123NC42  VW             POLO (6R1)     Gasoleo 7400000000000050000000000001200000000062        00005    2017030120170331Passageiros
00000011312432965         2017030123NC42  VW             POLO (6R1)     Gasoleo 9990000000004922000000000113200000006054        00005    2017030120170331Passageiros
00000011312432965         2017030182NN40  VW             PASSAT VARIANT Gasoleo 0110000000028672000000000659500000035267        00005    2017030120170331Passageiros
00000011312432965         2017030182NN40  VW             PASSAT VARIANT Gasoleo 1000000000000563000000000000000000000563        00005    2017030120170331Passageiros
00000011312432965         2017030182NN40  VW             PASSAT VARIANT Gasoleo 1000000000001448000000000000000000001448        00005    2017030120170331Passageiros
00000011312432965         2017030182NN40  VW             PASSAT VARIANT Gasoleo 1000000000000180000000000000000000000180        00005    2017030120170331Passageiros
00000011312432965         2017030182NN40  VW             PASSAT VARIANT Gasoleo 1000000000000181000000000000000000000181        00005    2017030120170331Passageiros
00000011312432965         2017030182NN40  VW             PASSAT VARIANT Gasoleo 1000000000000175000000000000000000000175        00005    2017030120170331Passageiros
00000011312432965         2017030182NN40  VW             PASSAT VARIANT Gasoleo 1000000000000100000000000000000000000100        00005    2017030120170331Passageiros
00000011312432965         2017030182NN40  VW             PASSAT VARIANT Gasoleo 5800000000004058000000000093300000004991        00005    2017030120170331Passageiros
00000011312432965         2017030182NN40  VW             PASSAT VARIANT Gasoleo 5810000000002675000000000061500000003290        00005    2017030120170331Passageiros
00000011312432965         2017030182NN40  VW             PASSAT VARIANT Gasoleo 6200000000001429000000000032900000001758        00005    2017030120170331Passageiros
00000011312432965         2017030182NN40  VW             PASSAT VARIANT Gasoleo 6500000000001595000000000036700000001962        00005    2017030120170331Passageiros
00000011312432965         2017030182NN40  VW             PASSAT VARIANT Gasoleo 6700000000000316000000000000000000000316        00005    2017030120170331Passageiros
00000011312432965         2017030182NN40  VW             PASSAT VARIANT Gasoleo 7110000000001000000000000023000000001230        00005    2017030120170331Passageiros
00000011312432965         2017030182NN40  VW             PASSAT VARIANT Gasoleo 7200000000000650000000000015000000000800        00005    2017030120170331Passageiros
00000011312432965         2017030182NN40  VW             PASSAT VARIANT Gasoleo 7300000000000237000000000005500000000292        00005    2017030120170331Passageiros
00000011312432965         2017030182NN40  VW             PASSAT VARIANT Gasoleo 7400000000000050000000000001200000000062        00005    2017030120170331Passageiros
00000011312432965         2017030182NN40  VW             PASSAT VARIANT Gasoleo 9990000000010968000000000252300000013491        00005    2017030120170331Passageiros
00000011312432965         2017030192PE46  LANCIA         VOYAGER (404)  Gasoleo 0110000000048752000000001121300000059965        00005    2017030120170331Passageiros
00000011312432965         2017030192PE46  LANCIA         VOYAGER (404)  Gasoleo 1000000000003835000000000000000000003835        00005    2017030120170331Passageiros
00000011312432965         2017030192PE46  LANCIA         VOYAGER (404)  Gasoleo 1000000000000180000000000000000000000180        00005    2017030120170331Passageiros
00000011312432965         2017030192PE46  LANCIA         VOYAGER (404)  Gasoleo 1000000000001003000000000000000000001003        00005    2017030120170331Passageiros
00000011312432965         2017030192PE46  LANCIA         VOYAGER (404)  Gasoleo 1000000000000398000000000000000000000398        00005    2017030120170331Passageiros
00000011312432965         2017030192PE46  LANCIA         VOYAGER (404)  Gasoleo 1000000000001635000000000000000000001635        00005    2017030120170331Passageiros
00000011312432965         2017030192PE46  LANCIA         VOYAGER (404)  Gasoleo 5800000000007163000000000164700000008810        00005    2017030120170331Passageiros
00000011312432965         2017030192PE46  LANCIA         VOYAGER (404)  Gasoleo 5810000000001943000000000044700000002390        00005    2017030120170331Passageiros
00000011312432965         2017030192PE46  LANCIA         VOYAGER (404)  Gasoleo 6200000000000963000000000022100000001184        00005    2017030120170331Passageiros
00000011312432965         2017030192PE46  LANCIA         VOYAGER (404)  Gasoleo 6300000000000058000000000001300000000071        00005    2017030120170331Passageiros
00000011312432965         2017030192PE46  LANCIA         VOYAGER (404)  Gasoleo 6500000000005123000000000117800000006301        00005    2017030120170331Passageiros
00000011312432965         2017030192PE46  LANCIA         VOYAGER (404)  Gasoleo 6700000000000316000000000000000000000316        00005    2017030120170331Passageiros
00000011312432965         2017030192PE46  LANCIA         VOYAGER (404)  Gasoleo 7110000000001000000000000023000000001230        00005    2017030120170331Passageiros
00000011312432965         2017030192PE46  LANCIA         VOYAGER (404)  Gasoleo 7200000000000657000000000015100000000808        00005    2017030120170331Passageiros
00000011312432965         2017030192PE46  LANCIA         VOYAGER (404)  Gasoleo 7300000000000763000000000017500000000938        00005    2017030120170331Passageiros
00000011312432965         2017030192PE46  LANCIA         VOYAGER (404)  Gasoleo 7400000000000076000000000001700000000093        00005    2017030120170331Passageiros
00000011312432965         2017030192PE46  LANCIA         VOYAGER (404)  Gasoleo 9990000000006718000000000154500000008263        00005    2017030120170331Passageiros
00000011312432966         2017030176RO75  PEUGEOT        PARTNER        Gasoleo 0110000000068961000000001241300000081374        00003    2017030120170331Mercadorias
00000011312432966         2017030176RO75  PEUGEOT        PARTNER        Gasoleo 1000000000001741000000000000000000001741        00003    2017030120170331Mercadorias
00000011312432966         2017030176RO75  PEUGEOT        PARTNER        Gasoleo 1000000000001557000000000000000000001557        00003    2017030120170331Mercadorias
00000011312432966         2017030176RO75  PEUGEOT        PARTNER        Gasoleo 1000000000000274000000000000000000000274        00003    2017030120170331Mercadorias
00000011312432966         2017030176RO75  PEUGEOT        PARTNER        Gasoleo 1000000000002277000000000000000000002277        00003    2017030120170331Mercadorias
00000011312432966         2017030176RO75  PEUGEOT        PARTNER        Gasoleo 5800000000001702000000000030600000002008        00003    2017030120170331Mercadorias
00000011312432966         2017030176RO75  PEUGEOT        PARTNER        Gasoleo 5810000000000790000000000014200000000932        00003    2017030120170331Mercadorias
00000011312432966         2017030176RO75  PEUGEOT        PARTNER        Gasoleo 6200000000000635000000000011400000000749        00003    2017030120170331Mercadorias
00000011312432966         2017030176RO75  PEUGEOT        PARTNER        Gasoleo 6500000000000267000000000004800000000315        00003    2017030120170331Mercadorias
00000011312432966         2017030176RO75  PEUGEOT        PARTNER        Gasoleo 6700000000000316000000000000000000000316        00003    2017030120170331Mercadorias
00000011312432966         2017030176RO75  PEUGEOT        PARTNER        Gasoleo 7110000000001000000000000018000000001180        00003    2017030120170331Mercadorias
00000011312432966         2017030176RO75  PEUGEOT        PARTNER        Gasoleo 7200000000000370000000000006700000000437        00003    2017030120170331Mercadorias
00000011312432966         2017030176RO75  PEUGEOT        PARTNER        Gasoleo 7300000000000288000000000005200000000340        00003    2017030120170331Mercadorias
00000011312432966         2017030176RO75  PEUGEOT        PARTNER        Gasoleo 7400000000000069000000000001200000000081        00003    2017030120170331Mercadorias
00000011312432966         2017030176RO75  PEUGEOT        PARTNER        Gasoleo 9990000000003130000000000056300000003693        00003    2017030120170331Mercadorias
00000011312432966         2017030176RO80  PEUGEOT        PARTNER        Gasoleo 0110000000070317000000001265700000082974        00003    2017030120170331Mercadorias
00000011312432966         2017030176RO80  PEUGEOT        PARTNER        Gasoleo 1000000000001741000000000000000000001741        00003    2017030120170331Mercadorias
00000011312432966         2017030176RO80  PEUGEOT        PARTNER        Gasoleo 1000000000001557000000000000000000001557        00003    2017030120170331Mercadorias
00000011312432966         2017030176RO80  PEUGEOT        PARTNER        Gasoleo 1000000000000274000000000000000000000274        00003    2017030120170331Mercadorias
00000011312432966         2017030176RO80  PEUGEOT        PARTNER        Gasoleo 1000000000002277000000000000000000002277        00003    2017030120170331Mercadorias
00000011312432966         2017030176RO80  PEUGEOT        PARTNER        Gasoleo 5800000000001945000000000035000000002295        00003    2017030120170331Mercadorias
00000011312432966         2017030176RO80  PEUGEOT        PARTNER        Gasoleo 5810000000001183000000000021300000001396        00003    2017030120170331Mercadorias
00000011312432966         2017030176RO80  PEUGEOT        PARTNER        Gasoleo 6200000000000635000000000011400000000749        00003    2017030120170331Mercadorias
00000011312432966         2017030176RO80  PEUGEOT        PARTNER        Gasoleo 6500000000000267000000000004800000000315        00003    2017030120170331Mercadorias
00000011312432966         2017030176RO80  PEUGEOT        PARTNER        Gasoleo 6700000000000316000000000000000000000316        00003    2017030120170331Mercadorias
00000011312432966         2017030176RO80  PEUGEOT        PARTNER        Gasoleo 7110000000001000000000000018000000001180        00003    2017030120170331Mercadorias
00000011312432966         2017030176RO80  PEUGEOT        PARTNER        Gasoleo 7200000000000370000000000006700000000437        00003    2017030120170331Mercadorias
00000011312432966         2017030176RO80  PEUGEOT        PARTNER        Gasoleo 7300000000000288000000000005200000000340        00003    2017030120170331Mercadorias
00000011312432966         2017030176RO80  PEUGEOT        PARTNER        Gasoleo 7400000000000069000000000001200000000081        00003    2017030120170331Mercadorias
00000011312432966         2017030176RO80  PEUGEOT        PARTNER        Gasoleo 9990000000003124000000000056200000003686        00003    2017030120170331Mercadorias
00000011312432966         2017030176RO86  PEUGEOT        PARTNER        Gasoleo 0110000000068961000000001241300000081374        00003    2017030120170331Mercadorias
00000011312432966         2017030176RO86  PEUGEOT        PARTNER        Gasoleo 1000000000001741000000000000000000001741        00003    2017030120170331Mercadorias
00000011312432966         2017030176RO86  PEUGEOT        PARTNER        Gasoleo 1000000000001557000000000000000000001557        00003    2017030120170331Mercadorias
00000011312432966         2017030176RO86  PEUGEOT        PARTNER        Gasoleo 1000000000000274000000000000000000000274        00003    2017030120170331Mercadorias
00000011312432966         2017030176RO86  PEUGEOT        PARTNER        Gasoleo 1000000000002277000000000000000000002277        00003    2017030120170331Mercadorias
00000011312432966         2017030176RO86  PEUGEOT        PARTNER        Gasoleo 5800000000001702000000000030600000002008        00003    2017030120170331Mercadorias
00000011312432966         2017030176RO86  PEUGEOT        PARTNER        Gasoleo 5810000000000790000000000014200000000932        00003    2017030120170331Mercadorias
00000011312432966         2017030176RO86  PEUGEOT        PARTNER        Gasoleo 6200000000000635000000000011400000000749        00003    2017030120170331Mercadorias
00000011312432966         2017030176RO86  PEUGEOT        PARTNER        Gasoleo 6500000000000267000000000004800000000315        00003    2017030120170331Mercadorias
00000011312432966         2017030176RO86  PEUGEOT        PARTNER        Gasoleo 6700000000000316000000000000000000000316        00003    2017030120170331Mercadorias
00000011312432966         2017030176RO86  PEUGEOT        PARTNER        Gasoleo 7110000000001000000000000018000000001180        00003    2017030120170331Mercadorias
00000011312432966         2017030176RO86  PEUGEOT        PARTNER        Gasoleo 7200000000000370000000000006700000000437        00003    2017030120170331Mercadorias
00000011312432966         2017030176RO86  PEUGEOT        PARTNER        Gasoleo 7300000000000288000000000005200000000340        00003    2017030120170331Mercadorias
00000011312432966         2017030176RO86  PEUGEOT        PARTNER        Gasoleo 7400000000000069000000000001200000000081        00003    2017030120170331Mercadorias
00000011312432966         2017030176RO86  PEUGEOT        PARTNER        Gasoleo 9990000000003130000000000056300000003693        00003    2017030120170331Mercadorias
00000011312432966         2017030139RS14  PEUGEOT        208            Gasoleo 0110000000044575000000000802400000052599        00003    2017030120170331Passageiros
00000011312432966         2017030139RS14  PEUGEOT        208            Gasoleo 1000000000001846000000000000000000001846        00003    2017030120170331Passageiros
00000011312432966         2017030139RS14  PEUGEOT        208            Gasoleo 1000000000001104000000000000000000001104        00003    2017030120170331Passageiros
00000011312432966         2017030139RS14  PEUGEOT        208            Gasoleo 1000000000000274000000000000000000000274        00003    2017030120170331Passageiros
00000011312432966         2017030139RS14  PEUGEOT        208            Gasoleo 1000000000002277000000000000000000002277        00003    2017030120170331Passageiros
00000011312432966         2017030139RS14  PEUGEOT        208            Gasoleo 5800000000002100000000000037800000002478        00003    2017030120170331Passageiros
00000011312432966         2017030139RS14  PEUGEOT        208            Gasoleo 5810000000000988000000000017800000001166        00003    2017030120170331Passageiros
00000011312432966         2017030139RS14  PEUGEOT        208            Gasoleo 6200000000000635000000000011400000000749        00003    2017030120170331Passageiros
00000011312432966         2017030139RS14  PEUGEOT        208            Gasoleo 6500000000001184000000000021300000001397        00003    2017030120170331Passageiros
00000011312432966         2017030139RS14  PEUGEOT        208            Gasoleo 6700000000000316000000000000000000000316        00003    2017030120170331Passageiros
00000011312432966         2017030139RS14  PEUGEOT        208            Gasoleo 7110000000001000000000000018000000001180        00003    2017030120170331Passageiros
00000011312432966         2017030139RS14  PEUGEOT        208            Gasoleo 7200000000000370000000000006700000000437        00003    2017030120170331Passageiros
00000011312432966         2017030139RS14  PEUGEOT        208            Gasoleo 7300000000000288000000000005200000000340        00003    2017030120170331Passageiros
00000011312432966         2017030139RS14  PEUGEOT        208            Gasoleo 7400000000000069000000000001200000000081        00003    2017030120170331Passageiros
00000011312432966         2017030139RS14  PEUGEOT        208            Gasoleo 9990000000003300000000000059400000003894        00003    2017030120170331Passageiros
00000011312432966         2017030165RS88  RENAULT        CLIO IV SPORT TGasoleo 0110000000048100000000000865800000056758        00003    2017030120170331Passageiros
00000011312432966         2017030165RS88  RENAULT        CLIO IV SPORT TGasoleo 1000000000002007000000000000000000002007        00003    2017030120170331Passageiros
00000011312432966         2017030165RS88  RENAULT        CLIO IV SPORT TGasoleo 1000000000000180000000000000000000000180        00003    2017030120170331Passageiros
00000011312432966         2017030165RS88  RENAULT        CLIO IV SPORT TGasoleo 1000000000001104000000000000000000001104        00003    2017030120170331Passageiros
00000011312432966         2017030165RS88  RENAULT        CLIO IV SPORT TGasoleo 1000000000000274000000000000000000000274        00003    2017030120170331Passageiros
00000011312432966         2017030165RS88  RENAULT        CLIO IV SPORT TGasoleo 1000000000002277000000000000000000002277        00003    2017030120170331Passageiros
00000011312432966         2017030165RS88  RENAULT        CLIO IV SPORT TGasoleo 5800000000001595000000000028700000001882        00003    2017030120170331Passageiros
00000011312432966         2017030165RS88  RENAULT        CLIO IV SPORT TGasoleo 5810000000001360000000000024500000001605        00003    2017030120170331Passageiros
00000011312432966         2017030165RS88  RENAULT        CLIO IV SPORT TGasoleo 6200000000000635000000000011400000000749        00003    2017030120170331Passageiros
00000011312432966         2017030165RS88  RENAULT        CLIO IV SPORT TGasoleo 6500000000001184000000000021300000001397        00003    2017030120170331Passageiros
00000011312432966         2017030165RS88  RENAULT        CLIO IV SPORT TGasoleo 6700000000000316000000000000000000000316        00003    2017030120170331Passageiros
00000011312432966         2017030165RS88  RENAULT        CLIO IV SPORT TGasoleo 7110000000001000000000000018000000001180        00003    2017030120170331Passageiros
00000011312432966         2017030165RS88  RENAULT        CLIO IV SPORT TGasoleo 7200000000000370000000000006700000000437        00003    2017030120170331Passageiros
00000011312432966         2017030165RS88  RENAULT        CLIO IV SPORT TGasoleo 7300000000000288000000000005200000000340        00003    2017030120170331Passageiros
00000011312432966         2017030165RS88  RENAULT        CLIO IV SPORT TGasoleo 7400000000000069000000000001200000000081        00003    2017030120170331Passageiros
00000011312432966         2017030165RS88  RENAULT        CLIO IV SPORT TGasoleo 9990000000003529000000000063500000004164        00003    2017030120170331Passageiros
00000011312432967         2017030165PD84  PEUGEOT        208            Gasoleo 0110000000009227000000000203000000011257        00002    2017030120170331Passageiros
00000011312432967         2017030165PD84  PEUGEOT        208            Gasoleo 1000000000000283000000000000000000000283        00002    2017030120170331Passageiros
00000011312432967         2017030165PD84  PEUGEOT        208            Gasoleo 1000000000001453000000000000000000001453        00002    2017030120170331Passageiros
00000011312432967         2017030165PD84  PEUGEOT        208            Gasoleo 1000000000000180000000000000000000000180        00002    2017030120170331Passageiros
00000011312432967         2017030165PD84  PEUGEOT        208            Gasoleo 1000000000001304000000000000000000001304        00002    2017030120170331Passageiros
00000011312432967         2017030165PD84  PEUGEOT        208            Gasoleo 1000000000000274000000000000000000000274        00002    2017030120170331Passageiros
00000011312432967         2017030165PD84  PEUGEOT        208            Gasoleo 1000000000001634000000000000000000001634        00002    2017030120170331Passageiros
00000011312432967         2017030165PD84  PEUGEOT        208            Gasoleo 5800000000003080000000000067800000003758        00002    2017030120170331Passageiros
00000011312432967         2017030165PD84  PEUGEOT        208            Gasoleo 5810000000001108000000000024400000001352        00002    2017030120170331Passageiros
00000011312432967         2017030165PD84  PEUGEOT        208            Gasoleo 6200000000000635000000000014000000000775        00002    2017030120170331Passageiros
00000011312432967         2017030165PD84  PEUGEOT        208            Gasoleo 6300000000000058000000000001300000000071        00002    2017030120170331Passageiros
00000011312432967         2017030165PD84  PEUGEOT        208            Gasoleo 6500000000000993000000000021800000001211        00002    2017030120170331Passageiros
00000011312432967         2017030165PD84  PEUGEOT        208            Gasoleo 6700000000000316000000000000000000000316        00002    2017030120170331Passageiros
00000011312432967         2017030165PD84  PEUGEOT        208            Gasoleo 7110000000001000000000000022000000001220        00002    2017030120170331Passageiros
00000011312432967         2017030165PD84  PEUGEOT        208            Gasoleo 7200000000000370000000000008100000000451        00002    2017030120170331Passageiros
00000011312432967         2017030165PD84  PEUGEOT        208            Gasoleo 7300000000000288000000000006300000000351        00002    2017030120170331Passageiros
00000011312432967         2017030165PD84  PEUGEOT        208            Gasoleo 7400000000000069000000000001500000000084        00002    2017030120170331Passageiros
00000011312432967         2017030165PD84  PEUGEOT        208            Gasoleo 9990000000002615000000000057500000003190        00002    2017030120170331Passageiros
00000011312432967         2017030176RO83  PEUGEOT        PARTNER        Gasoleo 0110000000068803000000001513700000083940        00002    2017030120170331Mercadorias
00000011312432967         2017030176RO83  PEUGEOT        PARTNER        Gasoleo 1000000000001739000000000000000000001739        00002    2017030120170331Mercadorias
00000011312432967         2017030176RO83  PEUGEOT        PARTNER        Gasoleo 1000000000001557000000000000000000001557        00002    2017030120170331Mercadorias
00000011312432967         2017030176RO83  PEUGEOT        PARTNER        Gasoleo 1000000000000274000000000000000000000274        00002    2017030120170331Mercadorias
00000011312432967         2017030176RO83  PEUGEOT        PARTNER        Gasoleo 1000000000002277000000000000000000002277        00002    2017030120170331Mercadorias
00000011312432967         2017030176RO83  PEUGEOT        PARTNER        Gasoleo 5800000000001702000000000037400000002076        00002    2017030120170331Mercadorias
00000011312432967         2017030176RO83  PEUGEOT        PARTNER        Gasoleo 5810000000000790000000000017400000000964        00002    2017030120170331Mercadorias
00000011312432967         2017030176RO83  PEUGEOT        PARTNER        Gasoleo 6200000000000635000000000014000000000775        00002    2017030120170331Mercadorias
00000011312432967         2017030176RO83  PEUGEOT        PARTNER        Gasoleo 6500000000000267000000000005900000000326        00002    2017030120170331Mercadorias
00000011312432967         2017030176RO83  PEUGEOT        PARTNER        Gasoleo 6700000000000316000000000000000000000316        00002    2017030120170331Mercadorias
00000011312432967         2017030176RO83  PEUGEOT        PARTNER        Gasoleo 7110000000001000000000000022000000001220        00002    2017030120170331Mercadorias
00000011312432967         2017030176RO83  PEUGEOT        PARTNER        Gasoleo 7200000000000370000000000008100000000451        00002    2017030120170331Mercadorias
00000011312432967         2017030176RO83  PEUGEOT        PARTNER        Gasoleo 7300000000000288000000000006300000000351        00002    2017030120170331Mercadorias
00000011312432967         2017030176RO83  PEUGEOT        PARTNER        Gasoleo 7400000000000069000000000001500000000084        00002    2017030120170331Mercadorias
00000011312432967         2017030176RO83  PEUGEOT        PARTNER        Gasoleo 9990000000003128000000000068800000003816        00002    2017030120170331Mercadorias
00000011312432967         2017030176RO81  PEUGEOT        PARTNER        Gasoleo 0110000000068803000000001513700000083940        00002    2017030120170331Mercadorias
00000011312432967         2017030176RO81  PEUGEOT        PARTNER        Gasoleo 1000000000001739000000000000000000001739        00002    2017030120170331Mercadorias
00000011312432967         2017030176RO81  PEUGEOT        PARTNER        Gasoleo 1000000000001557000000000000000000001557        00002    2017030120170331Mercadorias
00000011312432967         2017030176RO81  PEUGEOT        PARTNER        Gasoleo 1000000000000274000000000000000000000274        00002    2017030120170331Mercadorias
00000011312432967         2017030176RO81  PEUGEOT        PARTNER        Gasoleo 1000000000002277000000000000000000002277        00002    2017030120170331Mercadorias
00000011312432967         2017030176RO81  PEUGEOT        PARTNER        Gasoleo 5800000000001702000000000037400000002076        00002    2017030120170331Mercadorias
00000011312432967         2017030176RO81  PEUGEOT        PARTNER        Gasoleo 5810000000000790000000000017400000000964        00002    2017030120170331Mercadorias
00000011312432967         2017030176RO81  PEUGEOT        PARTNER        Gasoleo 6200000000000635000000000014000000000775        00002    2017030120170331Mercadorias
00000011312432967         2017030176RO81  PEUGEOT        PARTNER        Gasoleo 6500000000000267000000000005900000000326        00002    2017030120170331Mercadorias
00000011312432967         2017030176RO81  PEUGEOT        PARTNER        Gasoleo 6700000000000316000000000000000000000316        00002    2017030120170331Mercadorias
00000011312432967         2017030176RO81  PEUGEOT        PARTNER        Gasoleo 7110000000001000000000000022000000001220        00002    2017030120170331Mercadorias
00000011312432967         2017030176RO81  PEUGEOT        PARTNER        Gasoleo 7200000000000370000000000008100000000451        00002    2017030120170331Mercadorias
00000011312432967         2017030176RO81  PEUGEOT        PARTNER        Gasoleo 7300000000000288000000000006300000000351        00002    2017030120170331Mercadorias
00000011312432967         2017030176RO81  PEUGEOT        PARTNER        Gasoleo 7400000000000069000000000001500000000084        00002    2017030120170331Mercadorias
00000011312432967         2017030176RO81  PEUGEOT        PARTNER        Gasoleo 9990000000003128000000000068800000003816        00002    2017030120170331Mercadorias
00000011312432967         2017030165RS90  RENAULT        CLIO IV SPORT TGasoleo 0110000000048367000000001064100000059008        00002    2017030120170331Passageiros
00000011312432967         2017030165RS90  RENAULT        CLIO IV SPORT TGasoleo 1000000000002011000000000000000000002011        00002    2017030120170331Passageiros
00000011312432967         2017030165RS90  RENAULT        CLIO IV SPORT TGasoleo 1000000000000180000000000000000000000180        00002    2017030120170331Passageiros
00000011312432967         2017030165RS90  RENAULT        CLIO IV SPORT TGasoleo 1000000000001104000000000000000000001104        00002    2017030120170331Passageiros
00000011312432967         2017030165RS90  RENAULT        CLIO IV SPORT TGasoleo 1000000000000274000000000000000000000274        00002    2017030120170331Passageiros
00000011312432967         2017030165RS90  RENAULT        CLIO IV SPORT TGasoleo 1000000000002277000000000000000000002277        00002    2017030120170331Passageiros
00000011312432967         2017030165RS90  RENAULT        CLIO IV SPORT TGasoleo 5800000000001595000000000035100000001946        00002    2017030120170331Passageiros
00000011312432967         2017030165RS90  RENAULT        CLIO IV SPORT TGasoleo 5810000000001360000000000029900000001659        00002    2017030120170331Passageiros
00000011312432967         2017030165RS90  RENAULT        CLIO IV SPORT TGasoleo 6200000000000635000000000014000000000775        00002    2017030120170331Passageiros
00000011312432967         2017030165RS90  RENAULT        CLIO IV SPORT TGasoleo 6500000000001184000000000026000000001444        00002    2017030120170331Passageiros
00000011312432967         2017030165RS90  RENAULT        CLIO IV SPORT TGasoleo 6700000000000316000000000000000000000316        00002    2017030120170331Passageiros
00000011312432967         2017030165RS90  RENAULT        CLIO IV SPORT TGasoleo 7110000000001000000000000022000000001220        00002    2017030120170331Passageiros
00000011312432967         2017030165RS90  RENAULT        CLIO IV SPORT TGasoleo 7200000000000370000000000008100000000451        00002    2017030120170331Passageiros
00000011312432967         2017030165RS90  RENAULT        CLIO IV SPORT TGasoleo 7300000000000288000000000006300000000351        00002    2017030120170331Passageiros
00000011312432967         2017030165RS90  RENAULT        CLIO IV SPORT TGasoleo 7400000000000069000000000001500000000084        00002    2017030120170331Passageiros
00000011312432967         2017030165RS90  RENAULT        CLIO IV SPORT TGasoleo 9990000000003532000000000077700000004309        00002    2017030120170331Passageiros
00000011312432968         2017030199LS70  AUDI           A4 AVANT (B8)  Gasoleo 0110000000032270000000000742200000039692        00001    2017030120170331Passageiros
00000011312432968         2017030199LS70  AUDI           A4 AVANT (B8)  Gasoleo 1000000000000597000000000000000000000597        00001    2017030120170331Passageiros
00000011312432968         2017030199LS70  AUDI           A4 AVANT (B8)  Gasoleo 1000000000001536000000000000000000001536        00001    2017030120170331Passageiros
00000011312432968         2017030199LS70  AUDI           A4 AVANT (B8)  Gasoleo 1000000000000100000000000000000000000100        00001    2017030120170331Passageiros
00000011312432968         2017030199LS70  AUDI           A4 AVANT (B8)  Gasoleo 1000000000000166000000000000000000000166        00001    2017030120170331Passageiros
00000011312432968         2017030199LS70  AUDI           A4 AVANT (B8)  Gasoleo 1000000000000175000000000000000000000175        00001    2017030120170331Passageiros
00000011312432968         2017030199LS70  AUDI           A4 AVANT (B8)  Gasoleo 1000000000000100000000000000000000000100        00001    2017030120170331Passageiros
00000011312432968         2017030199LS70  AUDI           A4 AVANT (B8)  Gasoleo 5800000000004149000000000095400000005103        00001    2017030120170331Passageiros
00000011312432968         2017030199LS70  AUDI           A4 AVANT (B8)  Gasoleo 5810000000002707000000000062300000003330        00001    2017030120170331Passageiros
00000011312432968         2017030199LS70  AUDI           A4 AVANT (B8)  Gasoleo 6300000000000045000000000001000000000055        00001    2017030120170331Passageiros
00000011312432968         2017030199LS70  AUDI           A4 AVANT (B8)  Gasoleo 6500000000001831000000000042100000002252        00001    2017030120170331Passageiros
00000011312432968         2017030199LS70  AUDI           A4 AVANT (B8)  Gasoleo 6700000000000316000000000000000000000316        00001    2017030120170331Passageiros
00000011312432968         2017030199LS70  AUDI           A4 AVANT (B8)  Gasoleo 7110000000001000000000000023000000001230        00001    2017030120170331Passageiros
00000011312432968         2017030199LS70  AUDI           A4 AVANT (B8)  Gasoleo 5800000000000744000000000017100000000915        00001    2017030120170331Passageiros
00000011312432968         2017030199LS70  AUDI           A4 AVANT (B8)  Gasoleo 5810000000000553000000000012700000000680        00001    2017030120170331Passageiros
00000011312432968         2017030199LS70  AUDI           A4 AVANT (B8)  Gasoleo 7300000000000237000000000005500000000292        00001    2017030120170331Passageiros
00000011312432968         2017030199LS70  AUDI           A4 AVANT (B8)  Gasoleo 7400000000000050000000000001200000000062        00001    2017030120170331Passageiros
00000011312432968         2017030199LS70  AUDI           A4 AVANT (B8)  Gasoleo 9990000000015259000000000351000000018769        00001    2017030120170331Passageiros
00000011312432968         2017030104NA18  FIAT           FIORINO (225)  Gasoleo 0110000000014760000000000339500000018155        00001    2017030120170331Mercadorias
00000011312432968         2017030104NA18  FIAT           FIORINO (225)  Gasoleo 1000000000000148000000000000000000000148        00001    2017030120170331Mercadorias
00000011312432968         2017030104NA18  FIAT           FIORINO (225)  Gasoleo 1000000000000759000000000000000000000759        00001    2017030120170331Mercadorias
00000011312432968         2017030104NA18  FIAT           FIORINO (225)  Gasoleo 1000000000000100000000000000000000000100        00001    2017030120170331Mercadorias
00000011312432968         2017030104NA18  FIAT           FIORINO (225)  Gasoleo 1000000000001414000000000000000000001414        00001    2017030120170331Mercadorias
00000011312432968         2017030104NA18  FIAT           FIORINO (225)  Gasoleo 1000000000000175000000000000000000000175        00001    2017030120170331Mercadorias
00000011312432968         2017030104NA18  FIAT           FIORINO (225)  Gasoleo 1000000000000100000000000000000000000100        00001    2017030120170331Mercadorias
00000011312432968         2017030104NA18  FIAT           FIORINO (225)  Gasoleo 5800000000003123000000000071800000003841        00001    2017030120170331Mercadorias
00000011312432968         2017030104NA18  FIAT           FIORINO (225)  Gasoleo 5810000000001440000000000033100000001771        00001    2017030120170331Mercadorias
00000011312432968         2017030104NA18  FIAT           FIORINO (225)  Gasoleo 6200000000000629000000000014500000000774        00001    2017030120170331Mercadorias
00000011312432968         2017030104NA18  FIAT           FIORINO (225)  Gasoleo 6500000000000218000000000005000000000268        00001    2017030120170331Mercadorias
00000011312432968         2017030104NA18  FIAT           FIORINO (225)  Gasoleo 6700000000000316000000000000000000000316        00001    2017030120170331Mercadorias
00000011312432968         2017030104NA18  FIAT           FIORINO (225)  Gasoleo 7110000000000500000000000011500000000615        00001    2017030120170331Mercadorias
00000011312432968         2017030104NA18  FIAT           FIORINO (225)  Gasoleo 7200000000000367000000000008400000000451        00001    2017030120170331Mercadorias
00000011312432968         2017030104NA18  FIAT           FIORINO (225)  Gasoleo 7300000000000237000000000005500000000292        00001    2017030120170331Mercadorias
00000011312432968         2017030104NA18  FIAT           FIORINO (225)  Gasoleo 7400000000000050000000000001200000000062        00001    2017030120170331Mercadorias
00000011312432968         2017030104NA18  FIAT           FIORINO (225)  Gasoleo 9990000000003543000000000081500000004358        00001    2017030120170331Mercadorias
00000011312432968         2017030104NA12  FIAT           FIORINO (225)  Gasoleo 0110000000016388000000000376900000020157        00001    2017030120170331Mercadorias
00000011312432968         2017030104NA12  FIAT           FIORINO (225)  Gasoleo 1000000000000148000000000000000000000148        00001    2017030120170331Mercadorias
00000011312432968         2017030104NA12  FIAT           FIORINO (225)  Gasoleo 1000000000000759000000000000000000000759        00001    2017030120170331Mercadorias
00000011312432968         2017030104NA12  FIAT           FIORINO (225)  Gasoleo 1000000000000100000000000000000000000100        00001    2017030120170331Mercadorias
00000011312432968         2017030104NA12  FIAT           FIORINO (225)  Gasoleo 1000000000001414000000000000000000001414        00001    2017030120170331Mercadorias
00000011312432968         2017030104NA12  FIAT           FIORINO (225)  Gasoleo 1000000000000175000000000000000000000175        00001    2017030120170331Mercadorias
00000011312432968         2017030104NA12  FIAT           FIORINO (225)  Gasoleo 1000000000000100000000000000000000000100        00001    2017030120170331Mercadorias
00000011312432968         2017030104NA12  FIAT           FIORINO (225)  Gasoleo 5800000000004711000000000108400000005795        00001    2017030120170331Mercadorias
00000011312432968         2017030104NA12  FIAT           FIORINO (225)  Gasoleo 5810000000001807000000000041600000002223        00001    2017030120170331Mercadorias
00000011312432968         2017030104NA12  FIAT           FIORINO (225)  Gasoleo 6200000000000629000000000014500000000774        00001    2017030120170331Mercadorias
00000011312432968         2017030104NA12  FIAT           FIORINO (225)  Gasoleo 6300000000000169000000000003900000000208        00001    2017030120170331Mercadorias
00000011312432968         2017030104NA12  FIAT           FIORINO (225)  Gasoleo 6500000000000218000000000005000000000268        00001    2017030120170331Mercadorias
00000011312432968         2017030104NA12  FIAT           FIORINO (225)  Gasoleo 6700000000000316000000000000000000000316        00001    2017030120170331Mercadorias
00000011312432968         2017030104NA12  FIAT           FIORINO (225)  Gasoleo 7110000000000500000000000011500000000615        00001    2017030120170331Mercadorias
00000011312432968         2017030104NA12  FIAT           FIORINO (225)  Gasoleo 7200000000000367000000000008400000000451        00001    2017030120170331Mercadorias
00000011312432968         2017030104NA12  FIAT           FIORINO (225)  Gasoleo 7300000000000237000000000005500000000292        00001    2017030120170331Mercadorias
00000011312432968         2017030104NA12  FIAT           FIORINO (225)  Gasoleo 7400000000000050000000000001200000000062        00001    2017030120170331Mercadorias
00000011312432968         2017030104NA12  FIAT           FIORINO (225)  Gasoleo 9990000000003360000000000077300000004133        00001    2017030120170331Mercadorias
00000011312432968         2017030120NB94  VW             POLO VAN       Gasoleo 0110000000013401000000000308200000016483        00001    2017030120170331Mercadorias
00000011312432968         2017030120NB94  VW             POLO VAN       Gasoleo 1000000000000194000000000000000000000194        00001    2017030120170331Mercadorias
00000011312432968         2017030120NB94  VW             POLO VAN       Gasoleo 1000000000001086000000000000000000001086        00001    2017030120170331Mercadorias
00000011312432968         2017030120NB94  VW             POLO VAN       Gasoleo 1000000000000100000000000000000000000100        00001    2017030120170331Mercadorias
00000011312432968         2017030120NB94  VW             POLO VAN       Gasoleo 1000000000000933000000000000000000000933        00001    2017030120170331Mercadorias
00000011312432968         2017030120NB94  VW             POLO VAN       Gasoleo 1000000000000175000000000000000000000175        00001    2017030120170331Mercadorias
00000011312432968         2017030120NB94  VW             POLO VAN       Gasoleo 1000000000000100000000000000000000000100        00001    2017030120170331Mercadorias
00000011312432968         2017030120NB94  VW             POLO VAN       Gasoleo 5800000000002830000000000065100000003481        00001    2017030120170331Mercadorias
00000011312432968         2017030120NB94  VW             POLO VAN       Gasoleo 5810000000001813000000000041700000002230        00001    2017030120170331Mercadorias
00000011312432968         2017030120NB94  VW             POLO VAN       Gasoleo 6200000000000629000000000014500000000774        00001    2017030120170331Mercadorias
00000011312432968         2017030120NB94  VW             POLO VAN       Gasoleo 6500000000000218000000000005000000000268        00001    2017030120170331Mercadorias
00000011312432968         2017030120NB94  VW             POLO VAN       Gasoleo 6700000000000316000000000000000000000316        00001    2017030120170331Mercadorias
00000011312432968         2017030120NB94  VW             POLO VAN       Gasoleo 7110000000000500000000000011500000000615        00001    2017030120170331Mercadorias
00000011312432968         2017030120NB94  VW             POLO VAN       Gasoleo 7200000000000367000000000008400000000451        00001    2017030120170331Mercadorias
00000011312432968         2017030120NB94  VW             POLO VAN       Gasoleo 7300000000000237000000000005500000000292        00001    2017030120170331Mercadorias
00000011312432968         2017030120NB94  VW             POLO VAN       Gasoleo 7400000000000050000000000001200000000062        00001    2017030120170331Mercadorias
00000011312432968         2017030120NB94  VW             POLO VAN       Gasoleo 9990000000004756000000000109400000005850        00001    2017030120170331Mercadorias
00000011312432968         2017030106NB82  VW             POLO (6R1)     Gasoleo 0110000000008846000000000203500000010881        00001    2017030120170331Passageiros
00000011312432968         2017030106NB82  VW             POLO (6R1)     Gasoleo 1000000000000217000000000000000000000217        00001    2017030120170331Passageiros
00000011312432968         2017030106NB82  VW             POLO (6R1)     Gasoleo 1000000000001116000000000000000000001116        00001    2017030120170331Passageiros
00000011312432968         2017030106NB82  VW             POLO (6R1)     Gasoleo 1000000000000100000000000000000000000100        00001    2017030120170331Passageiros
00000011312432968         2017030106NB82  VW             POLO (6R1)     Gasoleo 1000000000000931000000000000000000000931        00001    2017030120170331Passageiros
00000011312432968         2017030106NB82  VW             POLO (6R1)     Gasoleo 1000000000000175000000000000000000000175        00001    2017030120170331Passageiros
00000011312432968         2017030106NB82  VW             POLO (6R1)     Gasoleo 1000000000000100000000000000000000000100        00001    2017030120170331Passageiros
00000011312432968         2017030106NB82  VW             POLO (6R1)     Gasoleo 5800000000004057000000000093300000004990        00001    2017030120170331Passageiros
00000011312432968         2017030106NB82  VW             POLO (6R1)     Gasoleo 5810000000002411000000000055500000002966        00001    2017030120170331Passageiros
00000011312432968         2017030106NB82  VW             POLO (6R1)     Gasoleo 6200000000000629000000000014500000000774        00001    2017030120170331Passageiros
00000011312432968         2017030106NB82  VW             POLO (6R1)     Gasoleo 6300000000000058000000000001300000000071        00001    2017030120170331Passageiros
00000011312432968         2017030106NB82  VW             POLO (6R1)     Gasoleo 6500000000000678000000000015600000000834        00001    2017030120170331Passageiros
00000011312432968         2017030106NB82  VW             POLO (6R1)     Gasoleo 6700000000000316000000000000000000000316        00001    2017030120170331Passageiros
00000011312432968         2017030106NB82  VW             POLO (6R1)     Gasoleo 7110000000000500000000000011500000000615        00001    2017030120170331Passageiros
00000011312432968         2017030106NB82  VW             POLO (6R1)     Gasoleo 7200000000000367000000000008400000000451        00001    2017030120170331Passageiros
00000011312432968         2017030106NB82  VW             POLO (6R1)     Gasoleo 7300000000000237000000000005500000000292        00001    2017030120170331Passageiros
00000011312432968         2017030106NB82  VW             POLO (6R1)     Gasoleo 7400000000000050000000000001200000000062        00001    2017030120170331Passageiros
00000011312432968         2017030106NB82  VW             POLO (6R1)     Gasoleo 9990000000004665000000000107300000005738        00001    2017030120170331Passageiros
00000011312432968         2017030190OC86  VW             POLO VAN       Gasoleo 0110000000018108000000000416500000022273        00001    2017030120170331Mercadorias
00000011312432968         2017030190OC86  VW             POLO VAN       Gasoleo 1000000000001431000000000000000000001431        00001    2017030120170331Mercadorias
00000011312432968         2017030190OC86  VW             POLO VAN       Gasoleo 1000000000000180000000000000000000000180        00001    2017030120170331Mercadorias
00000011312432968         2017030190OC86  VW             POLO VAN       Gasoleo 1000000000000905000000000000000000000905        00001    2017030120170331Mercadorias
00000011312432968         2017030190OC86  VW             POLO VAN       Gasoleo 1000000000000175000000000000000000000175        00001    2017030120170331Mercadorias
00000011312432968         2017030190OC86  VW             POLO VAN       Gasoleo 1000000000000100000000000000000000000100        00001    2017030120170331Mercadorias
00000011312432968         2017030190OC86  VW             POLO VAN       Gasoleo 5800000000002215000000000050900000002724        00001    2017030120170331Mercadorias
00000011312432968         2017030190OC86  VW             POLO VAN       Gasoleo 5810000000001288000000000029600000001584        00001    2017030120170331Mercadorias
00000011312432968         2017030190OC86  VW             POLO VAN       Gasoleo 6200000000000629000000000014500000000774        00001    2017030120170331Mercadorias
00000011312432968         2017030190OC86  VW             POLO VAN       Gasoleo 6300000000000169000000000003900000000208        00001    2017030120170331Mercadorias
00000011312432968         2017030190OC86  VW             POLO VAN       Gasoleo 6500000000000225000000000005200000000277        00001    2017030120170331Mercadorias
00000011312432968         2017030190OC86  VW             POLO VAN       Gasoleo 6700000000000316000000000000000000000316        00001    2017030120170331Mercadorias
00000011312432968         2017030190OC86  VW             POLO VAN       Gasoleo 7110000000001000000000000023000000001230        00001    2017030120170331Mercadorias
00000011312432968         2017030190OC86  VW             POLO VAN       Gasoleo 7200000000000367000000000008400000000451        00001    2017030120170331Mercadorias
00000011312432968         2017030190OC86  VW             POLO VAN       Gasoleo 7300000000000237000000000005500000000292        00001    2017030120170331Mercadorias
00000011312432968         2017030190OC86  VW             POLO VAN       Gasoleo 7400000000000050000000000001200000000062        00001    2017030120170331Mercadorias
00000011312432968         2017030190OC86  VW             POLO VAN       Gasoleo 9990000000003087000000000071000000003797        00001    2017030120170331Mercadorias
00000011312432968         2017030102OD22  VW             POLO VAN       Gasoleo 0110000000018108000000000416500000022273        00001    2017030120170331Mercadorias
00000011312432968         2017030102OD22  VW             POLO VAN       Gasoleo 1000000000001441000000000000000000001441        00001    2017030120170331Mercadorias
00000011312432968         2017030102OD22  VW             POLO VAN       Gasoleo 1000000000000180000000000000000000000180        00001    2017030120170331Mercadorias
00000011312432968         2017030102OD22  VW             POLO VAN       Gasoleo 1000000000000904000000000000000000000904        00001    2017030120170331Mercadorias
00000011312432968         2017030102OD22  VW             POLO VAN       Gasoleo 1000000000000175000000000000000000000175        00001    2017030120170331Mercadorias
00000011312432968         2017030102OD22  VW             POLO VAN       Gasoleo 1000000000000100000000000000000000000100        00001    2017030120170331Mercadorias
00000011312432968         2017030102OD22  VW             POLO VAN       Gasoleo 5800000000002215000000000050900000002724        00001    2017030120170331Mercadorias
00000011312432968         2017030102OD22  VW             POLO VAN       Gasoleo 5810000000001288000000000029600000001584        00001    2017030120170331Mercadorias
00000011312432968         2017030102OD22  VW             POLO VAN       Gasoleo 6200000000000629000000000014500000000774        00001    2017030120170331Mercadorias
00000011312432968         2017030102OD22  VW             POLO VAN       Gasoleo 6300000000000169000000000003900000000208        00001    2017030120170331Mercadorias
00000011312432968         2017030102OD22  VW             POLO VAN       Gasoleo 6500000000000225000000000005200000000277        00001    2017030120170331Mercadorias
00000011312432968         2017030102OD22  VW             POLO VAN       Gasoleo 6700000000000316000000000000000000000316        00001    2017030120170331Mercadorias
00000011312432968         2017030102OD22  VW             POLO VAN       Gasoleo 7110000000001000000000000023000000001230        00001    2017030120170331Mercadorias
00000011312432968         2017030102OD22  VW             POLO VAN       Gasoleo 7200000000000367000000000008400000000451        00001    2017030120170331Mercadorias
00000011312432968         2017030102OD22  VW             POLO VAN       Gasoleo 7300000000000237000000000005500000000292        00001    2017030120170331Mercadorias
00000011312432968         2017030102OD22  VW             POLO VAN       Gasoleo 7400000000000050000000000001200000000062        00001    2017030120170331Mercadorias
00000011312432968         2017030102OD22  VW             POLO VAN       Gasoleo 9990000000003087000000000071000000003797        00001    2017030120170331Mercadorias
00000011312432968         2017030166PB84  FIAT           FIORINO (225)  Gasoleo 0110000000014197000000000326500000017462        00001    2017030120170331Mercadorias
00000011312432968         2017030166PB84  FIAT           FIORINO (225)  Gasoleo 1000000000001272000000000000000000001272        00001    2017030120170331Mercadorias
00000011312432968         2017030166PB84  FIAT           FIORINO (225)  Gasoleo 1000000000000180000000000000000000000180        00001    2017030120170331Mercadorias
00000011312432968         2017030166PB84  FIAT           FIORINO (225)  Gasoleo 1000000000001304000000000000000000001304        00001    2017030120170331Mercadorias
00000011312432968         2017030166PB84  FIAT           FIORINO (225)  Gasoleo 1000000000000274000000000000000000000274        00001    2017030120170331Mercadorias
00000011312432968         2017030166PB84  FIAT           FIORINO (225)  Gasoleo 1000000000002042000000000000000000002042        00001    2017030120170331Mercadorias
00000011312432968         2017030166PB84  FIAT           FIORINO (225)  Gasoleo 5800000000002633000000000060600000003239        00001    2017030120170331Mercadorias
00000011312432968         2017030166PB84  FIAT           FIORINO (225)  Gasoleo 5810000000001243000000000028600000001529        00001    2017030120170331Mercadorias
00000011312432968         2017030166PB84  FIAT           FIORINO (225)  Gasoleo 6200000000000635000000000014600000000781        00001    2017030120170331Mercadorias
00000011312432968         2017030166PB84  FIAT           FIORINO (225)  Gasoleo 6300000000000155000000000003600000000191        00001    2017030120170331Mercadorias
00000011312432968         2017030166PB84  FIAT           FIORINO (225)  Gasoleo 6500000000000279000000000006400000000343        00001    2017030120170331Mercadorias
00000011312432968         2017030166PB84  FIAT           FIORINO (225)  Gasoleo 6700000000000316000000000000000000000316        00001    2017030120170331Mercadorias
00000011312432968         2017030166PB84  FIAT           FIORINO (225)  Gasoleo 7110000000001000000000000023000000001230        00001    2017030120170331Mercadorias
00000011312432968         2017030166PB84  FIAT           FIORINO (225)  Gasoleo 7200000000000370000000000008500000000455        00001    2017030120170331Mercadorias
00000011312432968         2017030166PB84  FIAT           FIORINO (225)  Gasoleo 7300000000000288000000000006600000000354        00001    2017030120170331Mercadorias
00000011312432968         2017030166PB84  FIAT           FIORINO (225)  Gasoleo 7400000000000069000000000001600000000085        00001    2017030120170331Mercadorias
00000011312432968         2017030166PB84  FIAT           FIORINO (225)  Gasoleo 9990000000001864000000000042900000002293        00001    2017030120170331Mercadorias
00000011312432968         2017030166PB79  FIAT           FIORINO (225)  Gasoleo 0110000000014197000000000326500000017462        00001    2017030120170331Mercadorias
00000011312432968         2017030166PB79  FIAT           FIORINO (225)  Gasoleo 1000000000001272000000000000000000001272        00001    2017030120170331Mercadorias
00000011312432968         2017030166PB79  FIAT           FIORINO (225)  Gasoleo 1000000000000180000000000000000000000180        00001    2017030120170331Mercadorias
00000011312432968         2017030166PB79  FIAT           FIORINO (225)  Gasoleo 1000000000001304000000000000000000001304        00001    2017030120170331Mercadorias
00000011312432968         2017030166PB79  FIAT           FIORINO (225)  Gasoleo 1000000000000274000000000000000000000274        00001    2017030120170331Mercadorias
00000011312432968         2017030166PB79  FIAT           FIORINO (225)  Gasoleo 1000000000002042000000000000000000002042        00001    2017030120170331Mercadorias
00000011312432968         2017030166PB79  FIAT           FIORINO (225)  Gasoleo 5800000000002633000000000060600000003239        00001    2017030120170331Mercadorias
00000011312432968         2017030166PB79  FIAT           FIORINO (225)  Gasoleo 5810000000001243000000000028600000001529        00001    2017030120170331Mercadorias
00000011312432968         2017030166PB79  FIAT           FIORINO (225)  Gasoleo 6200000000000635000000000014600000000781        00001    2017030120170331Mercadorias
00000011312432968         2017030166PB79  FIAT           FIORINO (225)  Gasoleo 6300000000000155000000000003600000000191        00001    2017030120170331Mercadorias
00000011312432968         2017030166PB79  FIAT           FIORINO (225)  Gasoleo 6500000000000279000000000006400000000343        00001    2017030120170331Mercadorias
00000011312432968         2017030166PB79  FIAT           FIORINO (225)  Gasoleo 6700000000000316000000000000000000000316        00001    2017030120170331Mercadorias
00000011312432968         2017030166PB79  FIAT           FIORINO (225)  Gasoleo 7110000000001000000000000023000000001230        00001    2017030120170331Mercadorias
00000011312432968         2017030166PB79  FIAT           FIORINO (225)  Gasoleo 7200000000000370000000000008500000000455        00001    2017030120170331Mercadorias
00000011312432968         2017030166PB79  FIAT           FIORINO (225)  Gasoleo 7300000000000288000000000006600000000354        00001    2017030120170331Mercadorias
00000011312432968         2017030166PB79  FIAT           FIORINO (225)  Gasoleo 7400000000000069000000000001600000000085        00001    2017030120170331Mercadorias
00000011312432968         2017030166PB79  FIAT           FIORINO (225)  Gasoleo 9990000000001864000000000042900000002293        00001    2017030120170331Mercadorias
00000011312432968         2017030166PB82  FIAT           FIORINO (225)  Gasoleo 0110000000014197000000000326500000017462        00001    2017030120170331Mercadorias
00000011312432968         2017030166PB82  FIAT           FIORINO (225)  Gasoleo 1000000000001272000000000000000000001272        00001    2017030120170331Mercadorias
00000011312432968         2017030166PB82  FIAT           FIORINO (225)  Gasoleo 1000000000000180000000000000000000000180        00001    2017030120170331Mercadorias
00000011312432968         2017030166PB82  FIAT           FIORINO (225)  Gasoleo 1000000000001304000000000000000000001304        00001    2017030120170331Mercadorias
00000011312432968         2017030166PB82  FIAT           FIORINO (225)  Gasoleo 1000000000000274000000000000000000000274        00001    2017030120170331Mercadorias
00000011312432968         2017030166PB82  FIAT           FIORINO (225)  Gasoleo 1000000000002042000000000000000000002042        00001    2017030120170331Mercadorias
00000011312432968         2017030166PB82  FIAT           FIORINO (225)  Gasoleo 5800000000002633000000000060600000003239        00001    2017030120170331Mercadorias
00000011312432968         2017030166PB82  FIAT           FIORINO (225)  Gasoleo 5810000000001243000000000028600000001529        00001    2017030120170331Mercadorias
00000011312432968         2017030166PB82  FIAT           FIORINO (225)  Gasoleo 6200000000000635000000000014600000000781        00001    2017030120170331Mercadorias
00000011312432968         2017030166PB82  FIAT           FIORINO (225)  Gasoleo 6300000000000155000000000003600000000191        00001    2017030120170331Mercadorias
00000011312432968         2017030166PB82  FIAT           FIORINO (225)  Gasoleo 6500000000000279000000000006400000000343        00001    2017030120170331Mercadorias
00000011312432968         2017030166PB82  FIAT           FIORINO (225)  Gasoleo 6700000000000316000000000000000000000316        00001    2017030120170331Mercadorias
00000011312432968         2017030166PB82  FIAT           FIORINO (225)  Gasoleo 7110000000001000000000000023000000001230        00001    2017030120170331Mercadorias
00000011312432968         2017030166PB82  FIAT           FIORINO (225)  Gasoleo 7200000000000370000000000008500000000455        00001    2017030120170331Mercadorias
00000011312432968         2017030166PB82  FIAT           FIORINO (225)  Gasoleo 7300000000000288000000000006600000000354        00001    2017030120170331Mercadorias
00000011312432968         2017030166PB82  FIAT           FIORINO (225)  Gasoleo 7400000000000069000000000001600000000085        00001    2017030120170331Mercadorias
00000011312432968         2017030166PB82  FIAT           FIORINO (225)  Gasoleo 9990000000001864000000000042900000002293        00001    2017030120170331Mercadorias
00000011312432968         2017030154PE32  PEUGEOT        208            Gasoleo 0110000000006591000000000151600000008107        00001    2017030120170331Passageiros
00000011312432968         2017030154PE32  PEUGEOT        208            Gasoleo 1000000000000255000000000000000000000255        00001    2017030120170331Passageiros
00000011312432968         2017030154PE32  PEUGEOT        208            Gasoleo 1000000000001312000000000000000000001312        00001    2017030120170331Passageiros
00000011312432968         2017030154PE32  PEUGEOT        208            Gasoleo 1000000000000180000000000000000000000180        00001    2017030120170331Passageiros
00000011312432968         2017030154PE32  PEUGEOT        208            Gasoleo 1000000000001304000000000000000000001304        00001    2017030120170331Passageiros
00000011312432968         2017030154PE32  PEUGEOT        208            Gasoleo 1000000000000274000000000000000000000274        00001    2017030120170331Passageiros
00000011312432968         2017030154PE32  PEUGEOT        208            Gasoleo 1000000000001636000000000000000000001636        00001    2017030120170331Passageiros
00000011312432968         2017030154PE32  PEUGEOT        208            Gasoleo 5800000000002710000000000062300000003333        00001    2017030120170331Passageiros
00000011312432968         2017030154PE32  PEUGEOT        208            Gasoleo 5810000000000975000000000022400000001199        00001    2017030120170331Passageiros
00000011312432968         2017030154PE32  PEUGEOT        208            Gasoleo 6200000000000635000000000014600000000781        00001    2017030120170331Passageiros
00000011312432968         2017030154PE32  PEUGEOT        208            Gasoleo 6300000000000058000000000001300000000071        00001    2017030120170331Passageiros
00000011312432968         2017030154PE32  PEUGEOT        208            Gasoleo 6500000000000993000000000022800000001221        00001    2017030120170331Passageiros
00000011312432968         2017030154PE32  PEUGEOT        208            Gasoleo 6700000000000316000000000000000000000316        00001    2017030120170331Passageiros
00000011312432968         2017030154PE32  PEUGEOT        208            Gasoleo 7110000000001000000000000023000000001230        00001    2017030120170331Passageiros
00000011312432968         2017030154PE32  PEUGEOT        208            Gasoleo 7200000000000370000000000008500000000455        00001    2017030120170331Passageiros
00000011312432968         2017030154PE32  PEUGEOT        208            Gasoleo 7300000000000288000000000006600000000354        00001    2017030120170331Passageiros
00000011312432968         2017030154PE32  PEUGEOT        208            Gasoleo 7400000000000069000000000001600000000085        00001    2017030120170331Passageiros
00000011312432968         2017030154PE32  PEUGEOT        208            Gasoleo 9990000000002469000000000056800000003037        00001    2017030120170331Passageiros
00000011312432968         2017030154PE31  PEUGEOT        208            Gasoleo 0110000000006591000000000151600000008107        00001    2017030120170331Passageiros
00000011312432968         2017030154PE31  PEUGEOT        208            Gasoleo 1000000000000255000000000000000000000255        00001    2017030120170331Passageiros
00000011312432968         2017030154PE31  PEUGEOT        208            Gasoleo 1000000000001312000000000000000000001312        00001    2017030120170331Passageiros
00000011312432968         2017030154PE31  PEUGEOT        208            Gasoleo 1000000000000180000000000000000000000180        00001    2017030120170331Passageiros
00000011312432968         2017030154PE31  PEUGEOT        208            Gasoleo 1000000000001304000000000000000000001304        00001    2017030120170331Passageiros
00000011312432968         2017030154PE31  PEUGEOT        208            Gasoleo 1000000000000274000000000000000000000274        00001    2017030120170331Passageiros
00000011312432968         2017030154PE31  PEUGEOT        208            Gasoleo 1000000000001636000000000000000000001636        00001    2017030120170331Passageiros
00000011312432968         2017030154PE31  PEUGEOT        208            Gasoleo 5800000000002710000000000062300000003333        00001    2017030120170331Passageiros
00000011312432968         2017030154PE31  PEUGEOT        208            Gasoleo 5810000000000975000000000022400000001199        00001    2017030120170331Passageiros
00000011312432968         2017030154PE31  PEUGEOT        208            Gasoleo 6200000000000635000000000014600000000781        00001    2017030120170331Passageiros
00000011312432968         2017030154PE31  PEUGEOT        208            Gasoleo 6300000000000058000000000001300000000071        00001    2017030120170331Passageiros
00000011312432968         2017030154PE31  PEUGEOT        208            Gasoleo 6500000000000993000000000022800000001221        00001    2017030120170331Passageiros
00000011312432968         2017030154PE31  PEUGEOT        208            Gasoleo 6700000000000316000000000000000000000316        00001    2017030120170331Passageiros
00000011312432968         2017030154PE31  PEUGEOT        208            Gasoleo 7110000000001000000000000023000000001230        00001    2017030120170331Passageiros
00000011312432968         2017030154PE31  PEUGEOT        208            Gasoleo 7200000000000370000000000008500000000455        00001    2017030120170331Passageiros
00000011312432968         2017030154PE31  PEUGEOT        208            Gasoleo 7300000000000288000000000006600000000354        00001    2017030120170331Passageiros
00000011312432968         2017030154PE31  PEUGEOT        208            Gasoleo 7400000000000069000000000001600000000085        00001    2017030120170331Passageiros
00000011312432968         2017030154PE31  PEUGEOT        208            Gasoleo 9990000000002469000000000056800000003037        00001    2017030120170331Passageiros
00000011312432968         2017030154PE30  PEUGEOT        208            Gasoleo 0110000000006591000000000151600000008107        00001    2017030120170331Passageiros
00000011312432968         2017030154PE30  PEUGEOT        208            Gasoleo 1000000000000255000000000000000000000255        00001    2017030120170331Passageiros
00000011312432968         2017030154PE30  PEUGEOT        208            Gasoleo 1000000000001312000000000000000000001312        00001    2017030120170331Passageiros
00000011312432968         2017030154PE30  PEUGEOT        208            Gasoleo 1000000000000180000000000000000000000180        00001    2017030120170331Passageiros
00000011312432968         2017030154PE30  PEUGEOT        208            Gasoleo 1000000000001304000000000000000000001304        00001    2017030120170331Passageiros
00000011312432968         2017030154PE30  PEUGEOT        208            Gasoleo 1000000000000274000000000000000000000274        00001    2017030120170331Passageiros
00000011312432968         2017030154PE30  PEUGEOT        208            Gasoleo 1000000000001636000000000000000000001636        00001    2017030120170331Passageiros
00000011312432968         2017030154PE30  PEUGEOT        208            Gasoleo 5800000000002710000000000062300000003333        00001    2017030120170331Passageiros
00000011312432968         2017030154PE30  PEUGEOT        208            Gasoleo 5810000000000975000000000022400000001199        00001    2017030120170331Passageiros
00000011312432968         2017030154PE30  PEUGEOT        208            Gasoleo 6200000000000635000000000014600000000781        00001    2017030120170331Passageiros
00000011312432968         2017030154PE30  PEUGEOT        208            Gasoleo 6300000000000058000000000001300000000071        00001    2017030120170331Passageiros
00000011312432968         2017030154PE30  PEUGEOT        208            Gasoleo 6500000000000993000000000022800000001221        00001    2017030120170331Passageiros
00000011312432968         2017030154PE30  PEUGEOT        208            Gasoleo 6700000000000316000000000000000000000316        00001    2017030120170331Passageiros
00000011312432968         2017030154PE30  PEUGEOT        208            Gasoleo 7110000000001000000000000023000000001230        00001    2017030120170331Passageiros
00000011312432968         2017030154PE30  PEUGEOT        208            Gasoleo 7200000000000370000000000008500000000455        00001    2017030120170331Passageiros
00000011312432968         2017030154PE30  PEUGEOT        208            Gasoleo 7300000000000288000000000006600000000354        00001    2017030120170331Passageiros
00000011312432968         2017030154PE30  PEUGEOT        208            Gasoleo 7400000000000069000000000001600000000085        00001    2017030120170331Passageiros
00000011312432968         2017030154PE30  PEUGEOT        208            Gasoleo 9990000000002469000000000056800000003037        00001    2017030120170331Passageiros
00000011312432968         2017030154PE29  PEUGEOT        208            Gasoleo 0110000000006591000000000151600000008107        00001    2017030120170331Passageiros
00000011312432968         2017030154PE29  PEUGEOT        208            Gasoleo 1000000000000255000000000000000000000255        00001    2017030120170331Passageiros
00000011312432968         2017030154PE29  PEUGEOT        208            Gasoleo 1000000000001312000000000000000000001312        00001    2017030120170331Passageiros
00000011312432968         2017030154PE29  PEUGEOT        208            Gasoleo 1000000000000180000000000000000000000180        00001    2017030120170331Passageiros
00000011312432968         2017030154PE29  PEUGEOT        208            Gasoleo 1000000000001304000000000000000000001304        00001    2017030120170331Passageiros
00000011312432968         2017030154PE29  PEUGEOT        208            Gasoleo 1000000000000274000000000000000000000274        00001    2017030120170331Passageiros
00000011312432968         2017030154PE29  PEUGEOT        208            Gasoleo 1000000000001636000000000000000000001636        00001    2017030120170331Passageiros
00000011312432968         2017030154PE29  PEUGEOT        208            Gasoleo 5800000000002710000000000062300000003333        00001    2017030120170331Passageiros
00000011312432968         2017030154PE29  PEUGEOT        208            Gasoleo 5810000000000975000000000022400000001199        00001    2017030120170331Passageiros
00000011312432968         2017030154PE29  PEUGEOT        208            Gasoleo 6200000000000635000000000014600000000781        00001    2017030120170331Passageiros
00000011312432968         2017030154PE29  PEUGEOT        208            Gasoleo 6300000000000058000000000001300000000071        00001    2017030120170331Passageiros
00000011312432968         2017030154PE29  PEUGEOT        208            Gasoleo 6500000000000993000000000022800000001221        00001    2017030120170331Passageiros
00000011312432968         2017030154PE29  PEUGEOT        208            Gasoleo 6700000000000316000000000000000000000316        00001    2017030120170331Passageiros
00000011312432968         2017030154PE29  PEUGEOT        208            Gasoleo 7110000000001000000000000023000000001230        00001    2017030120170331Passageiros
00000011312432968         2017030154PE29  PEUGEOT        208            Gasoleo 7200000000000370000000000008500000000455        00001    2017030120170331Passageiros
00000011312432968         2017030154PE29  PEUGEOT        208            Gasoleo 7300000000000288000000000006600000000354        00001    2017030120170331Passageiros
00000011312432968         2017030154PE29  PEUGEOT        208            Gasoleo 7400000000000069000000000001600000000085        00001    2017030120170331Passageiros
00000011312432968         2017030154PE29  PEUGEOT        208            Gasoleo 9990000000002469000000000056800000003037        00001    2017030120170331Passageiros
00000011312432968         2017030154PE28  PEUGEOT        208            Gasoleo 0110000000006591000000000151600000008107        00001    2017030120170331Passageiros
00000011312432968         2017030154PE28  PEUGEOT        208            Gasoleo 1000000000000255000000000000000000000255        00001    2017030120170331Passageiros
00000011312432968         2017030154PE28  PEUGEOT        208            Gasoleo 1000000000001312000000000000000000001312        00001    2017030120170331Passageiros
00000011312432968         2017030154PE28  PEUGEOT        208            Gasoleo 1000000000000180000000000000000000000180        00001    2017030120170331Passageiros
00000011312432968         2017030154PE28  PEUGEOT        208            Gasoleo 1000000000001304000000000000000000001304        00001    2017030120170331Passageiros
00000011312432968         2017030154PE28  PEUGEOT        208            Gasoleo 1000000000000274000000000000000000000274        00001    2017030120170331Passageiros
00000011312432968         2017030154PE28  PEUGEOT        208            Gasoleo 1000000000001636000000000000000000001636        00001    2017030120170331Passageiros
00000011312432968         2017030154PE28  PEUGEOT        208            Gasoleo 5800000000002710000000000062300000003333        00001    2017030120170331Passageiros
00000011312432968         2017030154PE28  PEUGEOT        208            Gasoleo 5810000000000975000000000022400000001199        00001    2017030120170331Passageiros
00000011312432968         2017030154PE28  PEUGEOT        208            Gasoleo 6200000000000635000000000014600000000781        00001    2017030120170331Passageiros
00000011312432968         2017030154PE28  PEUGEOT        208            Gasoleo 6300000000000058000000000001300000000071        00001    2017030120170331Passageiros
00000011312432968         2017030154PE28  PEUGEOT        208            Gasoleo 6500000000000993000000000022800000001221        00001    2017030120170331Passageiros
00000011312432968         2017030154PE28  PEUGEOT        208            Gasoleo 6700000000000316000000000000000000000316        00001    2017030120170331Passageiros
00000011312432968         2017030154PE28  PEUGEOT        208            Gasoleo 7110000000001000000000000023000000001230        00001    2017030120170331Passageiros
00000011312432968         2017030154PE28  PEUGEOT        208            Gasoleo 7200000000000370000000000008500000000455        00001    2017030120170331Passageiros
00000011312432968         2017030154PE28  PEUGEOT        208            Gasoleo 7300000000000288000000000006600000000354        00001    2017030120170331Passageiros
00000011312432968         2017030154PE28  PEUGEOT        208            Gasoleo 7400000000000069000000000001600000000085        00001    2017030120170331Passageiros
00000011312432968         2017030154PE28  PEUGEOT        208            Gasoleo 9990000000002469000000000056800000003037        00001    2017030120170331Passageiros
00000011312432968         2017030154PE27  PEUGEOT        208            Gasoleo 0110000000006591000000000151600000008107        00001    2017030120170331Passageiros
00000011312432968         2017030154PE27  PEUGEOT        208            Gasoleo 1000000000000255000000000000000000000255        00001    2017030120170331Passageiros
00000011312432968         2017030154PE27  PEUGEOT        208            Gasoleo 1000000000001312000000000000000000001312        00001    2017030120170331Passageiros
00000011312432968         2017030154PE27  PEUGEOT        208            Gasoleo 1000000000000180000000000000000000000180        00001    2017030120170331Passageiros
00000011312432968         2017030154PE27  PEUGEOT        208            Gasoleo 1000000000001304000000000000000000001304        00001    2017030120170331Passageiros
00000011312432968         2017030154PE27  PEUGEOT        208            Gasoleo 1000000000000274000000000000000000000274        00001    2017030120170331Passageiros
00000011312432968         2017030154PE27  PEUGEOT        208            Gasoleo 1000000000001636000000000000000000001636        00001    2017030120170331Passageiros
00000011312432968         2017030154PE27  PEUGEOT        208            Gasoleo 5800000000002710000000000062300000003333        00001    2017030120170331Passageiros
00000011312432968         2017030154PE27  PEUGEOT        208            Gasoleo 5810000000000975000000000022400000001199        00001    2017030120170331Passageiros
00000011312432968         2017030154PE27  PEUGEOT        208            Gasoleo 6200000000000635000000000014600000000781        00001    2017030120170331Passageiros
00000011312432968         2017030154PE27  PEUGEOT        208            Gasoleo 6300000000000058000000000001300000000071        00001    2017030120170331Passageiros
00000011312432968         2017030154PE27  PEUGEOT        208            Gasoleo 6500000000000993000000000022800000001221        00001    2017030120170331Passageiros
00000011312432968         2017030154PE27  PEUGEOT        208            Gasoleo 6700000000000316000000000000000000000316        00001    2017030120170331Passageiros
00000011312432968         2017030154PE27  PEUGEOT        208            Gasoleo 7110000000001000000000000023000000001230        00001    2017030120170331Passageiros
00000011312432968         2017030154PE27  PEUGEOT        208            Gasoleo 7200000000000370000000000008500000000455        00001    2017030120170331Passageiros
00000011312432968         2017030154PE27  PEUGEOT        208            Gasoleo 7300000000000288000000000006600000000354        00001    2017030120170331Passageiros
00000011312432968         2017030154PE27  PEUGEOT        208            Gasoleo 7400000000000069000000000001600000000085        00001    2017030120170331Passageiros
00000011312432968         2017030154PE27  PEUGEOT        208            Gasoleo 9990000000002469000000000056800000003037        00001    2017030120170331Passageiros
00000011312432968         2017030154PE26  PEUGEOT        208            Gasoleo 0110000000006591000000000151600000008107        00001    2017030120170331Passageiros
00000011312432968         2017030154PE26  PEUGEOT        208            Gasoleo 1000000000000255000000000000000000000255        00001    2017030120170331Passageiros
00000011312432968         2017030154PE26  PEUGEOT        208            Gasoleo 1000000000001312000000000000000000001312        00001    2017030120170331Passageiros
00000011312432968         2017030154PE26  PEUGEOT        208            Gasoleo 1000000000000180000000000000000000000180        00001    2017030120170331Passageiros
00000011312432968         2017030154PE26  PEUGEOT        208            Gasoleo 1000000000001304000000000000000000001304        00001    2017030120170331Passageiros
00000011312432968         2017030154PE26  PEUGEOT        208            Gasoleo 1000000000000274000000000000000000000274        00001    2017030120170331Passageiros
00000011312432968         2017030154PE26  PEUGEOT        208            Gasoleo 1000000000001636000000000000000000001636        00001    2017030120170331Passageiros
00000011312432968         2017030154PE26  PEUGEOT        208            Gasoleo 5800000000002710000000000062300000003333        00001    2017030120170331Passageiros
00000011312432968         2017030154PE26  PEUGEOT        208            Gasoleo 5810000000000975000000000022400000001199        00001    2017030120170331Passageiros
00000011312432968         2017030154PE26  PEUGEOT        208            Gasoleo 6200000000000635000000000014600000000781        00001    2017030120170331Passageiros
00000011312432968         2017030154PE26  PEUGEOT        208            Gasoleo 6300000000000058000000000001300000000071        00001    2017030120170331Passageiros
00000011312432968         2017030154PE26  PEUGEOT        208            Gasoleo 6500000000000993000000000022800000001221        00001    2017030120170331Passageiros
00000011312432968         2017030154PE26  PEUGEOT        208            Gasoleo 6700000000000316000000000000000000000316        00001    2017030120170331Passageiros
00000011312432968         2017030154PE26  PEUGEOT        208            Gasoleo 7110000000001000000000000023000000001230        00001    2017030120170331Passageiros
00000011312432968         2017030154PE26  PEUGEOT        208            Gasoleo 7200000000000370000000000008500000000455        00001    2017030120170331Passageiros
00000011312432968         2017030154PE26  PEUGEOT        208            Gasoleo 7300000000000288000000000006600000000354        00001    2017030120170331Passageiros
00000011312432968         2017030154PE26  PEUGEOT        208            Gasoleo 7400000000000069000000000001600000000085        00001    2017030120170331Passageiros
00000011312432968         2017030154PE26  PEUGEOT        208            Gasoleo 9990000000002469000000000056800000003037        00001    2017030120170331Passageiros
00000011312432968         2017030154PE40  PEUGEOT        208            Gasoleo 0110000000006591000000000151600000008107        00001    2017030120170331Passageiros
00000011312432968         2017030154PE40  PEUGEOT        208            Gasoleo 1000000000000255000000000000000000000255        00001    2017030120170331Passageiros
00000011312432968         2017030154PE40  PEUGEOT        208            Gasoleo 1000000000001312000000000000000000001312        00001    2017030120170331Passageiros
00000011312432968         2017030154PE40  PEUGEOT        208            Gasoleo 1000000000000180000000000000000000000180        00001    2017030120170331Passageiros
00000011312432968         2017030154PE40  PEUGEOT        208            Gasoleo 1000000000001304000000000000000000001304        00001    2017030120170331Passageiros
00000011312432968         2017030154PE40  PEUGEOT        208            Gasoleo 1000000000000274000000000000000000000274        00001    2017030120170331Passageiros
00000011312432968         2017030154PE40  PEUGEOT        208            Gasoleo 1000000000001636000000000000000000001636        00001    2017030120170331Passageiros
00000011312432968         2017030154PE40  PEUGEOT        208            Gasoleo 5800000000002710000000000062300000003333        00001    2017030120170331Passageiros
00000011312432968         2017030154PE40  PEUGEOT        208            Gasoleo 5810000000000975000000000022400000001199        00001    2017030120170331Passageiros
00000011312432968         2017030154PE40  PEUGEOT        208            Gasoleo 6200000000000635000000000014600000000781        00001    2017030120170331Passageiros
00000011312432968         2017030154PE40  PEUGEOT        208            Gasoleo 6300000000000058000000000001300000000071        00001    2017030120170331Passageiros
00000011312432968         2017030154PE40  PEUGEOT        208            Gasoleo 6500000000000993000000000022800000001221        00001    2017030120170331Passageiros
00000011312432968         2017030154PE40  PEUGEOT        208            Gasoleo 6700000000000316000000000000000000000316        00001    2017030120170331Passageiros
00000011312432968         2017030154PE40  PEUGEOT        208            Gasoleo 7110000000001000000000000023000000001230        00001    2017030120170331Passageiros
00000011312432968         2017030154PE40  PEUGEOT        208            Gasoleo 7200000000000370000000000008500000000455        00001    2017030120170331Passageiros
00000011312432968         2017030154PE40  PEUGEOT        208            Gasoleo 7300000000000288000000000006600000000354        00001    2017030120170331Passageiros
00000011312432968         2017030154PE40  PEUGEOT        208            Gasoleo 7400000000000069000000000001600000000085        00001    2017030120170331Passageiros
00000011312432968         2017030154PE40  PEUGEOT        208            Gasoleo 9990000000002469000000000056800000003037        00001    2017030120170331Passageiros
00000011312432968         2017030154PE25  PEUGEOT        208            Gasoleo 0110000000006591000000000151600000008107        00001    2017030120170331Passageiros
00000011312432968         2017030154PE25  PEUGEOT        208            Gasoleo 1000000000000255000000000000000000000255        00001    2017030120170331Passageiros
00000011312432968         2017030154PE25  PEUGEOT        208            Gasoleo 1000000000001312000000000000000000001312        00001    2017030120170331Passageiros
00000011312432968         2017030154PE25  PEUGEOT        208            Gasoleo 1000000000000180000000000000000000000180        00001    2017030120170331Passageiros
00000011312432968         2017030154PE25  PEUGEOT        208            Gasoleo 1000000000001304000000000000000000001304        00001    2017030120170331Passageiros
00000011312432968         2017030154PE25  PEUGEOT        208            Gasoleo 1000000000000274000000000000000000000274        00001    2017030120170331Passageiros
00000011312432968         2017030154PE25  PEUGEOT        208            Gasoleo 1000000000001636000000000000000000001636        00001    2017030120170331Passageiros
00000011312432968         2017030154PE25  PEUGEOT        208            Gasoleo 5800000000002710000000000062300000003333        00001    2017030120170331Passageiros
00000011312432968         2017030154PE25  PEUGEOT        208            Gasoleo 5810000000000975000000000022400000001199        00001    2017030120170331Passageiros
00000011312432968         2017030154PE25  PEUGEOT        208            Gasoleo 6200000000000635000000000014600000000781        00001    2017030120170331Passageiros
00000011312432968         2017030154PE25  PEUGEOT        208            Gasoleo 6300000000000058000000000001300000000071        00001    2017030120170331Passageiros
00000011312432968         2017030154PE25  PEUGEOT        208            Gasoleo 6500000000000993000000000022800000001221        00001    2017030120170331Passageiros
00000011312432968         2017030154PE25  PEUGEOT        208            Gasoleo 6700000000000316000000000000000000000316        00001    2017030120170331Passageiros
00000011312432968         2017030154PE25  PEUGEOT        208            Gasoleo 7110000000001000000000000023000000001230        00001    2017030120170331Passageiros
00000011312432968         2017030154PE25  PEUGEOT        208            Gasoleo 7200000000000370000000000008500000000455        00001    2017030120170331Passageiros
00000011312432968         2017030154PE25  PEUGEOT        208            Gasoleo 7300000000000288000000000006600000000354        00001    2017030120170331Passageiros
00000011312432968         2017030154PE25  PEUGEOT        208            Gasoleo 7400000000000069000000000001600000000085        00001    2017030120170331Passageiros
00000011312432968         2017030154PE25  PEUGEOT        208            Gasoleo 9990000000002469000000000056800000003037        00001    2017030120170331Passageiros
00000011312432968         2017030154PE39  PEUGEOT        208            Gasoleo 0110000000006591000000000151600000008107        00001    2017030120170331Passageiros
00000011312432968         2017030154PE39  PEUGEOT        208            Gasoleo 1000000000000255000000000000000000000255        00001    2017030120170331Passageiros
00000011312432968         2017030154PE39  PEUGEOT        208            Gasoleo 1000000000001312000000000000000000001312        00001    2017030120170331Passageiros
00000011312432968         2017030154PE39  PEUGEOT        208            Gasoleo 1000000000000180000000000000000000000180        00001    2017030120170331Passageiros
00000011312432968         2017030154PE39  PEUGEOT        208            Gasoleo 1000000000001304000000000000000000001304        00001    2017030120170331Passageiros
00000011312432968         2017030154PE39  PEUGEOT        208            Gasoleo 1000000000000274000000000000000000000274        00001    2017030120170331Passageiros
00000011312432968         2017030154PE39  PEUGEOT        208            Gasoleo 1000000000001636000000000000000000001636        00001    2017030120170331Passageiros
00000011312432968         2017030154PE39  PEUGEOT        208            Gasoleo 5800000000002710000000000062300000003333        00001    2017030120170331Passageiros
00000011312432968         2017030154PE39  PEUGEOT        208            Gasoleo 5810000000000975000000000022400000001199        00001    2017030120170331Passageiros
00000011312432968         2017030154PE39  PEUGEOT        208            Gasoleo 6200000000000635000000000014600000000781        00001    2017030120170331Passageiros
00000011312432968         2017030154PE39  PEUGEOT        208            Gasoleo 6300000000000058000000000001300000000071        00001    2017030120170331Passageiros
00000011312432968         2017030154PE39  PEUGEOT        208            Gasoleo 6500000000000993000000000022800000001221        00001    2017030120170331Passageiros
00000011312432968         2017030154PE39  PEUGEOT        208            Gasoleo 6700000000000316000000000000000000000316        00001    2017030120170331Passageiros
00000011312432968         2017030154PE39  PEUGEOT        208            Gasoleo 7110000000001000000000000023000000001230        00001    2017030120170331Passageiros
00000011312432968         2017030154PE39  PEUGEOT        208            Gasoleo 7200000000000370000000000008500000000455        00001    2017030120170331Passageiros
00000011312432968         2017030154PE39  PEUGEOT        208            Gasoleo 7300000000000288000000000006600000000354        00001    2017030120170331Passageiros
00000011312432968         2017030154PE39  PEUGEOT        208            Gasoleo 7400000000000069000000000001600000000085        00001    2017030120170331Passageiros
00000011312432968         2017030154PE39  PEUGEOT        208            Gasoleo 9990000000002469000000000056800000003037        00001    2017030120170331Passageiros
00000011312432968         2017030165PD92  PEUGEOT        208            Gasoleo 0110000000006591000000000151600000008107        00001    2017030120170331Passageiros
00000011312432968         2017030165PD92  PEUGEOT        208            Gasoleo 1000000000000255000000000000000000000255        00001    2017030120170331Passageiros
00000011312432968         2017030165PD92  PEUGEOT        208            Gasoleo 1000000000001312000000000000000000001312        00001    2017030120170331Passageiros
00000011312432968         2017030165PD92  PEUGEOT        208            Gasoleo 1000000000000180000000000000000000000180        00001    2017030120170331Passageiros
00000011312432968         2017030165PD92  PEUGEOT        208            Gasoleo 1000000000001304000000000000000000001304        00001    2017030120170331Passageiros
00000011312432968         2017030165PD92  PEUGEOT        208            Gasoleo 1000000000000274000000000000000000000274        00001    2017030120170331Passageiros
00000011312432968         2017030165PD92  PEUGEOT        208            Gasoleo 1000000000001636000000000000000000001636        00001    2017030120170331Passageiros
00000011312432968         2017030165PD92  PEUGEOT        208            Gasoleo 5800000000002710000000000062300000003333        00001    2017030120170331Passageiros
00000011312432968         2017030165PD92  PEUGEOT        208            Gasoleo 5810000000000975000000000022400000001199        00001    2017030120170331Passageiros
00000011312432968         2017030165PD92  PEUGEOT        208            Gasoleo 6200000000000635000000000014600000000781        00001    2017030120170331Passageiros
00000011312432968         2017030165PD92  PEUGEOT        208            Gasoleo 6300000000000058000000000001300000000071        00001    2017030120170331Passageiros
00000011312432968         2017030165PD92  PEUGEOT        208            Gasoleo 6500000000000993000000000022800000001221        00001    2017030120170331Passageiros
00000011312432968         2017030165PD92  PEUGEOT        208            Gasoleo 6700000000000316000000000000000000000316        00001    2017030120170331Passageiros
00000011312432968         2017030165PD92  PEUGEOT        208            Gasoleo 7110000000001000000000000023000000001230        00001    2017030120170331Passageiros
00000011312432968         2017030165PD92  PEUGEOT        208            Gasoleo 7200000000000370000000000008500000000455        00001    2017030120170331Passageiros
00000011312432968         2017030165PD92  PEUGEOT        208            Gasoleo 7300000000000288000000000006600000000354        00001    2017030120170331Passageiros
00000011312432968         2017030165PD92  PEUGEOT        208            Gasoleo 7400000000000069000000000001600000000085        00001    2017030120170331Passageiros
00000011312432968         2017030165PD92  PEUGEOT        208            Gasoleo 9990000000002469000000000056800000003037        00001    2017030120170331Passageiros
00000011312432968         2017030165PD91  PEUGEOT        208            Gasoleo 0110000000006591000000000151600000008107        00001    2017030120170331Passageiros
00000011312432968         2017030165PD91  PEUGEOT        208            Gasoleo 1000000000000255000000000000000000000255        00001    2017030120170331Passageiros
00000011312432968         2017030165PD91  PEUGEOT        208            Gasoleo 1000000000001312000000000000000000001312        00001    2017030120170331Passageiros
00000011312432968         2017030165PD91  PEUGEOT        208            Gasoleo 1000000000000180000000000000000000000180        00001    2017030120170331Passageiros
00000011312432968         2017030165PD91  PEUGEOT        208            Gasoleo 1000000000001304000000000000000000001304        00001    2017030120170331Passageiros
00000011312432968         2017030165PD91  PEUGEOT        208            Gasoleo 1000000000000274000000000000000000000274        00001    2017030120170331Passageiros
00000011312432968         2017030165PD91  PEUGEOT        208            Gasoleo 1000000000001636000000000000000000001636        00001    2017030120170331Passageiros
00000011312432968         2017030165PD91  PEUGEOT        208            Gasoleo 5800000000002710000000000062300000003333        00001    2017030120170331Passageiros
00000011312432968         2017030165PD91  PEUGEOT        208            Gasoleo 5810000000000975000000000022400000001199        00001    2017030120170331Passageiros
00000011312432968         2017030165PD91  PEUGEOT        208            Gasoleo 6200000000000635000000000014600000000781        00001    2017030120170331Passageiros
00000011312432968         2017030165PD91  PEUGEOT        208            Gasoleo 6300000000000058000000000001300000000071        00001    2017030120170331Passageiros
00000011312432968         2017030165PD91  PEUGEOT        208            Gasoleo 6500000000000993000000000022800000001221        00001    2017030120170331Passageiros
00000011312432968         2017030165PD91  PEUGEOT        208            Gasoleo 6700000000000316000000000000000000000316        00001    2017030120170331Passageiros
00000011312432968         2017030165PD91  PEUGEOT        208            Gasoleo 7110000000001000000000000023000000001230        00001    2017030120170331Passageiros
00000011312432968         2017030165PD91  PEUGEOT        208            Gasoleo 7200000000000370000000000008500000000455        00001    2017030120170331Passageiros
00000011312432968         2017030165PD91  PEUGEOT        208            Gasoleo 7300000000000288000000000006600000000354        00001    2017030120170331Passageiros
00000011312432968         2017030165PD91  PEUGEOT        208            Gasoleo 7400000000000069000000000001600000000085        00001    2017030120170331Passageiros
00000011312432968         2017030165PD91  PEUGEOT        208            Gasoleo 9990000000002469000000000056800000003037        00001    2017030120170331Passageiros
00000011312432968         2017030166PD03  PEUGEOT        208            Gasoleo 0110000000006591000000000151600000008107        00001    2017030120170331Passageiros
00000011312432968         2017030166PD03  PEUGEOT        208            Gasoleo 1000000000000255000000000000000000000255        00001    2017030120170331Passageiros
00000011312432968         2017030166PD03  PEUGEOT        208            Gasoleo 1000000000001312000000000000000000001312        00001    2017030120170331Passageiros
00000011312432968         2017030166PD03  PEUGEOT        208            Gasoleo 1000000000000180000000000000000000000180        00001    2017030120170331Passageiros
00000011312432968         2017030166PD03  PEUGEOT        208            Gasoleo 1000000000001304000000000000000000001304        00001    2017030120170331Passageiros
00000011312432968         2017030166PD03  PEUGEOT        208            Gasoleo 1000000000000274000000000000000000000274        00001    2017030120170331Passageiros
00000011312432968         2017030166PD03  PEUGEOT        208            Gasoleo 1000000000001636000000000000000000001636        00001    2017030120170331Passageiros
00000011312432968         2017030166PD03  PEUGEOT        208            Gasoleo 5800000000002710000000000062300000003333        00001    2017030120170331Passageiros
00000011312432968         2017030166PD03  PEUGEOT        208            Gasoleo 5810000000000975000000000022400000001199        00001    2017030120170331Passageiros
00000011312432968         2017030166PD03  PEUGEOT        208            Gasoleo 6200000000000635000000000014600000000781        00001    2017030120170331Passageiros
00000011312432968         2017030166PD03  PEUGEOT        208            Gasoleo 6300000000000058000000000001300000000071        00001    2017030120170331Passageiros
00000011312432968         2017030166PD03  PEUGEOT        208            Gasoleo 6500000000000993000000000022800000001221        00001    2017030120170331Passageiros
00000011312432968         2017030166PD03  PEUGEOT        208            Gasoleo 6700000000000316000000000000000000000316        00001    2017030120170331Passageiros
00000011312432968         2017030166PD03  PEUGEOT        208            Gasoleo 7110000000001000000000000023000000001230        00001    2017030120170331Passageiros
00000011312432968         2017030166PD03  PEUGEOT        208            Gasoleo 7200000000000370000000000008500000000455        00001    2017030120170331Passageiros
00000011312432968         2017030166PD03  PEUGEOT        208            Gasoleo 7300000000000288000000000006600000000354        00001    2017030120170331Passageiros
00000011312432968         2017030166PD03  PEUGEOT        208            Gasoleo 7400000000000069000000000001600000000085        00001    2017030120170331Passageiros
00000011312432968         2017030166PD03  PEUGEOT        208            Gasoleo 9990000000002469000000000056800000003037        00001    2017030120170331Passageiros
00000011312432968         2017030165PD85  PEUGEOT        208            Gasoleo 0110000000006591000000000151600000008107        00001    2017030120170331Passageiros
00000011312432968         2017030165PD85  PEUGEOT        208            Gasoleo 1000000000000255000000000000000000000255        00001    2017030120170331Passageiros
00000011312432968         2017030165PD85  PEUGEOT        208            Gasoleo 1000000000001312000000000000000000001312        00001    2017030120170331Passageiros
00000011312432968         2017030165PD85  PEUGEOT        208            Gasoleo 1000000000000180000000000000000000000180        00001    2017030120170331Passageiros
00000011312432968         2017030165PD85  PEUGEOT        208            Gasoleo 1000000000001304000000000000000000001304        00001    2017030120170331Passageiros
00000011312432968         2017030165PD85  PEUGEOT        208            Gasoleo 1000000000000274000000000000000000000274        00001    2017030120170331Passageiros
00000011312432968         2017030165PD85  PEUGEOT        208            Gasoleo 1000000000001636000000000000000000001636        00001    2017030120170331Passageiros
00000011312432968         2017030165PD85  PEUGEOT        208            Gasoleo 5800000000002710000000000062300000003333        00001    2017030120170331Passageiros
