00000011312397113         2017010199LS70  AUDI           A4 AVANT (B8)  Gasoleo 0110000000032270000000000742200000039692        00001    2017010120170131Passageiros
00000011312397113         2017010199LS70  AUDI           A4 AVANT (B8)  Gasoleo 1000000000000597000000000000000000000597        00001    2017010120170131Passageiros
00000011312397113         2017010199LS70  AUDI           A4 AVANT (B8)  Gasoleo 1000000000001536000000000000000000001536        00001    2017010120170131Passageiros
00000011312397113         2017010199LS70  AUDI           A4 AVANT (B8)  Gasoleo 1000000000000100000000000000000000000100        00001    2017010120170131Passageiros
00000011312397113         2017010199LS70  AUDI           A4 AVANT (B8)  Gasoleo 1000000000000166000000000000000000000166        00001    2017010120170131Passageiros
00000011312397113         2017010199LS70  AUDI           A4 AVANT (B8)  Gasoleo 1000000000000175000000000000000000000175        00001    2017010120170131Passageiros
00000011312397113         2017010199LS70  AUDI           A4 AVANT (B8)  Gasoleo 1000000000000100000000000000000000000100        00001    2017010120170131Passageiros
00000011312397113         2017010199LS70  AUDI           A4 AVANT (B8)  Gasoleo 5800000000004149000000000095400000005103        00001    2017010120170131Passageiros
00000011312397113         2017010199LS70  AUDI           A4 AVANT (B8)  Gasoleo 5810000000002707000000000062300000003330        00001    2017010120170131Passageiros
00000011312397113         2017010199LS70  AUDI           A4 AVANT (B8)  Gasoleo 6300000000000045000000000001000000000055        00001    2017010120170131Passageiros
00000011312397113         2017010199LS70  AUDI           A4 AVANT (B8)  Gasoleo 6500000000001831000000000042100000002252        00001    2017010120170131Passageiros
00000011312397113         2017010199LS70  AUDI           A4 AVANT (B8)  Gasoleo 6700000000000316000000000000000000000316        00001    2017010120170131Passageiros
00000011312397113         2017010199LS70  AUDI           A4 AVANT (B8)  Gasoleo 7110000000001000000000000023000000001230        00001    2017010120170131Passageiros
00000011312397113         2017010199LS70  AUDI           A4 AVANT (B8)  Gasoleo 5800000000000744000000000017100000000915        00001    2017010120170131Passageiros
00000011312397113         2017010199LS70  AUDI           A4 AVANT (B8)  Gasoleo 5810000000000553000000000012700000000680        00001    2017010120170131Passageiros
00000011312397113         2017010199LS70  AUDI           A4 AVANT (B8)  Gasoleo 7300000000000237000000000005500000000292        00001    2017010120170131Passageiros
00000011312397113         2017010199LS70  AUDI           A4 AVANT (B8)  Gasoleo 7400000000000050000000000001200000000062        00001    2017010120170131Passageiros
00000011312397113         2017010199LS70  AUDI           A4 AVANT (B8)  Gasoleo 9990000000015259000000000351000000018769        00001    2017010120170131Passageiros
00000011312397113         2017010104NA18  FIAT           FIORINO (225)  Gasoleo 0110000000014760000000000339500000018155        00001    2017010120170131Mercadorias
00000011312397113         2017010104NA18  FIAT           FIORINO (225)  Gasoleo 1000000000000148000000000000000000000148        00001    2017010120170131Mercadorias
00000011312397113         2017010104NA18  FIAT           FIORINO (225)  Gasoleo 1000000000000759000000000000000000000759        00001    2017010120170131Mercadorias
00000011312397113         2017010104NA18  FIAT           FIORINO (225)  Gasoleo 1000000000000100000000000000000000000100        00001    2017010120170131Mercadorias
00000011312397113         2017010104NA18  FIAT           FIORINO (225)  Gasoleo 1000000000001414000000000000000000001414        00001    2017010120170131Mercadorias
00000011312397113         2017010104NA18  FIAT           FIORINO (225)  Gasoleo 1000000000000175000000000000000000000175        00001    2017010120170131Mercadorias
00000011312397113         2017010104NA18  FIAT           FIORINO (225)  Gasoleo 1000000000000100000000000000000000000100        00001    2017010120170131Mercadorias
00000011312397113         2017010104NA18  FIAT           FIORINO (225)  Gasoleo 5800000000003123000000000071800000003841        00001    2017010120170131Mercadorias
00000011312397113         2017010104NA18  FIAT           FIORINO (225)  Gasoleo 5810000000001440000000000033100000001771        00001    2017010120170131Mercadorias
00000011312397113         2017010104NA18  FIAT           FIORINO (225)  Gasoleo 6200000000000629000000000014500000000774        00001    2017010120170131Mercadorias
00000011312397113         2017010104NA18  FIAT           FIORINO (225)  Gasoleo 6500000000000218000000000005000000000268        00001    2017010120170131Mercadorias
00000011312397113         2017010104NA18  FIAT           FIORINO (225)  Gasoleo 6700000000000316000000000000000000000316        00001    2017010120170131Mercadorias
00000011312397113         2017010104NA18  FIAT           FIORINO (225)  Gasoleo 7110000000000500000000000011500000000615        00001    2017010120170131Mercadorias
00000011312397113         2017010104NA18  FIAT           FIORINO (225)  Gasoleo 7200000000000367000000000008400000000451        00001    2017010120170131Mercadorias
00000011312397113         2017010104NA18  FIAT           FIORINO (225)  Gasoleo 7300000000000237000000000005500000000292        00001    2017010120170131Mercadorias
00000011312397113         2017010104NA18  FIAT           FIORINO (225)  Gasoleo 7400000000000050000000000001200000000062        00001    2017010120170131Mercadorias
00000011312397113         2017010104NA18  FIAT           FIORINO (225)  Gasoleo 9990000000003543000000000081500000004358        00001    2017010120170131Mercadorias
00000011312397113         2017010104NA12  FIAT           FIORINO (225)  Gasoleo 0110000000016388000000000376900000020157        00001    2017010120170131Mercadorias
00000011312397113         2017010104NA12  FIAT           FIORINO (225)  Gasoleo 1000000000000148000000000000000000000148        00001    2017010120170131Mercadorias
00000011312397113         2017010104NA12  FIAT           FIORINO (225)  Gasoleo 1000000000000759000000000000000000000759        00001    2017010120170131Mercadorias
00000011312397113         2017010104NA12  FIAT           FIORINO (225)  Gasoleo 1000000000000100000000000000000000000100        00001    2017010120170131Mercadorias
00000011312397113         2017010104NA12  FIAT           FIORINO (225)  Gasoleo 1000000000001414000000000000000000001414        00001    2017010120170131Mercadorias
00000011312397113         2017010104NA12  FIAT           FIORINO (225)  Gasoleo 1000000000000175000000000000000000000175        00001    2017010120170131Mercadorias
00000011312397113         2017010104NA12  FIAT           FIORINO (225)  Gasoleo 1000000000000100000000000000000000000100        00001    2017010120170131Mercadorias
00000011312397113         2017010104NA12  FIAT           FIORINO (225)  Gasoleo 5800000000004711000000000108400000005795        00001    2017010120170131Mercadorias
00000011312397113         2017010104NA12  FIAT           FIORINO (225)  Gasoleo 5810000000001807000000000041600000002223        00001    2017010120170131Mercadorias
00000011312397113         2017010104NA12  FIAT           FIORINO (225)  Gasoleo 6200000000000629000000000014500000000774        00001    2017010120170131Mercadorias
00000011312397113         2017010104NA12  FIAT           FIORINO (225)  Gasoleo 6300000000000169000000000003900000000208        00001    2017010120170131Mercadorias
00000011312397113         2017010104NA12  FIAT           FIORINO (225)  Gasoleo 6500000000000218000000000005000000000268        00001    2017010120170131Mercadorias
00000011312397113         2017010104NA12  FIAT           FIORINO (225)  Gasoleo 6700000000000316000000000000000000000316        00001    2017010120170131Mercadorias
00000011312397113         2017010104NA12  FIAT           FIORINO (225)  Gasoleo 7110000000000500000000000011500000000615        00001    2017010120170131Mercadorias
00000011312397113         2017010104NA12  FIAT           FIORINO (225)  Gasoleo 7200000000000367000000000008400000000451        00001    2017010120170131Mercadorias
00000011312397113         2017010104NA12  FIAT           FIORINO (225)  Gasoleo 7300000000000237000000000005500000000292        00001    2017010120170131Mercadorias
00000011312397113         2017010104NA12  FIAT           FIORINO (225)  Gasoleo 7400000000000050000000000001200000000062        00001    2017010120170131Mercadorias
00000011312397113         2017010104NA12  FIAT           FIORINO (225)  Gasoleo 9990000000003360000000000077300000004133        00001    2017010120170131Mercadorias
00000011312397113         2017010197NA00  VW             POLO VAN       Gasoleo 0110000000013401000000000308200000016483        00005    2017010120170131Mercadorias
00000011312397113         2017010197NA00  VW             POLO VAN       Gasoleo 1000000000000194000000000000000000000194        00005    2017010120170131Mercadorias
00000011312397113         2017010197NA00  VW             POLO VAN       Gasoleo 1000000000001086000000000000000000001086        00005    2017010120170131Mercadorias
00000011312397113         2017010197NA00  VW             POLO VAN       Gasoleo 1000000000000100000000000000000000000100        00005    2017010120170131Mercadorias
00000011312397113         2017010197NA00  VW             POLO VAN       Gasoleo 1000000000000933000000000000000000000933        00005    2017010120170131Mercadorias
00000011312397113         2017010197NA00  VW             POLO VAN       Gasoleo 1000000000000175000000000000000000000175        00005    2017010120170131Mercadorias
00000011312397113         2017010197NA00  VW             POLO VAN       Gasoleo 1000000000000100000000000000000000000100        00005    2017010120170131Mercadorias
00000011312397113         2017010197NA00  VW             POLO VAN       Gasoleo 5800000000002830000000000065100000003481        00005    2017010120170131Mercadorias
00000011312397113         2017010197NA00  VW             POLO VAN       Gasoleo 5810000000001813000000000041700000002230        00005    2017010120170131Mercadorias
00000011312397113         2017010197NA00  VW             POLO VAN       Gasoleo 6200000000000629000000000014500000000774        00005    2017010120170131Mercadorias
00000011312397113         2017010197NA00  VW             POLO VAN       Gasoleo 6500000000000218000000000005000000000268        00005    2017010120170131Mercadorias
00000011312397113         2017010197NA00  VW             POLO VAN       Gasoleo 6700000000000316000000000000000000000316        00005    2017010120170131Mercadorias
00000011312397113         2017010197NA00  VW             POLO VAN       Gasoleo 7110000000000500000000000011500000000615        00005    2017010120170131Mercadorias
00000011312397113         2017010197NA00  VW             POLO VAN       Gasoleo 7200000000000367000000000008400000000451        00005    2017010120170131Mercadorias
00000011312397113         2017010197NA00  VW             POLO VAN       Gasoleo 7300000000000237000000000005500000000292        00005    2017010120170131Mercadorias
00000011312397113         2017010197NA00  VW             POLO VAN       Gasoleo 7400000000000050000000000001200000000062        00005    2017010120170131Mercadorias
00000011312397113         2017010197NA00  VW             POLO VAN       Gasoleo 9990000000004756000000000109400000005850        00005    2017010120170131Mercadorias
00000011312397113         2017010120NB94  VW             POLO VAN       Gasoleo 0110000000013401000000000308200000016483        00001    2017010120170131Mercadorias
00000011312397113         2017010120NB94  VW             POLO VAN       Gasoleo 1000000000000194000000000000000000000194        00001    2017010120170131Mercadorias
00000011312397113         2017010120NB94  VW             POLO VAN       Gasoleo 1000000000001086000000000000000000001086        00001    2017010120170131Mercadorias
00000011312397113         2017010120NB94  VW             POLO VAN       Gasoleo 1000000000000100000000000000000000000100        00001    2017010120170131Mercadorias
00000011312397113         2017010120NB94  VW             POLO VAN       Gasoleo 1000000000000933000000000000000000000933        00001    2017010120170131Mercadorias
00000011312397113         2017010120NB94  VW             POLO VAN       Gasoleo 1000000000000175000000000000000000000175        00001    2017010120170131Mercadorias
00000011312397113         2017010120NB94  VW             POLO VAN       Gasoleo 1000000000000100000000000000000000000100        00001    2017010120170131Mercadorias
00000011312397113         2017010120NB94  VW             POLO VAN       Gasoleo 5800000000002830000000000065100000003481        00001    2017010120170131Mercadorias
00000011312397113         2017010120NB94  VW             POLO VAN       Gasoleo 5810000000001813000000000041700000002230        00001    2017010120170131Mercadorias
00000011312397113         2017010120NB94  VW             POLO VAN       Gasoleo 6200000000000629000000000014500000000774        00001    2017010120170131Mercadorias
00000011312397113         2017010120NB94  VW             POLO VAN       Gasoleo 6500000000000218000000000005000000000268        00001    2017010120170131Mercadorias
00000011312397113         2017010120NB94  VW             POLO VAN       Gasoleo 6700000000000316000000000000000000000316        00001    2017010120170131Mercadorias
00000011312397113         2017010120NB94  VW             POLO VAN       Gasoleo 7110000000000500000000000011500000000615        00001    2017010120170131Mercadorias
00000011312397113         2017010120NB94  VW             POLO VAN       Gasoleo 7200000000000367000000000008400000000451        00001    2017010120170131Mercadorias
00000011312397113         2017010120NB94  VW             POLO VAN       Gasoleo 7300000000000237000000000005500000000292        00001    2017010120170131Mercadorias
00000011312397113         2017010120NB94  VW             POLO VAN       Gasoleo 7400000000000050000000000001200000000062        00001    2017010120170131Mercadorias
00000011312397113         2017010120NB94  VW             POLO VAN       Gasoleo 9990000000004756000000000109400000005850        00001    2017010120170131Mercadorias
00000011312397113         2017010123NC42  VW             POLO (6R1)     Gasoleo 0110000000006653000000000153000000008183        00005    2017010120170131Passageiros
00000011312397113         2017010123NC42  VW             POLO (6R1)     Gasoleo 1000000000000218000000000000000000000218        00005    2017010120170131Passageiros
00000011312397113         2017010123NC42  VW             POLO (6R1)     Gasoleo 1000000000001123000000000000000000001123        00005    2017010120170131Passageiros
00000011312397113         2017010123NC42  VW             POLO (6R1)     Gasoleo 1000000000000100000000000000000000000100        00005    2017010120170131Passageiros
00000011312397113         2017010123NC42  VW             POLO (6R1)     Gasoleo 1000000000000930000000000000000000000930        00005    2017010120170131Passageiros
00000011312397113         2017010123NC42  VW             POLO (6R1)     Gasoleo 1000000000000175000000000000000000000175        00005    2017010120170131Passageiros
00000011312397113         2017010123NC42  VW             POLO (6R1)     Gasoleo 1000000000000100000000000000000000000100        00005    2017010120170131Passageiros
00000011312397113         2017010123NC42  VW             POLO (6R1)     Gasoleo 5800000000002660000000000061200000003272        00005    2017010120170131Passageiros
00000011312397113         2017010123NC42  VW             POLO (6R1)     Gasoleo 5810000000001705000000000039200000002097        00005    2017010120170131Passageiros
00000011312397113         2017010123NC42  VW             POLO (6R1)     Gasoleo 6200000000000629000000000014500000000774        00005    2017010120170131Passageiros
00000011312397113         2017010123NC42  VW             POLO (6R1)     Gasoleo 6500000000000678000000000015600000000834        00005    2017010120170131Passageiros
00000011312397113         2017010123NC42  VW             POLO (6R1)     Gasoleo 6700000000000316000000000000000000000316        00005    2017010120170131Passageiros
00000011312397113         2017010123NC42  VW             POLO (6R1)     Gasoleo 7110000000000500000000000011500000000615        00005    2017010120170131Passageiros
00000011312397113         2017010123NC42  VW             POLO (6R1)     Gasoleo 7200000000000367000000000008400000000451        00005    2017010120170131Passageiros
00000011312397113         2017010123NC42  VW             POLO (6R1)     Gasoleo 7300000000000237000000000005500000000292        00005    2017010120170131Passageiros
00000011312397113         2017010123NC42  VW             POLO (6R1)     Gasoleo 7400000000000050000000000001200000000062        00005    2017010120170131Passageiros
00000011312397113         2017010123NC42  VW             POLO (6R1)     Gasoleo 9990000000004922000000000113200000006054        00005    2017010120170131Passageiros
00000011312397113         2017010106NB82  VW             POLO (6R1)     Gasoleo 0110000000008846000000000203500000010881        00001    2017010120170131Passageiros
00000011312397113         2017010106NB82  VW             POLO (6R1)     Gasoleo 1000000000000217000000000000000000000217        00001    2017010120170131Passageiros
00000011312397113         2017010106NB82  VW             POLO (6R1)     Gasoleo 1000000000001116000000000000000000001116        00001    2017010120170131Passageiros
00000011312397113         2017010106NB82  VW             POLO (6R1)     Gasoleo 1000000000000100000000000000000000000100        00001    2017010120170131Passageiros
00000011312397113         2017010106NB82  VW             POLO (6R1)     Gasoleo 1000000000000931000000000000000000000931        00001    2017010120170131Passageiros
00000011312397113         2017010106NB82  VW             POLO (6R1)     Gasoleo 1000000000000175000000000000000000000175        00001    2017010120170131Passageiros
00000011312397113         2017010106NB82  VW             POLO (6R1)     Gasoleo 1000000000000100000000000000000000000100        00001    2017010120170131Passageiros
00000011312397113         2017010106NB82  VW             POLO (6R1)     Gasoleo 5800000000004057000000000093300000004990        00001    2017010120170131Passageiros
00000011312397113         2017010106NB82  VW             POLO (6R1)     Gasoleo 5810000000002411000000000055500000002966        00001    2017010120170131Passageiros
00000011312397113         2017010106NB82  VW             POLO (6R1)     Gasoleo 6200000000000629000000000014500000000774        00001    2017010120170131Passageiros
00000011312397113         2017010106NB82  VW             POLO (6R1)     Gasoleo 6300000000000058000000000001300000000071        00001    2017010120170131Passageiros
00000011312397113         2017010106NB82  VW             POLO (6R1)     Gasoleo 6500000000000678000000000015600000000834        00001    2017010120170131Passageiros
00000011312397113         2017010106NB82  VW             POLO (6R1)     Gasoleo 6700000000000316000000000000000000000316        00001    2017010120170131Passageiros
00000011312397113         2017010106NB82  VW             POLO (6R1)     Gasoleo 7110000000000500000000000011500000000615        00001    2017010120170131Passageiros
00000011312397113         2017010106NB82  VW             POLO (6R1)     Gasoleo 7200000000000367000000000008400000000451        00001    2017010120170131Passageiros
00000011312397113         2017010106NB82  VW             POLO (6R1)     Gasoleo 7300000000000237000000000005500000000292        00001    2017010120170131Passageiros
00000011312397113         2017010106NB82  VW             POLO (6R1)     Gasoleo 7400000000000050000000000001200000000062        00001    2017010120170131Passageiros
00000011312397113         2017010106NB82  VW             POLO (6R1)     Gasoleo 9990000000004665000000000107300000005738        00001    2017010120170131Passageiros
00000011312397113         2017010106NB76  VW             POLO (6R1)     Gasoleo 0110000000009192000000000211400000011306        00001    2017010120170131Passageiros
00000011312397113         2017010106NB76  VW             POLO (6R1)     Gasoleo 1000000000000217000000000000000000000217        00001    2017010120170131Passageiros
00000011312397113         2017010106NB76  VW             POLO (6R1)     Gasoleo 1000000000001117000000000000000000001117        00001    2017010120170131Passageiros
00000011312397113         2017010106NB76  VW             POLO (6R1)     Gasoleo 1000000000000100000000000000000000000100        00001    2017010120170131Passageiros
00000011312397113         2017010106NB76  VW             POLO (6R1)     Gasoleo 1000000000000931000000000000000000000931        00001    2017010120170131Passageiros
00000011312397113         2017010106NB76  VW             POLO (6R1)     Gasoleo 1000000000000175000000000000000000000175        00001    2017010120170131Passageiros
00000011312397113         2017010106NB76  VW             POLO (6R1)     Gasoleo 1000000000000100000000000000000000000100        00001    2017010120170131Passageiros
00000011312397113         2017010106NB76  VW             POLO (6R1)     Gasoleo 5800000000004510000000000103700000005547        00001    2017010120170131Passageiros
00000011312397113         2017010106NB76  VW             POLO (6R1)     Gasoleo 5810000000002608000000000060000000003208        00001    2017010120170131Passageiros
00000011312397113         2017010106NB76  VW             POLO (6R1)     Gasoleo 6200000000000629000000000014500000000774        00001    2017010120170131Passageiros
00000011312397113         2017010106NB76  VW             POLO (6R1)     Gasoleo 6300000000000058000000000001300000000071        00001    2017010120170131Passageiros
00000011312397113         2017010106NB76  VW             POLO (6R1)     Gasoleo 6500000000000678000000000015600000000834        00001    2017010120170131Passageiros
00000011312397113         2017010106NB76  VW             POLO (6R1)     Gasoleo 6700000000000316000000000000000000000316        00001    2017010120170131Passageiros
00000011312397113         2017010106NB76  VW             POLO (6R1)     Gasoleo 7110000000000500000000000011500000000615        00001    2017010120170131Passageiros
00000011312397113         2017010106NB76  VW             POLO (6R1)     Gasoleo 7200000000000367000000000008400000000451        00001    2017010120170131Passageiros
00000011312397113         2017010106NB76  VW             POLO (6R1)     Gasoleo 7300000000000237000000000005500000000292        00001    2017010120170131Passageiros
00000011312397113         2017010106NB76  VW             POLO (6R1)     Gasoleo 7400000000000050000000000001200000000062        00001    2017010120170131Passageiros
00000011312397113         2017010106NB76  VW             POLO (6R1)     Gasoleo 9990000000004624000000000106400000005688        00001    2017010120170131Passageiros
00000011312397113         2017010182NN40  VW             PASSAT VARIANT Gasoleo 0110000000028672000000000659500000035267        00005    2017010120170131Passageiros
00000011312397113         2017010182NN40  VW             PASSAT VARIANT Gasoleo 1000000000000563000000000000000000000563        00005    2017010120170131Passageiros
00000011312397113         2017010182NN40  VW             PASSAT VARIANT Gasoleo 1000000000001448000000000000000000001448        00005    2017010120170131Passageiros
00000011312397113         2017010182NN40  VW             PASSAT VARIANT Gasoleo 1000000000000180000000000000000000000180        00005    2017010120170131Passageiros
00000011312397113         2017010182NN40  VW             PASSAT VARIANT Gasoleo 1000000000000181000000000000000000000181        00005    2017010120170131Passageiros
00000011312397113         2017010182NN40  VW             PASSAT VARIANT Gasoleo 1000000000000175000000000000000000000175        00005    2017010120170131Passageiros
00000011312397113         2017010182NN40  VW             PASSAT VARIANT Gasoleo 1000000000000100000000000000000000000100        00005    2017010120170131Passageiros
00000011312397113         2017010182NN40  VW             PASSAT VARIANT Gasoleo 5800000000004058000000000093300000004991        00005    2017010120170131Passageiros
00000011312397113         2017010182NN40  VW             PASSAT VARIANT Gasoleo 5810000000002675000000000061500000003290        00005    2017010120170131Passageiros
00000011312397113         2017010182NN40  VW             PASSAT VARIANT Gasoleo 6200000000001429000000000032900000001758        00005    2017010120170131Passageiros
00000011312397113         2017010182NN40  VW             PASSAT VARIANT Gasoleo 6500000000001595000000000036700000001962        00005    2017010120170131Passageiros
00000011312397113         2017010182NN40  VW             PASSAT VARIANT Gasoleo 6700000000000316000000000000000000000316        00005    2017010120170131Passageiros
00000011312397113         2017010182NN40  VW             PASSAT VARIANT Gasoleo 7110000000001000000000000023000000001230        00005    2017010120170131Passageiros
00000011312397113         2017010182NN40  VW             PASSAT VARIANT Gasoleo 7200000000000650000000000015000000000800        00005    2017010120170131Passageiros
00000011312397113         2017010182NN40  VW             PASSAT VARIANT Gasoleo 7300000000000237000000000005500000000292        00005    2017010120170131Passageiros
00000011312397113         2017010182NN40  VW             PASSAT VARIANT Gasoleo 7400000000000050000000000001200000000062        00005    2017010120170131Passageiros
00000011312397113         2017010182NN40  VW             PASSAT VARIANT Gasoleo 9990000000010968000000000252300000013491        00005    2017010120170131Passageiros
00000011312397113         2017010190OC86  VW             POLO VAN       Gasoleo 0110000000018108000000000416500000022273        00001    2017010120170131Mercadorias
00000011312397113         2017010190OC86  VW             POLO VAN       Gasoleo 1000000000001431000000000000000000001431        00001    2017010120170131Mercadorias
00000011312397113         2017010190OC86  VW             POLO VAN       Gasoleo 1000000000000180000000000000000000000180        00001    2017010120170131Mercadorias
00000011312397113         2017010190OC86  VW             POLO VAN       Gasoleo 1000000000000905000000000000000000000905        00001    2017010120170131Mercadorias
00000011312397113         2017010190OC86  VW             POLO VAN       Gasoleo 1000000000000175000000000000000000000175        00001    2017010120170131Mercadorias
00000011312397113         2017010190OC86  VW             POLO VAN       Gasoleo 1000000000000100000000000000000000000100        00001    2017010120170131Mercadorias
00000011312397113         2017010190OC86  VW             POLO VAN       Gasoleo 5800000000002215000000000050900000002724        00001    2017010120170131Mercadorias
00000011312397113         2017010190OC86  VW             POLO VAN       Gasoleo 5810000000001288000000000029600000001584        00001    2017010120170131Mercadorias
00000011312397113         2017010190OC86  VW             POLO VAN       Gasoleo 6200000000000629000000000014500000000774        00001    2017010120170131Mercadorias
00000011312397113         2017010190OC86  VW             POLO VAN       Gasoleo 6300000000000169000000000003900000000208        00001    2017010120170131Mercadorias
00000011312397113         2017010190OC86  VW             POLO VAN       Gasoleo 6500000000000225000000000005200000000277        00001    2017010120170131Mercadorias
00000011312397113         2017010190OC86  VW             POLO VAN       Gasoleo 6700000000000316000000000000000000000316        00001    2017010120170131Mercadorias
00000011312397113         2017010190OC86  VW             POLO VAN       Gasoleo 7110000000001000000000000023000000001230        00001    2017010120170131Mercadorias
00000011312397113         2017010190OC86  VW             POLO VAN       Gasoleo 7200000000000367000000000008400000000451        00001    2017010120170131Mercadorias
00000011312397113         2017010190OC86  VW             POLO VAN       Gasoleo 7300000000000237000000000005500000000292        00001    2017010120170131Mercadorias
00000011312397113         2017010190OC86  VW             POLO VAN       Gasoleo 7400000000000050000000000001200000000062        00001    2017010120170131Mercadorias
00000011312397113         2017010190OC86  VW             POLO VAN       Gasoleo 9990000000003087000000000071000000003797        00001    2017010120170131Mercadorias
00000011312397113         2017010102OD22  VW             POLO VAN       Gasoleo 0110000000018108000000000416500000022273        00001    2017010120170131Mercadorias
00000011312397113         2017010102OD22  VW             POLO VAN       Gasoleo 1000000000001441000000000000000000001441        00001    2017010120170131Mercadorias
00000011312397113         2017010102OD22  VW             POLO VAN       Gasoleo 1000000000000180000000000000000000000180        00001    2017010120170131Mercadorias
00000011312397113         2017010102OD22  VW             POLO VAN       Gasoleo 1000000000000904000000000000000000000904        00001    2017010120170131Mercadorias
00000011312397113         2017010102OD22  VW             POLO VAN       Gasoleo 1000000000000175000000000000000000000175        00001    2017010120170131Mercadorias
00000011312397113         2017010102OD22  VW             POLO VAN       Gasoleo 1000000000000100000000000000000000000100        00001    2017010120170131Mercadorias
00000011312397113         2017010102OD22  VW             POLO VAN       Gasoleo 5800000000002215000000000050900000002724        00001    2017010120170131Mercadorias
00000011312397113         2017010102OD22  VW             POLO VAN       Gasoleo 5810000000001288000000000029600000001584        00001    2017010120170131Mercadorias
00000011312397113         2017010102OD22  VW             POLO VAN       Gasoleo 6200000000000629000000000014500000000774        00001    2017010120170131Mercadorias
00000011312397113         2017010102OD22  VW             POLO VAN       Gasoleo 6300000000000169000000000003900000000208        00001    2017010120170131Mercadorias
00000011312397113         2017010102OD22  VW             POLO VAN       Gasoleo 6500000000000225000000000005200000000277        00001    2017010120170131Mercadorias
00000011312397113         2017010102OD22  VW             POLO VAN       Gasoleo 6700000000000316000000000000000000000316        00001    2017010120170131Mercadorias
00000011312397113         2017010102OD22  VW             POLO VAN       Gasoleo 7110000000001000000000000023000000001230        00001    2017010120170131Mercadorias
00000011312397113         2017010102OD22  VW             POLO VAN       Gasoleo 7200000000000367000000000008400000000451        00001    2017010120170131Mercadorias
00000011312397113         2017010102OD22  VW             POLO VAN       Gasoleo 7300000000000237000000000005500000000292        00001    2017010120170131Mercadorias
00000011312397113         2017010102OD22  VW             POLO VAN       Gasoleo 7400000000000050000000000001200000000062        00001    2017010120170131Mercadorias
00000011312397113         2017010102OD22  VW             POLO VAN       Gasoleo 9990000000003087000000000071000000003797        00001    2017010120170131Mercadorias
00000011312397113         2017010166PB84  FIAT           FIORINO (225)  Gasoleo 0110000000014197000000000326500000017462        00001    2017010120170131Mercadorias
00000011312397113         2017010166PB84  FIAT           FIORINO (225)  Gasoleo 1000000000001272000000000000000000001272        00001    2017010120170131Mercadorias
00000011312397113         2017010166PB84  FIAT           FIORINO (225)  Gasoleo 1000000000000180000000000000000000000180        00001    2017010120170131Mercadorias
00000011312397113         2017010166PB84  FIAT           FIORINO (225)  Gasoleo 1000000000001304000000000000000000001304        00001    2017010120170131Mercadorias
00000011312397113         2017010166PB84  FIAT           FIORINO (225)  Gasoleo 1000000000000274000000000000000000000274        00001    2017010120170131Mercadorias
00000011312397113         2017010166PB84  FIAT           FIORINO (225)  Gasoleo 1000000000002042000000000000000000002042        00001    2017010120170131Mercadorias
00000011312397113         2017010166PB84  FIAT           FIORINO (225)  Gasoleo 5800000000002633000000000060600000003239        00001    2017010120170131Mercadorias
00000011312397113         2017010166PB84  FIAT           FIORINO (225)  Gasoleo 5810000000001243000000000028600000001529        00001    2017010120170131Mercadorias
00000011312397113         2017010166PB84  FIAT           FIORINO (225)  Gasoleo 6200000000000635000000000014600000000781        00001    2017010120170131Mercadorias
00000011312397113         2017010166PB84  FIAT           FIORINO (225)  Gasoleo 6300000000000155000000000003600000000191        00001    2017010120170131Mercadorias
00000011312397113         2017010166PB84  FIAT           FIORINO (225)  Gasoleo 6500000000000279000000000006400000000343        00001    2017010120170131Mercadorias
00000011312397113         2017010166PB84  FIAT           FIORINO (225)  Gasoleo 6700000000000316000000000000000000000316        00001    2017010120170131Mercadorias
00000011312397113         2017010166PB84  FIAT           FIORINO (225)  Gasoleo 7110000000001000000000000023000000001230        00001    2017010120170131Mercadorias
00000011312397113         2017010166PB84  FIAT           FIORINO (225)  Gasoleo 7200000000000370000000000008500000000455        00001    2017010120170131Mercadorias
00000011312397113         2017010166PB84  FIAT           FIORINO (225)  Gasoleo 7300000000000288000000000006600000000354        00001    2017010120170131Mercadorias
00000011312397113         2017010166PB84  FIAT           FIORINO (225)  Gasoleo 7400000000000069000000000001600000000085        00001    2017010120170131Mercadorias
00000011312397113         2017010166PB84  FIAT           FIORINO (225)  Gasoleo 9990000000001864000000000042900000002293        00001    2017010120170131Mercadorias
00000011312397113         2017010166PB79  FIAT           FIORINO (225)  Gasoleo 0110000000014197000000000326500000017462        00001    2017010120170131Mercadorias
00000011312397113         2017010166PB79  FIAT           FIORINO (225)  Gasoleo 1000000000001272000000000000000000001272        00001    2017010120170131Mercadorias
00000011312397113         2017010166PB79  FIAT           FIORINO (225)  Gasoleo 1000000000000180000000000000000000000180        00001    2017010120170131Mercadorias
00000011312397113         2017010166PB79  FIAT           FIORINO (225)  Gasoleo 1000000000001304000000000000000000001304        00001    2017010120170131Mercadorias
00000011312397113         2017010166PB79  FIAT           FIORINO (225)  Gasoleo 1000000000000274000000000000000000000274        00001    2017010120170131Mercadorias
00000011312397113         2017010166PB79  FIAT           FIORINO (225)  Gasoleo 1000000000002042000000000000000000002042        00001    2017010120170131Mercadorias
00000011312397113         2017010166PB79  FIAT           FIORINO (225)  Gasoleo 5800000000002633000000000060600000003239        00001    2017010120170131Mercadorias
00000011312397113         2017010166PB79  FIAT           FIORINO (225)  Gasoleo 5810000000001243000000000028600000001529        00001    2017010120170131Mercadorias
00000011312397113         2017010166PB79  FIAT           FIORINO (225)  Gasoleo 6200000000000635000000000014600000000781        00001    2017010120170131Mercadorias
00000011312397113         2017010166PB79  FIAT           FIORINO (225)  Gasoleo 6300000000000155000000000003600000000191        00001    2017010120170131Mercadorias
00000011312397113         2017010166PB79  FIAT           FIORINO (225)  Gasoleo 6500000000000279000000000006400000000343        00001    2017010120170131Mercadorias
00000011312397113         2017010166PB79  FIAT           FIORINO (225)  Gasoleo 6700000000000316000000000000000000000316        00001    2017010120170131Mercadorias
00000011312397113         2017010166PB79  FIAT           FIORINO (225)  Gasoleo 7110000000001000000000000023000000001230        00001    2017010120170131Mercadorias
00000011312397113         2017010166PB79  FIAT           FIORINO (225)  Gasoleo 7200000000000370000000000008500000000455        00001    2017010120170131Mercadorias
00000011312397113         2017010166PB79  FIAT           FIORINO (225)  Gasoleo 7300000000000288000000000006600000000354        00001    2017010120170131Mercadorias
00000011312397113         2017010166PB79  FIAT           FIORINO (225)  Gasoleo 7400000000000069000000000001600000000085        00001    2017010120170131Mercadorias
00000011312397113         2017010166PB79  FIAT           FIORINO (225)  Gasoleo 9990000000001864000000000042900000002293        00001    2017010120170131Mercadorias
00000011312397113         2017010166PB82  FIAT           FIORINO (225)  Gasoleo 0110000000014197000000000326500000017462        00001    2017010120170131Mercadorias
00000011312397113         2017010166PB82  FIAT           FIORINO (225)  Gasoleo 1000000000001272000000000000000000001272        00001    2017010120170131Mercadorias
00000011312397113         2017010166PB82  FIAT           FIORINO (225)  Gasoleo 1000000000000180000000000000000000000180        00001    2017010120170131Mercadorias
00000011312397113         2017010166PB82  FIAT           FIORINO (225)  Gasoleo 1000000000001304000000000000000000001304        00001    2017010120170131Mercadorias
00000011312397113         2017010166PB82  FIAT           FIORINO (225)  Gasoleo 1000000000000274000000000000000000000274        00001    2017010120170131Mercadorias
00000011312397113         2017010166PB82  FIAT           FIORINO (225)  Gasoleo 1000000000002042000000000000000000002042        00001    2017010120170131Mercadorias
00000011312397113         2017010166PB82  FIAT           FIORINO (225)  Gasoleo 5800000000002633000000000060600000003239        00001    2017010120170131Mercadorias
00000011312397113         2017010166PB82  FIAT           FIORINO (225)  Gasoleo 5810000000001243000000000028600000001529        00001    2017010120170131Mercadorias
00000011312397113         2017010166PB82  FIAT           FIORINO (225)  Gasoleo 6200000000000635000000000014600000000781        00001    2017010120170131Mercadorias
00000011312397113         2017010166PB82  FIAT           FIORINO (225)  Gasoleo 6300000000000155000000000003600000000191        00001    2017010120170131Mercadorias
00000011312397113         2017010166PB82  FIAT           FIORINO (225)  Gasoleo 6500000000000279000000000006400000000343        00001    2017010120170131Mercadorias
00000011312397113         2017010166PB82  FIAT           FIORINO (225)  Gasoleo 6700000000000316000000000000000000000316        00001    2017010120170131Mercadorias
00000011312397113         2017010166PB82  FIAT           FIORINO (225)  Gasoleo 7110000000001000000000000023000000001230        00001    2017010120170131Mercadorias
00000011312397113         2017010166PB82  FIAT           FIORINO (225)  Gasoleo 7200000000000370000000000008500000000455        00001    2017010120170131Mercadorias
00000011312397113         2017010166PB82  FIAT           FIORINO (225)  Gasoleo 7300000000000288000000000006600000000354        00001    2017010120170131Mercadorias
00000011312397113         2017010166PB82  FIAT           FIORINO (225)  Gasoleo 7400000000000069000000000001600000000085        00001    2017010120170131Mercadorias
00000011312397113         2017010166PB82  FIAT           FIORINO (225)  Gasoleo 9990000000001864000000000042900000002293        00001    2017010120170131Mercadorias
00000011312397113         2017010154PE32  PEUGEOT        208            Gasoleo 0110000000006591000000000151600000008107        00001    2017010120170131Passageiros
00000011312397113         2017010154PE32  PEUGEOT        208            Gasoleo 1000000000000255000000000000000000000255        00001    2017010120170131Passageiros
00000011312397113         2017010154PE32  PEUGEOT        208            Gasoleo 1000000000001312000000000000000000001312        00001    2017010120170131Passageiros
00000011312397113         2017010154PE32  PEUGEOT        208            Gasoleo 1000000000000180000000000000000000000180        00001    2017010120170131Passageiros
00000011312397113         2017010154PE32  PEUGEOT        208            Gasoleo 1000000000001304000000000000000000001304        00001    2017010120170131Passageiros
00000011312397113         2017010154PE32  PEUGEOT        208            Gasoleo 1000000000000274000000000000000000000274        00001    2017010120170131Passageiros
00000011312397113         2017010154PE32  PEUGEOT        208            Gasoleo 1000000000001636000000000000000000001636        00001    2017010120170131Passageiros
00000011312397113         2017010154PE32  PEUGEOT        208            Gasoleo 5800000000002710000000000062300000003333        00001    2017010120170131Passageiros
00000011312397113         2017010154PE32  PEUGEOT        208            Gasoleo 5810000000000975000000000022400000001199        00001    2017010120170131Passageiros
00000011312397113         2017010154PE32  PEUGEOT        208            Gasoleo 6200000000000635000000000014600000000781        00001    2017010120170131Passageiros
00000011312397113         2017010154PE32  PEUGEOT        208            Gasoleo 6300000000000058000000000001300000000071        00001    2017010120170131Passageiros
00000011312397113         2017010154PE32  PEUGEOT        208            Gasoleo 6500000000000993000000000022800000001221        00001    2017010120170131Passageiros
00000011312397113         2017010154PE32  PEUGEOT        208            Gasoleo 6700000000000316000000000000000000000316        00001    2017010120170131Passageiros
00000011312397113         2017010154PE32  PEUGEOT        208            Gasoleo 7110000000001000000000000023000000001230        00001    2017010120170131Passageiros
00000011312397113         2017010154PE32  PEUGEOT        208            Gasoleo 7200000000000370000000000008500000000455        00001    2017010120170131Passageiros
00000011312397113         2017010154PE32  PEUGEOT        208            Gasoleo 7300000000000288000000000006600000000354        00001    2017010120170131Passageiros
00000011312397113         2017010154PE32  PEUGEOT        208            Gasoleo 7400000000000069000000000001600000000085        00001    2017010120170131Passageiros
00000011312397113         2017010154PE32  PEUGEOT        208            Gasoleo 9990000000002469000000000056800000003037        00001    2017010120170131Passageiros
00000011312397113         2017010154PE31  PEUGEOT        208            Gasoleo 0110000000006591000000000151600000008107        00001    2017010120170131Passageiros
00000011312397113         2017010154PE31  PEUGEOT        208            Gasoleo 1000000000000255000000000000000000000255        00001    2017010120170131Passageiros
00000011312397113         2017010154PE31  PEUGEOT        208            Gasoleo 1000000000001312000000000000000000001312        00001    2017010120170131Passageiros
00000011312397113         2017010154PE31  PEUGEOT        208            Gasoleo 1000000000000180000000000000000000000180        00001    2017010120170131Passageiros
00000011312397113         2017010154PE31  PEUGEOT        208            Gasoleo 1000000000001304000000000000000000001304        00001    2017010120170131Passageiros
00000011312397113         2017010154PE31  PEUGEOT        208            Gasoleo 1000000000000274000000000000000000000274        00001    2017010120170131Passageiros
00000011312397113         2017010154PE31  PEUGEOT        208            Gasoleo 1000000000001636000000000000000000001636        00001    2017010120170131Passageiros
00000011312397113         2017010154PE31  PEUGEOT        208            Gasoleo 5800000000002710000000000062300000003333        00001    2017010120170131Passageiros
00000011312397113         2017010154PE31  PEUGEOT        208            Gasoleo 5810000000000975000000000022400000001199        00001    2017010120170131Passageiros
00000011312397113         2017010154PE31  PEUGEOT        208            Gasoleo 6200000000000635000000000014600000000781        00001    2017010120170131Passageiros
00000011312397113         2017010154PE31  PEUGEOT        208            Gasoleo 6300000000000058000000000001300000000071        00001    2017010120170131Passageiros
00000011312397113         2017010154PE31  PEUGEOT        208            Gasoleo 6500000000000993000000000022800000001221        00001    2017010120170131Passageiros
00000011312397113         2017010154PE31  PEUGEOT        208            Gasoleo 6700000000000316000000000000000000000316        00001    2017010120170131Passageiros
00000011312397113         2017010154PE31  PEUGEOT        208            Gasoleo 7110000000001000000000000023000000001230        00001    2017010120170131Passageiros
00000011312397113         2017010154PE31  PEUGEOT        208            Gasoleo 7200000000000370000000000008500000000455        00001    2017010120170131Passageiros
00000011312397113         2017010154PE31  PEUGEOT        208            Gasoleo 7300000000000288000000000006600000000354        00001    2017010120170131Passageiros
00000011312397113         2017010154PE31  PEUGEOT        208            Gasoleo 7400000000000069000000000001600000000085        00001    2017010120170131Passageiros
00000011312397113         2017010154PE31  PEUGEOT        208            Gasoleo 9990000000002469000000000056800000003037        00001    2017010120170131Passageiros
00000011312397113         2017010154PE30  PEUGEOT        208            Gasoleo 0110000000006591000000000151600000008107        00001    2017010120170131Passageiros
00000011312397113         2017010154PE30  PEUGEOT        208            Gasoleo 1000000000000255000000000000000000000255        00001    2017010120170131Passageiros
00000011312397113         2017010154PE30  PEUGEOT        208            Gasoleo 1000000000001312000000000000000000001312        00001    2017010120170131Passageiros
00000011312397113         2017010154PE30  PEUGEOT        208            Gasoleo 1000000000000180000000000000000000000180        00001    2017010120170131Passageiros
00000011312397113         2017010154PE30  PEUGEOT        208            Gasoleo 1000000000001304000000000000000000001304        00001    2017010120170131Passageiros
00000011312397113         2017010154PE30  PEUGEOT        208            Gasoleo 1000000000000274000000000000000000000274        00001    2017010120170131Passageiros
00000011312397113         2017010154PE30  PEUGEOT        208            Gasoleo 1000000000001636000000000000000000001636        00001    2017010120170131Passageiros
00000011312397113         2017010154PE30  PEUGEOT        208            Gasoleo 5800000000002710000000000062300000003333        00001    2017010120170131Passageiros
00000011312397113         2017010154PE30  PEUGEOT        208            Gasoleo 5810000000000975000000000022400000001199        00001    2017010120170131Passageiros
00000011312397113         2017010154PE30  PEUGEOT        208            Gasoleo 6200000000000635000000000014600000000781        00001    2017010120170131Passageiros
00000011312397113         2017010154PE30  PEUGEOT        208            Gasoleo 6300000000000058000000000001300000000071        00001    2017010120170131Passageiros
00000011312397113         2017010154PE30  PEUGEOT        208            Gasoleo 6500000000000993000000000022800000001221        00001    2017010120170131Passageiros
00000011312397113         2017010154PE30  PEUGEOT        208            Gasoleo 6700000000000316000000000000000000000316        00001    2017010120170131Passageiros
00000011312397113         2017010154PE30  PEUGEOT        208            Gasoleo 7110000000001000000000000023000000001230        00001    2017010120170131Passageiros
00000011312397113         2017010154PE30  PEUGEOT        208            Gasoleo 7200000000000370000000000008500000000455        00001    2017010120170131Passageiros
00000011312397113         2017010154PE30  PEUGEOT        208            Gasoleo 7300000000000288000000000006600000000354        00001    2017010120170131Passageiros
00000011312397113         2017010154PE30  PEUGEOT        208            Gasoleo 7400000000000069000000000001600000000085        00001    2017010120170131Passageiros
00000011312397113         2017010154PE30  PEUGEOT        208            Gasoleo 9990000000002469000000000056800000003037        00001    2017010120170131Passageiros
00000011312397113         2017010154PE29  PEUGEOT        208            Gasoleo 0110000000006591000000000151600000008107        00001    2017010120170131Passageiros
00000011312397113         2017010154PE29  PEUGEOT        208            Gasoleo 1000000000000255000000000000000000000255        00001    2017010120170131Passageiros
00000011312397113         2017010154PE29  PEUGEOT        208            Gasoleo 1000000000001312000000000000000000001312        00001    2017010120170131Passageiros
00000011312397113         2017010154PE29  PEUGEOT        208            Gasoleo 1000000000000180000000000000000000000180        00001    2017010120170131Passageiros
00000011312397113         2017010154PE29  PEUGEOT        208            Gasoleo 1000000000001304000000000000000000001304        00001    2017010120170131Passageiros
00000011312397113         2017010154PE29  PEUGEOT        208            Gasoleo 1000000000000274000000000000000000000274        00001    2017010120170131Passageiros
00000011312397113         2017010154PE29  PEUGEOT        208            Gasoleo 1000000000001636000000000000000000001636        00001    2017010120170131Passageiros
00000011312397113         2017010154PE29  PEUGEOT        208            Gasoleo 5800000000002710000000000062300000003333        00001    2017010120170131Passageiros
00000011312397113         2017010154PE29  PEUGEOT        208            Gasoleo 5810000000000975000000000022400000001199        00001    2017010120170131Passageiros
00000011312397113         2017010154PE29  PEUGEOT        208            Gasoleo 6200000000000635000000000014600000000781        00001    2017010120170131Passageiros
00000011312397113         2017010154PE29  PEUGEOT        208            Gasoleo 6300000000000058000000000001300000000071        00001    2017010120170131Passageiros
00000011312397113         2017010154PE29  PEUGEOT        208            Gasoleo 6500000000000993000000000022800000001221        00001    2017010120170131Passageiros
00000011312397113         2017010154PE29  PEUGEOT        208            Gasoleo 6700000000000316000000000000000000000316        00001    2017010120170131Passageiros
00000011312397113         2017010154PE29  PEUGEOT        208            Gasoleo 7110000000001000000000000023000000001230        00001    2017010120170131Passageiros
00000011312397113         2017010154PE29  PEUGEOT        208            Gasoleo 7200000000000370000000000008500000000455        00001    2017010120170131Passageiros
00000011312397113         2017010154PE29  PEUGEOT        208            Gasoleo 7300000000000288000000000006600000000354        00001    2017010120170131Passageiros
00000011312397113         2017010154PE29  PEUGEOT        208            Gasoleo 7400000000000069000000000001600000000085        00001    2017010120170131Passageiros
00000011312397113         2017010154PE29  PEUGEOT        208            Gasoleo 9990000000002469000000000056800000003037        00001    2017010120170131Passageiros
00000011312397113         2017010154PE28  PEUGEOT        208            Gasoleo 0110000000006591000000000151600000008107        00001    2017010120170131Passageiros
00000011312397113         2017010154PE28  PEUGEOT        208            Gasoleo 1000000000000255000000000000000000000255        00001    2017010120170131Passageiros
00000011312397113         2017010154PE28  PEUGEOT        208            Gasoleo 1000000000001312000000000000000000001312        00001    2017010120170131Passageiros
00000011312397113         2017010154PE28  PEUGEOT        208            Gasoleo 1000000000000180000000000000000000000180        00001    2017010120170131Passageiros
00000011312397113         2017010154PE28  PEUGEOT        208            Gasoleo 1000000000001304000000000000000000001304        00001    2017010120170131Passageiros
00000011312397113         2017010154PE28  PEUGEOT        208            Gasoleo 1000000000000274000000000000000000000274        00001    2017010120170131Passageiros
00000011312397113         2017010154PE28  PEUGEOT        208            Gasoleo 1000000000001636000000000000000000001636        00001    2017010120170131Passageiros
00000011312397113         2017010154PE28  PEUGEOT        208            Gasoleo 5800000000002710000000000062300000003333        00001    2017010120170131Passageiros
00000011312397113         2017010154PE28  PEUGEOT        208            Gasoleo 5810000000000975000000000022400000001199        00001    2017010120170131Passageiros
00000011312397113         2017010154PE28  PEUGEOT        208            Gasoleo 6200000000000635000000000014600000000781        00001    2017010120170131Passageiros
00000011312397113         2017010154PE28  PEUGEOT        208            Gasoleo 6300000000000058000000000001300000000071        00001    2017010120170131Passageiros
00000011312397113         2017010154PE28  PEUGEOT        208            Gasoleo 6500000000000993000000000022800000001221        00001    2017010120170131Passageiros
00000011312397113         2017010154PE28  PEUGEOT        208            Gasoleo 6700000000000316000000000000000000000316        00001    2017010120170131Passageiros
00000011312397113         2017010154PE28  PEUGEOT        208            Gasoleo 7110000000001000000000000023000000001230        00001    2017010120170131Passageiros
00000011312397113         2017010154PE28  PEUGEOT        208            Gasoleo 7200000000000370000000000008500000000455        00001    2017010120170131Passageiros
00000011312397113         2017010154PE28  PEUGEOT        208            Gasoleo 7300000000000288000000000006600000000354        00001    2017010120170131Passageiros
00000011312397113         2017010154PE28  PEUGEOT        208            Gasoleo 7400000000000069000000000001600000000085        00001    2017010120170131Passageiros
00000011312397113         2017010154PE28  PEUGEOT        208            Gasoleo 9990000000002469000000000056800000003037        00001    2017010120170131Passageiros
00000011312397113         2017010154PE27  PEUGEOT        208            Gasoleo 0110000000006591000000000151600000008107        00001    2017010120170131Passageiros
00000011312397113         2017010154PE27  PEUGEOT        208            Gasoleo 1000000000000255000000000000000000000255        00001    2017010120170131Passageiros
00000011312397113         2017010154PE27  PEUGEOT        208            Gasoleo 1000000000001312000000000000000000001312        00001    2017010120170131Passageiros
00000011312397113         2017010154PE27  PEUGEOT        208            Gasoleo 1000000000000180000000000000000000000180        00001    2017010120170131Passageiros
00000011312397113         2017010154PE27  PEUGEOT        208            Gasoleo 1000000000001304000000000000000000001304        00001    2017010120170131Passageiros
00000011312397113         2017010154PE27  PEUGEOT        208            Gasoleo 1000000000000274000000000000000000000274        00001    2017010120170131Passageiros
00000011312397113         2017010154PE27  PEUGEOT        208            Gasoleo 1000000000001636000000000000000000001636        00001    2017010120170131Passageiros
00000011312397113         2017010154PE27  PEUGEOT        208            Gasoleo 5800000000002710000000000062300000003333        00001    2017010120170131Passageiros
00000011312397113         2017010154PE27  PEUGEOT        208            Gasoleo 5810000000000975000000000022400000001199        00001    2017010120170131Passageiros
00000011312397113         2017010154PE27  PEUGEOT        208            Gasoleo 6200000000000635000000000014600000000781        00001    2017010120170131Passageiros
00000011312397113         2017010154PE27  PEUGEOT        208            Gasoleo 6300000000000058000000000001300000000071        00001    2017010120170131Passageiros
00000011312397113         2017010154PE27  PEUGEOT        208            Gasoleo 6500000000000993000000000022800000001221        00001    2017010120170131Passageiros
00000011312397113         2017010154PE27  PEUGEOT        208            Gasoleo 6700000000000316000000000000000000000316        00001    2017010120170131Passageiros
00000011312397113         2017010154PE27  PEUGEOT        208            Gasoleo 7110000000001000000000000023000000001230        00001    2017010120170131Passageiros
00000011312397113         2017010154PE27  PEUGEOT        208            Gasoleo 7200000000000370000000000008500000000455        00001    2017010120170131Passageiros
00000011312397113         2017010154PE27  PEUGEOT        208            Gasoleo 7300000000000288000000000006600000000354        00001    2017010120170131Passageiros
00000011312397113         2017010154PE27  PEUGEOT        208            Gasoleo 7400000000000069000000000001600000000085        00001    2017010120170131Passageiros
00000011312397113         2017010154PE27  PEUGEOT        208            Gasoleo 9990000000002469000000000056800000003037        00001    2017010120170131Passageiros
00000011312397113         2017010154PE41  PEUGEOT        208            Gasoleo 0110000000006591000000000151600000008107        00001    2017010120170131Passageiros
00000011312397113         2017010154PE41  PEUGEOT        208            Gasoleo 1000000000000255000000000000000000000255        00001    2017010120170131Passageiros
00000011312397113         2017010154PE41  PEUGEOT        208            Gasoleo 1000000000001312000000000000000000001312        00001    2017010120170131Passageiros
00000011312397113         2017010154PE41  PEUGEOT        208            Gasoleo 1000000000000180000000000000000000000180        00001    2017010120170131Passageiros
00000011312397113         2017010154PE41  PEUGEOT        208            Gasoleo 1000000000001304000000000000000000001304        00001    2017010120170131Passageiros
00000011312397113         2017010154PE41  PEUGEOT        208            Gasoleo 1000000000000274000000000000000000000274        00001    2017010120170131Passageiros
00000011312397113         2017010154PE41  PEUGEOT        208            Gasoleo 1000000000001636000000000000000000001636        00001    2017010120170131Passageiros
00000011312397113         2017010154PE41  PEUGEOT        208            Gasoleo 5800000000002710000000000062300000003333        00001    2017010120170131Passageiros
00000011312397113         2017010154PE41  PEUGEOT        208            Gasoleo 5810000000000975000000000022400000001199        00001    2017010120170131Passageiros
00000011312397113         2017010154PE41  PEUGEOT        208            Gasoleo 6200000000000635000000000014600000000781        00001    2017010120170131Passageiros
00000011312397113         2017010154PE41  PEUGEOT        208            Gasoleo 6300000000000058000000000001300000000071        00001    2017010120170131Passageiros
00000011312397113         2017010154PE41  PEUGEOT        208            Gasoleo 6500000000000993000000000022800000001221        00001    2017010120170131Passageiros
00000011312397113         2017010154PE41  PEUGEOT        208            Gasoleo 6700000000000316000000000000000000000316        00001    2017010120170131Passageiros
00000011312397113         2017010154PE41  PEUGEOT        208            Gasoleo 7110000000001000000000000023000000001230        00001    2017010120170131Passageiros
00000011312397113         2017010154PE41  PEUGEOT        208            Gasoleo 7200000000000370000000000008500000000455        00001    2017010120170131Passageiros
00000011312397113         2017010154PE41  PEUGEOT        208            Gasoleo 7300000000000288000000000006600000000354        00001    2017010120170131Passageiros
00000011312397113         2017010154PE41  PEUGEOT        208            Gasoleo 7400000000000069000000000001600000000085        00001    2017010120170131Passageiros
00000011312397113         2017010154PE41  PEUGEOT        208            Gasoleo 9990000000002469000000000056800000003037        00001    2017010120170131Passageiros
00000011312397113         2017010154PE26  PEUGEOT        208            Gasoleo 0110000000006591000000000151600000008107        00001    2017010120170131Passageiros
00000011312397113         2017010154PE26  PEUGEOT        208            Gasoleo 1000000000000255000000000000000000000255        00001    2017010120170131Passageiros
00000011312397113         2017010154PE26  PEUGEOT        208            Gasoleo 1000000000001312000000000000000000001312        00001    2017010120170131Passageiros
00000011312397113         2017010154PE26  PEUGEOT        208            Gasoleo 1000000000000180000000000000000000000180        00001    2017010120170131Passageiros
00000011312397113         2017010154PE26  PEUGEOT        208            Gasoleo 1000000000001304000000000000000000001304        00001    2017010120170131Passageiros
00000011312397113         2017010154PE26  PEUGEOT        208            Gasoleo 1000000000000274000000000000000000000274        00001    2017010120170131Passageiros
00000011312397113         2017010154PE26  PEUGEOT        208            Gasoleo 1000000000001636000000000000000000001636        00001    2017010120170131Passageiros
00000011312397113         2017010154PE26  PEUGEOT        208            Gasoleo 5800000000002710000000000062300000003333        00001    2017010120170131Passageiros
00000011312397113         2017010154PE26  PEUGEOT        208            Gasoleo 5810000000000975000000000022400000001199        00001    2017010120170131Passageiros
00000011312397113         2017010154PE26  PEUGEOT        208            Gasoleo 6200000000000635000000000014600000000781        00001    2017010120170131Passageiros
00000011312397113         2017010154PE26  PEUGEOT        208            Gasoleo 6300000000000058000000000001300000000071        00001    2017010120170131Passageiros
00000011312397113         2017010154PE26  PEUGEOT        208            Gasoleo 6500000000000993000000000022800000001221        00001    2017010120170131Passageiros
00000011312397113         2017010154PE26  PEUGEOT        208            Gasoleo 6700000000000316000000000000000000000316        00001    2017010120170131Passageiros
00000011312397113         2017010154PE26  PEUGEOT        208            Gasoleo 7110000000001000000000000023000000001230        00001    2017010120170131Passageiros
00000011312397113         2017010154PE26  PEUGEOT        208            Gasoleo 7200000000000370000000000008500000000455        00001    2017010120170131Passageiros
00000011312397113         2017010154PE26  PEUGEOT        208            Gasoleo 7300000000000288000000000006600000000354        00001    2017010120170131Passageiros
00000011312397113         2017010154PE26  PEUGEOT        208            Gasoleo 7400000000000069000000000001600000000085        00001    2017010120170131Passageiros
00000011312397113         2017010154PE26  PEUGEOT        208            Gasoleo 9990000000002469000000000056800000003037        00001    2017010120170131Passageiros
00000011312397113         2017010154PE40  PEUGEOT        208            Gasoleo 0110000000006591000000000151600000008107        00001    2017010120170131Passageiros
00000011312397113         2017010154PE40  PEUGEOT        208            Gasoleo 1000000000000255000000000000000000000255        00001    2017010120170131Passageiros
00000011312397113         2017010154PE40  PEUGEOT        208            Gasoleo 1000000000001312000000000000000000001312        00001    2017010120170131Passageiros
00000011312397113         2017010154PE40  PEUGEOT        208            Gasoleo 1000000000000180000000000000000000000180        00001    2017010120170131Passageiros
00000011312397113         2017010154PE40  PEUGEOT        208            Gasoleo 1000000000001304000000000000000000001304        00001    2017010120170131Passageiros
00000011312397113         2017010154PE40  PEUGEOT        208            Gasoleo 1000000000000274000000000000000000000274        00001    2017010120170131Passageiros
00000011312397113         2017010154PE40  PEUGEOT        208            Gasoleo 1000000000001636000000000000000000001636        00001    2017010120170131Passageiros
00000011312397113         2017010154PE40  PEUGEOT        208            Gasoleo 5800000000002710000000000062300000003333        00001    2017010120170131Passageiros
00000011312397113         2017010154PE40  PEUGEOT        208            Gasoleo 5810000000000975000000000022400000001199        00001    2017010120170131Passageiros
00000011312397113         2017010154PE40  PEUGEOT        208            Gasoleo 6200000000000635000000000014600000000781        00001    2017010120170131Passageiros
00000011312397113         2017010154PE40  PEUGEOT        208            Gasoleo 6300000000000058000000000001300000000071        00001    2017010120170131Passageiros
00000011312397113         2017010154PE40  PEUGEOT        208            Gasoleo 6500000000000993000000000022800000001221        00001    2017010120170131Passageiros
00000011312397113         2017010154PE40  PEUGEOT        208            Gasoleo 6700000000000316000000000000000000000316        00001    2017010120170131Passageiros
00000011312397113         2017010154PE40  PEUGEOT        208            Gasoleo 7110000000001000000000000023000000001230        00001    2017010120170131Passageiros
00000011312397113         2017010154PE40  PEUGEOT        208            Gasoleo 7200000000000370000000000008500000000455        00001    2017010120170131Passageiros
00000011312397113         2017010154PE40  PEUGEOT        208            Gasoleo 7300000000000288000000000006600000000354        00001    2017010120170131Passageiros
00000011312397113         2017010154PE40  PEUGEOT        208            Gasoleo 7400000000000069000000000001600000000085        00001    2017010120170131Passageiros
00000011312397113         2017010154PE40  PEUGEOT        208            Gasoleo 9990000000002469000000000056800000003037        00001    2017010120170131Passageiros
00000011312397113         2017010154PE25  PEUGEOT        208            Gasoleo 0110000000006591000000000151600000008107        00001    2017010120170131Passageiros
00000011312397113         2017010154PE25  PEUGEOT        208            Gasoleo 1000000000000255000000000000000000000255        00001    2017010120170131Passageiros
00000011312397113         2017010154PE25  PEUGEOT        208            Gasoleo 1000000000001312000000000000000000001312        00001    2017010120170131Passageiros
00000011312397113         2017010154PE25  PEUGEOT        208            Gasoleo 1000000000000180000000000000000000000180        00001    2017010120170131Passageiros
00000011312397113         2017010154PE25  PEUGEOT        208            Gasoleo 1000000000001304000000000000000000001304        00001    2017010120170131Passageiros
00000011312397113         2017010154PE25  PEUGEOT        208            Gasoleo 1000000000000274000000000000000000000274        00001    2017010120170131Passageiros
00000011312397113         2017010154PE25  PEUGEOT        208            Gasoleo 1000000000001636000000000000000000001636        00001    2017010120170131Passageiros
00000011312397113         2017010154PE25  PEUGEOT        208            Gasoleo 5800000000002710000000000062300000003333        00001    2017010120170131Passageiros
00000011312397113         2017010154PE25  PEUGEOT        208            Gasoleo 5810000000000975000000000022400000001199        00001    2017010120170131Passageiros
00000011312397113         2017010154PE25  PEUGEOT        208            Gasoleo 6200000000000635000000000014600000000781        00001    2017010120170131Passageiros
00000011312397113         2017010154PE25  PEUGEOT        208            Gasoleo 6300000000000058000000000001300000000071        00001    2017010120170131Passageiros
00000011312397113         2017010154PE25  PEUGEOT        208            Gasoleo 6500000000000993000000000022800000001221        00001    2017010120170131Passageiros
00000011312397113         2017010154PE25  PEUGEOT        208            Gasoleo 6700000000000316000000000000000000000316        00001    2017010120170131Passageiros
00000011312397113         2017010154PE25  PEUGEOT        208            Gasoleo 7110000000001000000000000023000000001230        00001    2017010120170131Passageiros
00000011312397113         2017010154PE25  PEUGEOT        208            Gasoleo 7200000000000370000000000008500000000455        00001    2017010120170131Passageiros
00000011312397113         2017010154PE25  PEUGEOT        208            Gasoleo 7300000000000288000000000006600000000354        00001    2017010120170131Passageiros
00000011312397113         2017010154PE25  PEUGEOT        208            Gasoleo 7400000000000069000000000001600000000085        00001    2017010120170131Passageiros
00000011312397113         2017010154PE25  PEUGEOT        208            Gasoleo 9990000000002469000000000056800000003037        00001    2017010120170131Passageiros
00000011312397113         2017010154PE39  PEUGEOT        208            Gasoleo 0110000000006591000000000151600000008107        00001    2017010120170131Passageiros
00000011312397113         2017010154PE39  PEUGEOT        208            Gasoleo 1000000000000255000000000000000000000255        00001    2017010120170131Passageiros
00000011312397113         2017010154PE39  PEUGEOT        208            Gasoleo 1000000000001312000000000000000000001312        00001    2017010120170131Passageiros
00000011312397113         2017010154PE39  PEUGEOT        208            Gasoleo 1000000000000180000000000000000000000180        00001    2017010120170131Passageiros
00000011312397113         2017010154PE39  PEUGEOT        208            Gasoleo 1000000000001304000000000000000000001304        00001    2017010120170131Passageiros
00000011312397113         2017010154PE39  PEUGEOT        208            Gasoleo 1000000000000274000000000000000000000274        00001    2017010120170131Passageiros
00000011312397113         2017010154PE39  PEUGEOT        208            Gasoleo 1000000000001636000000000000000000001636        00001    2017010120170131Passageiros
00000011312397113         2017010154PE39  PEUGEOT        208            Gasoleo 5800000000002710000000000062300000003333        00001    2017010120170131Passageiros
00000011312397113         2017010154PE39  PEUGEOT        208            Gasoleo 5810000000000975000000000022400000001199        00001    2017010120170131Passageiros
00000011312397113         2017010154PE39  PEUGEOT        208            Gasoleo 6200000000000635000000000014600000000781        00001    2017010120170131Passageiros
00000011312397113         2017010154PE39  PEUGEOT        208            Gasoleo 6300000000000058000000000001300000000071        00001    2017010120170131Passageiros
00000011312397113         2017010154PE39  PEUGEOT        208            Gasoleo 6500000000000993000000000022800000001221        00001    2017010120170131Passageiros
00000011312397113         2017010154PE39  PEUGEOT        208            Gasoleo 6700000000000316000000000000000000000316        00001    2017010120170131Passageiros
00000011312397113         2017010154PE39  PEUGEOT        208            Gasoleo 7110000000001000000000000023000000001230        00001    2017010120170131Passageiros
00000011312397113         2017010154PE39  PEUGEOT        208            Gasoleo 7200000000000370000000000008500000000455        00001    2017010120170131Passageiros
00000011312397113         2017010154PE39  PEUGEOT        208            Gasoleo 7300000000000288000000000006600000000354        00001    2017010120170131Passageiros
00000011312397113         2017010154PE39  PEUGEOT        208            Gasoleo 7400000000000069000000000001600000000085        00001    2017010120170131Passageiros
00000011312397113         2017010154PE39  PEUGEOT        208            Gasoleo 9990000000002469000000000056800000003037        00001    2017010120170131Passageiros
00000011312397113         2017010165PD92  PEUGEOT        208            Gasoleo 0110000000006591000000000151600000008107        00001    2017010120170131Passageiros
00000011312397113         2017010165PD92  PEUGEOT        208            Gasoleo 1000000000000255000000000000000000000255        00001    2017010120170131Passageiros
00000011312397113         2017010165PD92  PEUGEOT        208            Gasoleo 1000000000001312000000000000000000001312        00001    2017010120170131Passageiros
00000011312397113         2017010165PD92  PEUGEOT        208            Gasoleo 1000000000000180000000000000000000000180        00001    2017010120170131Passageiros
00000011312397113         2017010165PD92  PEUGEOT        208            Gasoleo 1000000000001304000000000000000000001304        00001    2017010120170131Passageiros
00000011312397113         2017010165PD92  PEUGEOT        208            Gasoleo 1000000000000274000000000000000000000274        00001    2017010120170131Passageiros
00000011312397113         2017010165PD92  PEUGEOT        208            Gasoleo 1000000000001636000000000000000000001636        00001    2017010120170131Passageiros
00000011312397113         2017010165PD92  PEUGEOT        208            Gasoleo 5800000000002710000000000062300000003333        00001    2017010120170131Passageiros
00000011312397113         2017010165PD92  PEUGEOT        208            Gasoleo 5810000000000975000000000022400000001199        00001    2017010120170131Passageiros
00000011312397113         2017010165PD92  PEUGEOT        208            Gasoleo 6200000000000635000000000014600000000781        00001    2017010120170131Passageiros
00000011312397113         2017010165PD92  PEUGEOT        208            Gasoleo 6300000000000058000000000001300000000071        00001    2017010120170131Passageiros
00000011312397113         2017010165PD92  PEUGEOT        208            Gasoleo 6500000000000993000000000022800000001221        00001    2017010120170131Passageiros
00000011312397113         2017010165PD92  PEUGEOT        208            Gasoleo 6700000000000316000000000000000000000316        00001    2017010120170131Passageiros
00000011312397113         2017010165PD92  PEUGEOT        208            Gasoleo 7110000000001000000000000023000000001230        00001    2017010120170131Passageiros
00000011312397113         2017010165PD92  PEUGEOT        208            Gasoleo 7200000000000370000000000008500000000455        00001    2017010120170131Passageiros
00000011312397113         2017010165PD92  PEUGEOT        208            Gasoleo 7300000000000288000000000006600000000354        00001    2017010120170131Passageiros
00000011312397113         2017010165PD92  PEUGEOT        208            Gasoleo 7400000000000069000000000001600000000085        00001    2017010120170131Passageiros
00000011312397113         2017010165PD92  PEUGEOT        208            Gasoleo 9990000000002469000000000056800000003037        00001    2017010120170131Passageiros
00000011312397113         2017010165PD91  PEUGEOT        208            Gasoleo 0110000000006591000000000151600000008107        00001    2017010120170131Passageiros
00000011312397113         2017010165PD91  PEUGEOT        208            Gasoleo 1000000000000255000000000000000000000255        00001    2017010120170131Passageiros
00000011312397113         2017010165PD91  PEUGEOT        208            Gasoleo 1000000000001312000000000000000000001312        00001    2017010120170131Passageiros
00000011312397113         2017010165PD91  PEUGEOT        208            Gasoleo 1000000000000180000000000000000000000180        00001    2017010120170131Passageiros
00000011312397113         2017010165PD91  PEUGEOT        208            Gasoleo 1000000000001304000000000000000000001304        00001    2017010120170131Passageiros
00000011312397113         2017010165PD91  PEUGEOT        208            Gasoleo 1000000000000274000000000000000000000274        00001    2017010120170131Passageiros
00000011312397113         2017010165PD91  PEUGEOT        208            Gasoleo 1000000000001636000000000000000000001636        00001    2017010120170131Passageiros
00000011312397113         2017010165PD91  PEUGEOT        208            Gasoleo 5800000000002710000000000062300000003333        00001    2017010120170131Passageiros
00000011312397113         2017010165PD91  PEUGEOT        208            Gasoleo 5810000000000975000000000022400000001199        00001    2017010120170131Passageiros
00000011312397113         2017010165PD91  PEUGEOT        208            Gasoleo 6200000000000635000000000014600000000781        00001    2017010120170131Passageiros
00000011312397113         2017010165PD91  PEUGEOT        208            Gasoleo 6300000000000058000000000001300000000071        00001    2017010120170131Passageiros
00000011312397113         2017010165PD91  PEUGEOT        208            Gasoleo 6500000000000993000000000022800000001221        00001    2017010120170131Passageiros
00000011312397113         2017010165PD91  PEUGEOT        208            Gasoleo 6700000000000316000000000000000000000316        00001    2017010120170131Passageiros
00000011312397113         2017010165PD91  PEUGEOT        208            Gasoleo 7110000000001000000000000023000000001230        00001    2017010120170131Passageiros
00000011312397113         2017010165PD91  PEUGEOT        208            Gasoleo 7200000000000370000000000008500000000455        00001    2017010120170131Passageiros
00000011312397113         2017010165PD91  PEUGEOT        208            Gasoleo 7300000000000288000000000006600000000354        00001    2017010120170131Passageiros
00000011312397113         2017010165PD91  PEUGEOT        208            Gasoleo 7400000000000069000000000001600000000085        00001    2017010120170131Passageiros
00000011312397113         2017010165PD91  PEUGEOT        208            Gasoleo 9990000000002469000000000056800000003037        00001    2017010120170131Passageiros
00000011312397113         2017010166PD03  PEUGEOT        208            Gasoleo 0110000000006591000000000151600000008107        00001    2017010120170131Passageiros
00000011312397113         2017010166PD03  PEUGEOT        208            Gasoleo 1000000000000255000000000000000000000255        00001    2017010120170131Passageiros
00000011312397113         2017010166PD03  PEUGEOT        208            Gasoleo 1000000000001312000000000000000000001312        00001    2017010120170131Passageiros
00000011312397113         2017010166PD03  PEUGEOT        208            Gasoleo 1000000000000180000000000000000000000180        00001    2017010120170131Passageiros
00000011312397113         2017010166PD03  PEUGEOT        208            Gasoleo 1000000000001304000000000000000000001304        00001    2017010120170131Passageiros
00000011312397113         2017010166PD03  PEUGEOT        208            Gasoleo 1000000000000274000000000000000000000274        00001    2017010120170131Passageiros
00000011312397113         2017010166PD03  PEUGEOT        208            Gasoleo 1000000000001636000000000000000000001636        00001    2017010120170131Passageiros
00000011312397113         2017010166PD03  PEUGEOT        208            Gasoleo 5800000000002710000000000062300000003333        00001    2017010120170131Passageiros
00000011312397113         2017010166PD03  PEUGEOT        208            Gasoleo 5810000000000975000000000022400000001199        00001    2017010120170131Passageiros
00000011312397113         2017010166PD03  PEUGEOT        208            Gasoleo 6200000000000635000000000014600000000781        00001    2017010120170131Passageiros
00000011312397113         2017010166PD03  PEUGEOT        208            Gasoleo 6300000000000058000000000001300000000071        00001    2017010120170131Passageiros
00000011312397113         2017010166PD03  PEUGEOT        208            Gasoleo 6500000000000993000000000022800000001221        00001    2017010120170131Passageiros
00000011312397113         2017010166PD03  PEUGEOT        208            Gasoleo 6700000000000316000000000000000000000316        00001    2017010120170131Passageiros
00000011312397113         2017010166PD03  PEUGEOT        208            Gasoleo 7110000000001000000000000023000000001230        00001    2017010120170131Passageiros
00000011312397113         2017010166PD03  PEUGEOT        208            Gasoleo 7200000000000370000000000008500000000455        00001    2017010120170131Passageiros
00000011312397113         2017010166PD03  PEUGEOT        208            Gasoleo 7300000000000288000000000006600000000354        00001    2017010120170131Passageiros
00000011312397113         2017010166PD03  PEUGEOT        208            Gasoleo 7400000000000069000000000001600000000085        00001    2017010120170131Passageiros
00000011312397113         2017010166PD03  PEUGEOT        208            Gasoleo 9990000000002469000000000056800000003037        00001    2017010120170131Passageiros
00000011312397113         2017010165PD85  PEUGEOT        208            Gasoleo 0110000000006591000000000151600000008107        00001    2017010120170131Passageiros
00000011312397113         2017010165PD85  PEUGEOT        208            Gasoleo 1000000000000255000000000000000000000255        00001    2017010120170131Passageiros
00000011312397113         2017010165PD85  PEUGEOT        208            Gasoleo 1000000000001312000000000000000000001312        00001    2017010120170131Passageiros
00000011312397113         2017010165PD85  PEUGEOT        208            Gasoleo 1000000000000180000000000000000000000180        00001    2017010120170131Passageiros
00000011312397113         2017010165PD85  PEUGEOT        208            Gasoleo 1000000000001304000000000000000000001304        00001    2017010120170131Passageiros
00000011312397113         2017010165PD85  PEUGEOT        208            Gasoleo 1000000000000274000000000000000000000274        00001    2017010120170131Passageiros
00000011312397113         2017010165PD85  PEUGEOT        208            Gasoleo 1000000000001636000000000000000000001636        00001    2017010120170131Passageiros
00000011312397113         2017010165PD85  PEUGEOT        208            Gasoleo 5800000000002710000000000062300000003333        00001    2017010120170131Passageiros
00000011312397113         2017010165PD85  PEUGEOT        208            Gasoleo 5810000000000975000000000022400000001199        00001    2017010120170131Passageiros
00000011312397113         2017010165PD85  PEUGEOT        208            Gasoleo 6200000000000635000000000014600000000781        00001    2017010120170131Passageiros
00000011312397113         2017010165PD85  PEUGEOT        208            Gasoleo 6300000000000058000000000001300000000071        00001    2017010120170131Passageiros
00000011312397113         2017010165PD85  PEUGEOT        208            Gasoleo 6500000000000993000000000022800000001221        00001    2017010120170131Passageiros
00000011312397113         2017010165PD85  PEUGEOT        208            Gasoleo 6700000000000316000000000000000000000316        00001    2017010120170131Passageiros
00000011312397113         2017010165PD85  PEUGEOT        208            Gasoleo 7110000000001000000000000023000000001230        00001    2017010120170131Passageiros
00000011312397113         2017010165PD85  PEUGEOT        208            Gasoleo 7200000000000370000000000008500000000455        00001    2017010120170131Passageiros
00000011312397113         2017010165PD85  PEUGEOT        208            Gasoleo 7300000000000288000000000006600000000354        00001    2017010120170131Passageiros
00000011312397113         2017010165PD85  PEUGEOT        208            Gasoleo 7400000000000069000000000001600000000085        00001    2017010120170131Passageiros
00000011312397113         2017010165PD85  PEUGEOT        208            Gasoleo 9990000000002469000000000056800000003037        00001    2017010120170131Passageiros
00000011312397113         2017010154PE33  PEUGEOT        208            Gasoleo 0110000000006591000000000151600000008107        00001    2017010120170131Passageiros
00000011312397113         2017010154PE33  PEUGEOT        208            Gasoleo 1000000000000255000000000000000000000255        00001    2017010120170131Passageiros
00000011312397113         2017010154PE33  PEUGEOT        208            Gasoleo 1000000000001312000000000000000000001312        00001    2017010120170131Passageiros
00000011312397113         2017010154PE33  PEUGEOT        208            Gasoleo 1000000000000180000000000000000000000180        00001    2017010120170131Passageiros
00000011312397113         2017010154PE33  PEUGEOT        208            Gasoleo 1000000000001304000000000000000000001304        00001    2017010120170131Passageiros
00000011312397113         2017010154PE33  PEUGEOT        208            Gasoleo 1000000000000274000000000000000000000274        00001    2017010120170131Passageiros
00000011312397113         2017010154PE33  PEUGEOT        208            Gasoleo 1000000000001636000000000000000000001636        00001    2017010120170131Passageiros
00000011312397113         2017010154PE33  PEUGEOT        208            Gasoleo 5800000000002710000000000062300000003333        00001    2017010120170131Passageiros
00000011312397113         2017010154PE33  PEUGEOT        208            Gasoleo 5810000000000975000000000022400000001199        00001    2017010120170131Passageiros
00000011312397113         2017010154PE33  PEUGEOT        208            Gasoleo 6200000000000635000000000014600000000781        00001    2017010120170131Passageiros
00000011312397113         2017010154PE33  PEUGEOT        208            Gasoleo 6300000000000058000000000001300000000071        00001    2017010120170131Passageiros
00000011312397113         2017010154PE33  PEUGEOT        208            Gasoleo 6500000000000993000000000022800000001221        00001    2017010120170131Passageiros
00000011312397113         2017010154PE33  PEUGEOT        208            Gasoleo 6700000000000316000000000000000000000316        00001    2017010120170131Passageiros
00000011312397113         2017010154PE33  PEUGEOT        208            Gasoleo 7110000000001000000000000023000000001230        00001    2017010120170131Passageiros
00000011312397113         2017010154PE33  PEUGEOT        208            Gasoleo 7200000000000370000000000008500000000455        00001    2017010120170131Passageiros
00000011312397113         2017010154PE33  PEUGEOT        208            Gasoleo 7300000000000288000000000006600000000354        00001    2017010120170131Passageiros
00000011312397113         2017010154PE33  PEUGEOT        208            Gasoleo 7400000000000069000000000001600000000085        00001    2017010120170131Passageiros
00000011312397113         2017010154PE33  PEUGEOT        208            Gasoleo 9990000000002469000000000056800000003037        00001    2017010120170131Passageiros
00000011312397113         2017010165PD84  PEUGEOT        208            Gasoleo 0110000000009227000000000212200000011349        00002    2017010120170131Passageiros
00000011312397113         2017010165PD84  PEUGEOT        208            Gasoleo 1000000000000283000000000000000000000283        00002    2017010120170131Passageiros
00000011312397113         2017010165PD84  PEUGEOT        208            Gasoleo 1000000000001453000000000000000000001453        00002    2017010120170131Passageiros
00000011312397113         2017010165PD84  PEUGEOT        208            Gasoleo 1000000000000180000000000000000000000180        00002    2017010120170131Passageiros
00000011312397113         2017010165PD84  PEUGEOT        208            Gasoleo 1000000000001304000000000000000000001304        00002    2017010120170131Passageiros
00000011312397113         2017010165PD84  PEUGEOT        208            Gasoleo 1000000000000274000000000000000000000274        00002    2017010120170131Passageiros
00000011312397113         2017010165PD84  PEUGEOT        208            Gasoleo 1000000000001634000000000000000000001634        00002    2017010120170131Passageiros
00000011312397113         2017010165PD84  PEUGEOT        208            Gasoleo 5800000000003080000000000070800000003788        00002    2017010120170131Passageiros
00000011312397113         2017010165PD84  PEUGEOT        208            Gasoleo 5810000000001108000000000025500000001363        00002    2017010120170131Passageiros
00000011312397113         2017010165PD84  PEUGEOT        208            Gasoleo 6200000000000635000000000014600000000781        00002    2017010120170131Passageiros
00000011312397113         2017010165PD84  PEUGEOT        208            Gasoleo 6300000000000058000000000001300000000071        00002    2017010120170131Passageiros
00000011312397113         2017010165PD84  PEUGEOT        208            Gasoleo 6500000000000993000000000022800000001221        00002    2017010120170131Passageiros
00000011312397113         2017010165PD84  PEUGEOT        208            Gasoleo 6700000000000316000000000000000000000316        00002    2017010120170131Passageiros
00000011312397113         2017010165PD84  PEUGEOT        208            Gasoleo 7110000000001000000000000023000000001230        00002    2017010120170131Passageiros
00000011312397113         2017010165PD84  PEUGEOT        208            Gasoleo 7200000000000370000000000008500000000455        00002    2017010120170131Passageiros
00000011312397113         2017010165PD84  PEUGEOT        208            Gasoleo 7300000000000288000000000006600000000354        00002    2017010120170131Passageiros
00000011312397113         2017010165PD84  PEUGEOT        208            Gasoleo 7400000000000069000000000001600000000085        00002    2017010120170131Passageiros
00000011312397113         2017010165PD84  PEUGEOT        208            Gasoleo 9990000000002615000000000060100000003216        00002    2017010120170131Passageiros
00000011312397113         2017010166PB94  FIAT           DOBLO CARGO (26Gasoleo 0110000000016087000000000370000000019787        00001    2017010120170131Mercadorias
00000011312397113         2017010166PB94  FIAT           DOBLO CARGO (26Gasoleo 1000000000001266000000000000000000001266        00001    2017010120170131Mercadorias
00000011312397113         2017010166PB94  FIAT           DOBLO CARGO (26Gasoleo 1000000000000180000000000000000000000180        00001    2017010120170131Mercadorias
00000011312397113         2017010166PB94  FIAT           DOBLO CARGO (26Gasoleo 1000000000001757000000000000000000001757        00001    2017010120170131Mercadorias
00000011312397113         2017010166PB94  FIAT           DOBLO CARGO (26Gasoleo 1000000000000274000000000000000000000274        00001    2017010120170131Mercadorias
00000011312397113         2017010166PB94  FIAT           DOBLO CARGO (26Gasoleo 1000000000002172000000000000000000002172        00001    2017010120170131Mercadorias
00000011312397113         2017010166PB94  FIAT           DOBLO CARGO (26Gasoleo 5800000000002510000000000057700000003087        00001    2017010120170131Mercadorias
00000011312397113         2017010166PB94  FIAT           DOBLO CARGO (26Gasoleo 5810000000001145000000000026300000001408        00001    2017010120170131Mercadorias
00000011312397113         2017010166PB94  FIAT           DOBLO CARGO (26Gasoleo 6200000000000635000000000014600000000781        00001    2017010120170131Mercadorias
00000011312397113         2017010166PB94  FIAT           DOBLO CARGO (26Gasoleo 6300000000000169000000000003900000000208        00001    2017010120170131Mercadorias
00000011312397113         2017010166PB94  FIAT           DOBLO CARGO (26Gasoleo 6500000000000225000000000005200000000277        00001    2017010120170131Mercadorias
00000011312397113         2017010166PB94  FIAT           DOBLO CARGO (26Gasoleo 6700000000000316000000000000000000000316        00001    2017010120170131Mercadorias
00000011312397113         2017010166PB94  FIAT           DOBLO CARGO (26Gasoleo 7110000000001000000000000023000000001230        00001    2017010120170131Mercadorias
00000011312397113         2017010166PB94  FIAT           DOBLO CARGO (26Gasoleo 7200000000000370000000000008500000000455        00001    2017010120170131Mercadorias
00000011312397113         2017010166PB94  FIAT           DOBLO CARGO (26Gasoleo 7300000000000288000000000006600000000354        00001    2017010120170131Mercadorias
00000011312397113         2017010166PB94  FIAT           DOBLO CARGO (26Gasoleo 7400000000000069000000000001600000000085        00001    2017010120170131Mercadorias
00000011312397113         2017010166PB94  FIAT           DOBLO CARGO (26Gasoleo 9990000000002079000000000047800000002557        00001    2017010120170131Mercadorias
00000011312397113         2017010194PE99  RENAULT        MEGANE III SPORGasoleo 0110000000014478000000000333000000017808        00001    2017010120170131Passageiros
00000011312397113         2017010194PE99  RENAULT        MEGANE III SPORGasoleo 1000000000001969000000000000000000001969        00001    2017010120170131Passageiros
00000011312397113         2017010194PE99  RENAULT        MEGANE III SPORGasoleo 1000000000000180000000000000000000000180        00001    2017010120170131Passageiros
00000011312397113         2017010194PE99  RENAULT        MEGANE III SPORGasoleo 1000000000001304000000000000000000001304        00001    2017010120170131Passageiros
00000011312397113         2017010194PE99  RENAULT        MEGANE III SPORGasoleo 1000000000000274000000000000000000000274        00001    2017010120170131Passageiros
00000011312397113         2017010194PE99  RENAULT        MEGANE III SPORGasoleo 1000000000001636000000000000000000001636        00001    2017010120170131Passageiros
00000011312397113         2017010194PE99  RENAULT        MEGANE III SPORGasoleo 5800000000002698000000000062100000003319        00001    2017010120170131Passageiros
00000011312397113         2017010194PE99  RENAULT        MEGANE III SPORGasoleo 5810000000001215000000000027900000001494        00001    2017010120170131Passageiros
00000011312397113         2017010194PE99  RENAULT        MEGANE III SPORGasoleo 6200000000000635000000000014600000000781        00001    2017010120170131Passageiros
00000011312397113         2017010194PE99  RENAULT        MEGANE III SPORGasoleo 6300000000000058000000000001300000000071        00001    2017010120170131Passageiros
00000011312397113         2017010194PE99  RENAULT        MEGANE III SPORGasoleo 6500000000000993000000000022800000001221        00001    2017010120170131Passageiros
00000011312397113         2017010194PE99  RENAULT        MEGANE III SPORGasoleo 6700000000000316000000000000000000000316        00001    2017010120170131Passageiros
00000011312397113         2017010194PE99  RENAULT        MEGANE III SPORGasoleo 7110000000001000000000000023000000001230        00001    2017010120170131Passageiros
00000011312397113         2017010194PE99  RENAULT        MEGANE III SPORGasoleo 7200000000000370000000000008500000000455        00001    2017010120170131Passageiros
00000011312397113         2017010194PE99  RENAULT        MEGANE III SPORGasoleo 7300000000000288000000000006600000000354        00001    2017010120170131Passageiros
00000011312397113         2017010194PE99  RENAULT        MEGANE III SPORGasoleo 7400000000000069000000000001600000000085        00001    2017010120170131Passageiros
00000011312397113         2017010194PE99  RENAULT        MEGANE III SPORGasoleo 9990000000003438000000000079100000004229        00001    2017010120170131Passageiros
00000011312397113         2017010194PE98  RENAULT        MEGANE III SPORGasoleo 0110000000014478000000000333000000017808        00001    2017010120170131Passageiros
00000011312397113         2017010194PE98  RENAULT        MEGANE III SPORGasoleo 1000000000001969000000000000000000001969        00001    2017010120170131Passageiros
00000011312397113         2017010194PE98  RENAULT        MEGANE III SPORGasoleo 1000000000000180000000000000000000000180        00001    2017010120170131Passageiros
00000011312397113         2017010194PE98  RENAULT        MEGANE III SPORGasoleo 1000000000001304000000000000000000001304        00001    2017010120170131Passageiros
00000011312397113         2017010194PE98  RENAULT        MEGANE III SPORGasoleo 1000000000000274000000000000000000000274        00001    2017010120170131Passageiros
00000011312397113         2017010194PE98  RENAULT        MEGANE III SPORGasoleo 1000000000001636000000000000000000001636        00001    2017010120170131Passageiros
00000011312397113         2017010194PE98  RENAULT        MEGANE III SPORGasoleo 5800000000002698000000000062100000003319        00001    2017010120170131Passageiros
00000011312397113         2017010194PE98  RENAULT        MEGANE III SPORGasoleo 5810000000001215000000000027900000001494        00001    2017010120170131Passageiros
00000011312397113         2017010194PE98  RENAULT        MEGANE III SPORGasoleo 6200000000000635000000000014600000000781        00001    2017010120170131Passageiros
00000011312397113         2017010194PE98  RENAULT        MEGANE III SPORGasoleo 6300000000000058000000000001300000000071        00001    2017010120170131Passageiros
00000011312397113         2017010194PE98  RENAULT        MEGANE III SPORGasoleo 6500000000000993000000000022800000001221        00001    2017010120170131Passageiros
00000011312397113         2017010194PE98  RENAULT        MEGANE III SPORGasoleo 6700000000000316000000000000000000000316        00001    2017010120170131Passageiros
00000011312397113         2017010194PE98  RENAULT        MEGANE III SPORGasoleo 7110000000001000000000000023000000001230        00001    2017010120170131Passageiros
00000011312397113         2017010194PE98  RENAULT        MEGANE III SPORGasoleo 7200000000000370000000000008500000000455        00001    2017010120170131Passageiros
00000011312397113         2017010194PE98  RENAULT        MEGANE III SPORGasoleo 7300000000000288000000000006600000000354        00001    2017010120170131Passageiros
00000011312397113         2017010194PE98  RENAULT        MEGANE III SPORGasoleo 7400000000000069000000000001600000000085        00001    2017010120170131Passageiros
00000011312397113         2017010194PE98  RENAULT        MEGANE III SPORGasoleo 9990000000003438000000000079100000004229        00001    2017010120170131Passageiros
00000011312397113         2017010134PD47  FIAT           FIORINO (225)  Gasoleo 0110000000014351000000000330100000017652        00001    2017010120170131Mercadorias
00000011312397113         2017010134PD47  FIAT           FIORINO (225)  Gasoleo 1000000000001257000000000000000000001257        00001    2017010120170131Mercadorias
00000011312397113         2017010134PD47  FIAT           FIORINO (225)  Gasoleo 1000000000000180000000000000000000000180        00001    2017010120170131Mercadorias
00000011312397113         2017010134PD47  FIAT           FIORINO (225)  Gasoleo 1000000000001304000000000000000000001304        00001    2017010120170131Mercadorias
00000011312397113         2017010134PD47  FIAT           FIORINO (225)  Gasoleo 1000000000000274000000000000000000000274        00001    2017010120170131Mercadorias
00000011312397113         2017010134PD47  FIAT           FIORINO (225)  Gasoleo 1000000000002042000000000000000000002042        00001    2017010120170131Mercadorias
00000011312397113         2017010134PD47  FIAT           FIORINO (225)  Gasoleo 5800000000002633000000000060600000003239        00001    2017010120170131Mercadorias
