47171609521JLD 001Renting                            000347745THYSSENKRUPP ELEVADORES SLU        P0000500008103030 BARCELONA                    000000115432100133814182017091          EP2017090120170930FB46001897A78007473
47171609521JLD 003Seguro                             000347745THYSSENKRUPP ELEVADORES SLU        P0000500008103030 BARCELONA                    000000056612100133814182017091          EP2017090120170930FB46001897A78007473
47171609521JLD 005ITV                                000347745THYSSENKRUPP ELEVADORES SLU        P0000500008103030 BARCELONA                    000000001692100133814182017091          EP2017090120170930FB46001897A78007473
47171609521JLD 002Mantenim.                          000347745THYSSENKRUPP ELEVADORES SLU        P0000500008103030 BARCELONA                    000000038802100133814182017091          EP2017090120170930FB46001897A78007473
47171609521JLD 004Administ.                          000347745THYSSENKRUPP ELEVADORES SLU        P0000500008103030 BARCELONA                    000000010002100133814182017091          EP2017090120170930FB46001897A78007473
