00000011312344980         2016100197NA01  VW             POLO VAN       Gasoleo 0110000000001297000000000029800000001595        00001    2016071620160718Mercadorias
00000011312344980         2016100197NA01  VW             POLO VAN       Gasoleo 1000000000000019000000000000000000000019        00001    2016071620160718Mercadorias
00000011312344980         2016100197NA01  VW             POLO VAN       Gasoleo 1000000000000105000000000000000000000105        00001    2016071620160718Mercadorias
00000011312344980         2016100197NA01  VW             POLO VAN       Gasoleo 1000000000000010000000000000000000000010        00001    2016071620160718Mercadorias
00000011312344980         2016100197NA01  VW             POLO VAN       Gasoleo 1000000000000090000000000000000000000090        00001    2016071620160718Mercadorias
00000011312344980         2016100197NA01  VW             POLO VAN       Gasoleo 1000000000000017000000000000000000000017        00001    2016071620160718Mercadorias
00000011312344980         2016100197NA01  VW             POLO VAN       Gasoleo 1000000000000010000000000000000000000010        00001    2016071620160718Mercadorias
00000011312344980         2016100197NA01  VW             POLO VAN       Gasoleo 5800000000000274000000000006300000000337        00001    2016071620160718Mercadorias
00000011312344980         2016100197NA01  VW             POLO VAN       Gasoleo 5810000000000175000000000004000000000215        00001    2016071620160718Mercadorias
00000011312344980         2016100197NA01  VW             POLO VAN       Gasoleo 6200000000000061000000000001400000000075        00001    2016071620160718Mercadorias
00000011312344980         2016100197NA01  VW             POLO VAN       Gasoleo 6500000000000021000000000000500000000026        00001    2016071620160718Mercadorias
00000011312344980         2016100197NA01  VW             POLO VAN       Gasoleo 6700000000000031000000000000000000000031        00001    2016071620160718Mercadorias
00000011312344980         2016100197NA01  VW             POLO VAN       Gasoleo 7110000000000048000000000001100000000059        00001    2016071620160718Mercadorias
00000011312344980         2016100197NA01  VW             POLO VAN       Gasoleo 7200000000000036000000000000800000000044        00001    2016071620160718Mercadorias
00000011312344980         2016100197NA01  VW             POLO VAN       Gasoleo 7300000000000023000000000000500000000028        00001    2016071620160718Mercadorias
00000011312344980         2016100197NA01  VW             POLO VAN       Gasoleo 7400000000000005000000000000100000000006        00001    2016071620160718Mercadorias
00000011312344980         2016100197NA01  VW             POLO VAN       Gasoleo 9990000000000460000000000010600000000566        00001    2016071620160718Mercadorias
00000011312344980         2016100152MV45  FIAT           FIORINO (225)  Gasoleo 0110000000001428000000000032800000001756        00001    2016071620160718Mercadorias
00000011312344980         2016100152MV45  FIAT           FIORINO (225)  Gasoleo 1000000000000014000000000000000000000014        00001    2016071620160718Mercadorias
00000011312344980         2016100152MV45  FIAT           FIORINO (225)  Gasoleo 1000000000000072000000000000000000000072        00001    2016071620160718Mercadorias
00000011312344980         2016100152MV45  FIAT           FIORINO (225)  Gasoleo 1000000000000010000000000000000000000010        00001    2016071620160718Mercadorias
00000011312344980         2016100152MV45  FIAT           FIORINO (225)  Gasoleo 1000000000000137000000000000000000000137        00001    2016071620160718Mercadorias
00000011312344980         2016100152MV45  FIAT           FIORINO (225)  Gasoleo 1000000000000017000000000000000000000017        00001    2016071620160718Mercadorias
00000011312344980         2016100152MV45  FIAT           FIORINO (225)  Gasoleo 1000000000000010000000000000000000000010        00001    2016071620160718Mercadorias
00000011312344980         2016100152MV45  FIAT           FIORINO (225)  Gasoleo 5800000000000302000000000006900000000371        00001    2016071620160718Mercadorias
00000011312344980         2016100152MV45  FIAT           FIORINO (225)  Gasoleo 5810000000000139000000000003200000000171        00001    2016071620160718Mercadorias
00000011312344980         2016100152MV45  FIAT           FIORINO (225)  Gasoleo 6200000000000061000000000001400000000075        00001    2016071620160718Mercadorias
00000011312344980         2016100152MV45  FIAT           FIORINO (225)  Gasoleo 6500000000000021000000000000500000000026        00001    2016071620160718Mercadorias
00000011312344980         2016100152MV45  FIAT           FIORINO (225)  Gasoleo 6700000000000031000000000000000000000031        00001    2016071620160718Mercadorias
00000011312344980         2016100152MV45  FIAT           FIORINO (225)  Gasoleo 7110000000000048000000000001100000000059        00001    2016071620160718Mercadorias
00000011312344980         2016100152MV45  FIAT           FIORINO (225)  Gasoleo 7200000000000036000000000000800000000044        00001    2016071620160718Mercadorias
00000011312344980         2016100152MV45  FIAT           FIORINO (225)  Gasoleo 7300000000000023000000000000500000000028        00001    2016071620160718Mercadorias
00000011312344980         2016100152MV45  FIAT           FIORINO (225)  Gasoleo 7400000000000005000000000000100000000006        00001    2016071620160718Mercadorias
00000011312344980         2016100152MV45  FIAT           FIORINO (225)  Gasoleo 9990000000000343000000000007900000000422        00001    2016071620160718Mercadorias
00000011312344980         2016100121NB04  VW             POLO VAN       Gasoleo 0110000000001297000000000029800000001595        00001    2016071620160718Mercadorias
00000011312344980         2016100121NB04  VW             POLO VAN       Gasoleo 1000000000000019000000000000000000000019        00001    2016071620160718Mercadorias
00000011312344980         2016100121NB04  VW             POLO VAN       Gasoleo 1000000000000105000000000000000000000105        00001    2016071620160718Mercadorias
00000011312344980         2016100121NB04  VW             POLO VAN       Gasoleo 1000000000000010000000000000000000000010        00001    2016071620160718Mercadorias
00000011312344980         2016100121NB04  VW             POLO VAN       Gasoleo 1000000000000090000000000000000000000090        00001    2016071620160718Mercadorias
00000011312344980         2016100121NB04  VW             POLO VAN       Gasoleo 1000000000000017000000000000000000000017        00001    2016071620160718Mercadorias
00000011312344980         2016100121NB04  VW             POLO VAN       Gasoleo 1000000000000010000000000000000000000010        00001    2016071620160718Mercadorias
00000011312344980         2016100121NB04  VW             POLO VAN       Gasoleo 5800000000000274000000000006300000000337        00001    2016071620160718Mercadorias
00000011312344980         2016100121NB04  VW             POLO VAN       Gasoleo 5810000000000175000000000004000000000215        00001    2016071620160718Mercadorias
00000011312344980         2016100121NB04  VW             POLO VAN       Gasoleo 6200000000000061000000000001400000000075        00001    2016071620160718Mercadorias
00000011312344980         2016100121NB04  VW             POLO VAN       Gasoleo 6500000000000021000000000000500000000026        00001    2016071620160718Mercadorias
00000011312344980         2016100121NB04  VW             POLO VAN       Gasoleo 6700000000000031000000000000000000000031        00001    2016071620160718Mercadorias
00000011312344980         2016100121NB04  VW             POLO VAN       Gasoleo 7110000000000048000000000001100000000059        00001    2016071620160718Mercadorias
00000011312344980         2016100121NB04  VW             POLO VAN       Gasoleo 7200000000000036000000000000800000000044        00001    2016071620160718Mercadorias
00000011312344980         2016100121NB04  VW             POLO VAN       Gasoleo 7300000000000023000000000000500000000028        00001    2016071620160718Mercadorias
00000011312344980         2016100121NB04  VW             POLO VAN       Gasoleo 7400000000000005000000000000100000000006        00001    2016071620160718Mercadorias
00000011312344980         2016100121NB04  VW             POLO VAN       Gasoleo 9990000000000460000000000010600000000566        00001    2016071620160718Mercadorias
00000011312344980         2016100104NA15  FIAT           FIORINO (225)  Gasoleo 0110000000001428000000000032800000001756        00001    2016071620160718Mercadorias
00000011312344980         2016100104NA15  FIAT           FIORINO (225)  Gasoleo 1000000000000014000000000000000000000014        00001    2016071620160718Mercadorias
00000011312344980         2016100104NA15  FIAT           FIORINO (225)  Gasoleo 1000000000000073000000000000000000000073        00001    2016071620160718Mercadorias
00000011312344980         2016100104NA15  FIAT           FIORINO (225)  Gasoleo 1000000000000010000000000000000000000010        00001    2016071620160718Mercadorias
00000011312344980         2016100104NA15  FIAT           FIORINO (225)  Gasoleo 1000000000000137000000000000000000000137        00001    2016071620160718Mercadorias
00000011312344980         2016100104NA15  FIAT           FIORINO (225)  Gasoleo 1000000000000017000000000000000000000017        00001    2016071620160718Mercadorias
00000011312344980         2016100104NA15  FIAT           FIORINO (225)  Gasoleo 1000000000000010000000000000000000000010        00001    2016071620160718Mercadorias
00000011312344980         2016100104NA15  FIAT           FIORINO (225)  Gasoleo 5800000000000302000000000006900000000371        00001    2016071620160718Mercadorias
00000011312344980         2016100104NA15  FIAT           FIORINO (225)  Gasoleo 5810000000000139000000000003200000000171        00001    2016071620160718Mercadorias
00000011312344980         2016100104NA15  FIAT           FIORINO (225)  Gasoleo 6200000000000061000000000001400000000075        00001    2016071620160718Mercadorias
00000011312344980         2016100104NA15  FIAT           FIORINO (225)  Gasoleo 6500000000000021000000000000500000000026        00001    2016071620160718Mercadorias
00000011312344980         2016100104NA15  FIAT           FIORINO (225)  Gasoleo 6700000000000031000000000000000000000031        00001    2016071620160718Mercadorias
00000011312344980         2016100104NA15  FIAT           FIORINO (225)  Gasoleo 7110000000000048000000000001100000000059        00001    2016071620160718Mercadorias
00000011312344980         2016100104NA15  FIAT           FIORINO (225)  Gasoleo 7200000000000036000000000000800000000044        00001    2016071620160718Mercadorias
00000011312344980         2016100104NA15  FIAT           FIORINO (225)  Gasoleo 7300000000000023000000000000500000000028        00001    2016071620160718Mercadorias
00000011312344980         2016100104NA15  FIAT           FIORINO (225)  Gasoleo 7400000000000005000000000000100000000006        00001    2016071620160718Mercadorias
00000011312344980         2016100104NA15  FIAT           FIORINO (225)  Gasoleo 9990000000000343000000000007900000000422        00001    2016071620160718Mercadorias
00000011312344980         2016100121NB05  VW             POLO VAN       Gasoleo 0110000000001297000000000029800000001595        00001    2016071620160718Mercadorias
00000011312344980         2016100121NB05  VW             POLO VAN       Gasoleo 1000000000000019000000000000000000000019        00001    2016071620160718Mercadorias
00000011312344980         2016100121NB05  VW             POLO VAN       Gasoleo 1000000000000105000000000000000000000105        00001    2016071620160718Mercadorias
00000011312344980         2016100121NB05  VW             POLO VAN       Gasoleo 1000000000000010000000000000000000000010        00001    2016071620160718Mercadorias
00000011312344980         2016100121NB05  VW             POLO VAN       Gasoleo 1000000000000090000000000000000000000090        00001    2016071620160718Mercadorias
00000011312344980         2016100121NB05  VW             POLO VAN       Gasoleo 1000000000000017000000000000000000000017        00001    2016071620160718Mercadorias
00000011312344980         2016100121NB05  VW             POLO VAN       Gasoleo 1000000000000010000000000000000000000010        00001    2016071620160718Mercadorias
00000011312344980         2016100121NB05  VW             POLO VAN       Gasoleo 5800000000000274000000000006300000000337        00001    2016071620160718Mercadorias
00000011312344980         2016100121NB05  VW             POLO VAN       Gasoleo 5810000000000175000000000004000000000215        00001    2016071620160718Mercadorias
00000011312344980         2016100121NB05  VW             POLO VAN       Gasoleo 6200000000000061000000000001400000000075        00001    2016071620160718Mercadorias
00000011312344980         2016100121NB05  VW             POLO VAN       Gasoleo 6500000000000021000000000000500000000026        00001    2016071620160718Mercadorias
00000011312344980         2016100121NB05  VW             POLO VAN       Gasoleo 6700000000000031000000000000000000000031        00001    2016071620160718Mercadorias
00000011312344980         2016100121NB05  VW             POLO VAN       Gasoleo 7110000000000048000000000001100000000059        00001    2016071620160718Mercadorias
00000011312344980         2016100121NB05  VW             POLO VAN       Gasoleo 7200000000000036000000000000800000000044        00001    2016071620160718Mercadorias
00000011312344980         2016100121NB05  VW             POLO VAN       Gasoleo 7300000000000023000000000000500000000028        00001    2016071620160718Mercadorias
00000011312344980         2016100121NB05  VW             POLO VAN       Gasoleo 7400000000000005000000000000100000000006        00001    2016071620160718Mercadorias
00000011312344980         2016100121NB05  VW             POLO VAN       Gasoleo 9990000000000460000000000010600000000566        00001    2016071620160718Mercadorias
00000011312344980         2016100196NA98  VW             POLO VAN       Gasoleo 0110000000001297000000000029800000001595        00001    2016071620160718Mercadorias
00000011312344980         2016100196NA98  VW             POLO VAN       Gasoleo 1000000000000019000000000000000000000019        00001    2016071620160718Mercadorias
00000011312344980         2016100196NA98  VW             POLO VAN       Gasoleo 1000000000000105000000000000000000000105        00001    2016071620160718Mercadorias
00000011312344980         2016100196NA98  VW             POLO VAN       Gasoleo 1000000000000010000000000000000000000010        00001    2016071620160718Mercadorias
00000011312344980         2016100196NA98  VW             POLO VAN       Gasoleo 1000000000000090000000000000000000000090        00001    2016071620160718Mercadorias
00000011312344980         2016100196NA98  VW             POLO VAN       Gasoleo 1000000000000017000000000000000000000017        00001    2016071620160718Mercadorias
00000011312344980         2016100196NA98  VW             POLO VAN       Gasoleo 1000000000000010000000000000000000000010        00001    2016071620160718Mercadorias
00000011312344980         2016100196NA98  VW             POLO VAN       Gasoleo 5800000000000274000000000006300000000337        00001    2016071620160718Mercadorias
00000011312344980         2016100196NA98  VW             POLO VAN       Gasoleo 5810000000000175000000000004000000000215        00001    2016071620160718Mercadorias
00000011312344980         2016100196NA98  VW             POLO VAN       Gasoleo 6200000000000061000000000001400000000075        00001    2016071620160718Mercadorias
00000011312344980         2016100196NA98  VW             POLO VAN       Gasoleo 6500000000000021000000000000500000000026        00001    2016071620160718Mercadorias
00000011312344980         2016100196NA98  VW             POLO VAN       Gasoleo 6700000000000031000000000000000000000031        00001    2016071620160718Mercadorias
00000011312344980         2016100196NA98  VW             POLO VAN       Gasoleo 7110000000000048000000000001100000000059        00001    2016071620160718Mercadorias
00000011312344980         2016100196NA98  VW             POLO VAN       Gasoleo 7200000000000036000000000000800000000044        00001    2016071620160718Mercadorias
00000011312344980         2016100196NA98  VW             POLO VAN       Gasoleo 7300000000000023000000000000500000000028        00001    2016071620160718Mercadorias
00000011312344980         2016100196NA98  VW             POLO VAN       Gasoleo 7400000000000005000000000000100000000006        00001    2016071620160718Mercadorias
00000011312344980         2016100196NA98  VW             POLO VAN       Gasoleo 9990000000000460000000000010600000000566        00001    2016071620160718Mercadorias
00000011312344980         2016100120NB42  VW             POLO VAN       Gasoleo 0110000000001297000000000029800000001595        00001    2016071620160718Mercadorias
00000011312344980         2016100120NB42  VW             POLO VAN       Gasoleo 1000000000000019000000000000000000000019        00001    2016071620160718Mercadorias
00000011312344980         2016100120NB42  VW             POLO VAN       Gasoleo 1000000000000105000000000000000000000105        00001    2016071620160718Mercadorias
00000011312344980         2016100120NB42  VW             POLO VAN       Gasoleo 1000000000000010000000000000000000000010        00001    2016071620160718Mercadorias
00000011312344980         2016100120NB42  VW             POLO VAN       Gasoleo 1000000000000090000000000000000000000090        00001    2016071620160718Mercadorias
00000011312344980         2016100120NB42  VW             POLO VAN       Gasoleo 1000000000000017000000000000000000000017        00001    2016071620160718Mercadorias
00000011312344980         2016100120NB42  VW             POLO VAN       Gasoleo 1000000000000010000000000000000000000010        00001    2016071620160718Mercadorias
00000011312344980         2016100120NB42  VW             POLO VAN       Gasoleo 5800000000000274000000000006300000000337        00001    2016071620160718Mercadorias
00000011312344980         2016100120NB42  VW             POLO VAN       Gasoleo 5810000000000175000000000004000000000215        00001    2016071620160718Mercadorias
00000011312344980         2016100120NB42  VW             POLO VAN       Gasoleo 6200000000000061000000000001400000000075        00001    2016071620160718Mercadorias
00000011312344980         2016100120NB42  VW             POLO VAN       Gasoleo 6500000000000021000000000000500000000026        00001    2016071620160718Mercadorias
00000011312344980         2016100120NB42  VW             POLO VAN       Gasoleo 6700000000000031000000000000000000000031        00001    2016071620160718Mercadorias
00000011312344980         2016100120NB42  VW             POLO VAN       Gasoleo 7110000000000048000000000001100000000059        00001    2016071620160718Mercadorias
00000011312344980         2016100120NB42  VW             POLO VAN       Gasoleo 7200000000000036000000000000800000000044        00001    2016071620160718Mercadorias
00000011312344980         2016100120NB42  VW             POLO VAN       Gasoleo 7300000000000023000000000000500000000028        00001    2016071620160718Mercadorias
00000011312344980         2016100120NB42  VW             POLO VAN       Gasoleo 7400000000000005000000000000100000000006        00001    2016071620160718Mercadorias
00000011312344980         2016100120NB42  VW             POLO VAN       Gasoleo 9990000000000460000000000010600000000566        00001    2016071620160718Mercadorias
00000011312344980         2016100196NA99  VW             POLO VAN       Gasoleo 0110000000001297000000000029800000001595        00001    2016071620160718Mercadorias
00000011312344980         2016100196NA99  VW             POLO VAN       Gasoleo 1000000000000019000000000000000000000019        00001    2016071620160718Mercadorias
00000011312344980         2016100196NA99  VW             POLO VAN       Gasoleo 1000000000000105000000000000000000000105        00001    2016071620160718Mercadorias
00000011312344980         2016100196NA99  VW             POLO VAN       Gasoleo 1000000000000010000000000000000000000010        00001    2016071620160718Mercadorias
00000011312344980         2016100196NA99  VW             POLO VAN       Gasoleo 1000000000000090000000000000000000000090        00001    2016071620160718Mercadorias
00000011312344980         2016100196NA99  VW             POLO VAN       Gasoleo 1000000000000017000000000000000000000017        00001    2016071620160718Mercadorias
00000011312344980         2016100196NA99  VW             POLO VAN       Gasoleo 1000000000000010000000000000000000000010        00001    2016071620160718Mercadorias
00000011312344980         2016100196NA99  VW             POLO VAN       Gasoleo 5800000000000274000000000006300000000337        00001    2016071620160718Mercadorias
00000011312344980         2016100196NA99  VW             POLO VAN       Gasoleo 5810000000000175000000000004000000000215        00001    2016071620160718Mercadorias
00000011312344980         2016100196NA99  VW             POLO VAN       Gasoleo 6200000000000061000000000001400000000075        00001    2016071620160718Mercadorias
00000011312344980         2016100196NA99  VW             POLO VAN       Gasoleo 6500000000000021000000000000500000000026        00001    2016071620160718Mercadorias
00000011312344980         2016100196NA99  VW             POLO VAN       Gasoleo 6700000000000031000000000000000000000031        00001    2016071620160718Mercadorias
00000011312344980         2016100196NA99  VW             POLO VAN       Gasoleo 7110000000000048000000000001100000000059        00001    2016071620160718Mercadorias
00000011312344980         2016100196NA99  VW             POLO VAN       Gasoleo 7200000000000036000000000000800000000044        00001    2016071620160718Mercadorias
00000011312344980         2016100196NA99  VW             POLO VAN       Gasoleo 7300000000000023000000000000500000000028        00001    2016071620160718Mercadorias
00000011312344980         2016100196NA99  VW             POLO VAN       Gasoleo 7400000000000005000000000000100000000006        00001    2016071620160718Mercadorias
00000011312344980         2016100196NA99  VW             POLO VAN       Gasoleo 9990000000000460000000000010600000000566        00001    2016071620160718Mercadorias
00000011312344980         2016100199LS70  AUDI           A4 AVANT (B8)  Gasoleo 0110000000032270000000000742200000039692        00001    2016100120161031Passageiros
00000011312344980         2016100199LS70  AUDI           A4 AVANT (B8)  Gasoleo 1000000000000597000000000000000000000597        00001    2016100120161031Passageiros
00000011312344980         2016100199LS70  AUDI           A4 AVANT (B8)  Gasoleo 1000000000001536000000000000000000001536        00001    2016100120161031Passageiros
00000011312344980         2016100199LS70  AUDI           A4 AVANT (B8)  Gasoleo 1000000000000100000000000000000000000100        00001    2016100120161031Passageiros
00000011312344980         2016100199LS70  AUDI           A4 AVANT (B8)  Gasoleo 1000000000000166000000000000000000000166        00001    2016100120161031Passageiros
00000011312344980         2016100199LS70  AUDI           A4 AVANT (B8)  Gasoleo 1000000000000175000000000000000000000175        00001    2016100120161031Passageiros
00000011312344980         2016100199LS70  AUDI           A4 AVANT (B8)  Gasoleo 1000000000000100000000000000000000000100        00001    2016100120161031Passageiros
00000011312344980         2016100199LS70  AUDI           A4 AVANT (B8)  Gasoleo 5800000000004149000000000095400000005103        00001    2016100120161031Passageiros
00000011312344980         2016100199LS70  AUDI           A4 AVANT (B8)  Gasoleo 5810000000002707000000000062300000003330        00001    2016100120161031Passageiros
00000011312344980         2016100199LS70  AUDI           A4 AVANT (B8)  Gasoleo 6300000000000045000000000001000000000055        00001    2016100120161031Passageiros
00000011312344980         2016100199LS70  AUDI           A4 AVANT (B8)  Gasoleo 6500000000001831000000000042100000002252        00001    2016100120161031Passageiros
00000011312344980         2016100199LS70  AUDI           A4 AVANT (B8)  Gasoleo 6700000000000316000000000000000000000316        00001    2016100120161031Passageiros
00000011312344980         2016100199LS70  AUDI           A4 AVANT (B8)  Gasoleo 7110000000001000000000000023000000001230        00001    2016100120161031Passageiros
00000011312344980         2016100199LS70  AUDI           A4 AVANT (B8)  Gasoleo 5800000000000744000000000017100000000915        00001    2016100120161031Passageiros
00000011312344980         2016100199LS70  AUDI           A4 AVANT (B8)  Gasoleo 5810000000000553000000000012700000000680        00001    2016100120161031Passageiros
00000011312344980         2016100199LS70  AUDI           A4 AVANT (B8)  Gasoleo 7300000000000237000000000005500000000292        00001    2016100120161031Passageiros
00000011312344980         2016100199LS70  AUDI           A4 AVANT (B8)  Gasoleo 7400000000000050000000000001200000000062        00001    2016100120161031Passageiros
00000011312344980         2016100199LS70  AUDI           A4 AVANT (B8)  Gasoleo 9990000000015259000000000351000000018769        00001    2016100120161031Passageiros
00000011312344980         2016100104NA18  FIAT           FIORINO (225)  Gasoleo 0110000000014760000000000339500000018155        00001    2016100120161031Mercadorias
00000011312344980         2016100104NA18  FIAT           FIORINO (225)  Gasoleo 1000000000000148000000000000000000000148        00001    2016100120161031Mercadorias
00000011312344980         2016100104NA18  FIAT           FIORINO (225)  Gasoleo 1000000000000759000000000000000000000759        00001    2016100120161031Mercadorias
00000011312344980         2016100104NA18  FIAT           FIORINO (225)  Gasoleo 1000000000000100000000000000000000000100        00001    2016100120161031Mercadorias
00000011312344980         2016100104NA18  FIAT           FIORINO (225)  Gasoleo 1000000000001414000000000000000000001414        00001    2016100120161031Mercadorias
00000011312344980         2016100104NA18  FIAT           FIORINO (225)  Gasoleo 1000000000000175000000000000000000000175        00001    2016100120161031Mercadorias
00000011312344980         2016100104NA18  FIAT           FIORINO (225)  Gasoleo 1000000000000100000000000000000000000100        00001    2016100120161031Mercadorias
00000011312344980         2016100104NA18  FIAT           FIORINO (225)  Gasoleo 5800000000003123000000000071800000003841        00001    2016100120161031Mercadorias
00000011312344980         2016100104NA18  FIAT           FIORINO (225)  Gasoleo 5810000000001440000000000033100000001771        00001    2016100120161031Mercadorias
00000011312344980         2016100104NA18  FIAT           FIORINO (225)  Gasoleo 6200000000000629000000000014500000000774        00001    2016100120161031Mercadorias
00000011312344980         2016100104NA18  FIAT           FIORINO (225)  Gasoleo 6500000000000218000000000005000000000268        00001    2016100120161031Mercadorias
00000011312344980         2016100104NA18  FIAT           FIORINO (225)  Gasoleo 6700000000000316000000000000000000000316        00001    2016100120161031Mercadorias
00000011312344980         2016100104NA18  FIAT           FIORINO (225)  Gasoleo 7110000000000500000000000011500000000615        00001    2016100120161031Mercadorias
00000011312344980         2016100104NA18  FIAT           FIORINO (225)  Gasoleo 7200000000000367000000000008400000000451        00001    2016100120161031Mercadorias
00000011312344980         2016100104NA18  FIAT           FIORINO (225)  Gasoleo 7300000000000237000000000005500000000292        00001    2016100120161031Mercadorias
00000011312344980         2016100104NA18  FIAT           FIORINO (225)  Gasoleo 7400000000000050000000000001200000000062        00001    2016100120161031Mercadorias
00000011312344980         2016100104NA18  FIAT           FIORINO (225)  Gasoleo 9990000000003543000000000081500000004358        00001    2016100120161031Mercadorias
00000011312344980         2016100104NA12  FIAT           FIORINO (225)  Gasoleo 0110000000016388000000000376900000020157        00001    2016100120161031Mercadorias
00000011312344980         2016100104NA12  FIAT           FIORINO (225)  Gasoleo 1000000000000148000000000000000000000148        00001    2016100120161031Mercadorias
00000011312344980         2016100104NA12  FIAT           FIORINO (225)  Gasoleo 1000000000000759000000000000000000000759        00001    2016100120161031Mercadorias
00000011312344980         2016100104NA12  FIAT           FIORINO (225)  Gasoleo 1000000000000100000000000000000000000100        00001    2016100120161031Mercadorias
00000011312344980         2016100104NA12  FIAT           FIORINO (225)  Gasoleo 1000000000001414000000000000000000001414        00001    2016100120161031Mercadorias
00000011312344980         2016100104NA12  FIAT           FIORINO (225)  Gasoleo 1000000000000175000000000000000000000175        00001    2016100120161031Mercadorias
00000011312344980         2016100104NA12  FIAT           FIORINO (225)  Gasoleo 1000000000000100000000000000000000000100        00001    2016100120161031Mercadorias
00000011312344980         2016100104NA12  FIAT           FIORINO (225)  Gasoleo 5800000000004711000000000108400000005795        00001    2016100120161031Mercadorias
00000011312344980         2016100104NA12  FIAT           FIORINO (225)  Gasoleo 5810000000001807000000000041600000002223        00001    2016100120161031Mercadorias
00000011312344980         2016100104NA12  FIAT           FIORINO (225)  Gasoleo 6200000000000629000000000014500000000774        00001    2016100120161031Mercadorias
00000011312344980         2016100104NA12  FIAT           FIORINO (225)  Gasoleo 6300000000000169000000000003900000000208        00001    2016100120161031Mercadorias
00000011312344980         2016100104NA12  FIAT           FIORINO (225)  Gasoleo 6500000000000218000000000005000000000268        00001    2016100120161031Mercadorias
00000011312344980         2016100104NA12  FIAT           FIORINO (225)  Gasoleo 6700000000000316000000000000000000000316        00001    2016100120161031Mercadorias
00000011312344980         2016100104NA12  FIAT           FIORINO (225)  Gasoleo 7110000000000500000000000011500000000615        00001    2016100120161031Mercadorias
00000011312344980         2016100104NA12  FIAT           FIORINO (225)  Gasoleo 7200000000000367000000000008400000000451        00001    2016100120161031Mercadorias
00000011312344980         2016100104NA12  FIAT           FIORINO (225)  Gasoleo 7300000000000237000000000005500000000292        00001    2016100120161031Mercadorias
00000011312344980         2016100104NA12  FIAT           FIORINO (225)  Gasoleo 7400000000000050000000000001200000000062        00001    2016100120161031Mercadorias
00000011312344980         2016100104NA12  FIAT           FIORINO (225)  Gasoleo 9990000000003360000000000077300000004133        00001    2016100120161031Mercadorias
00000011312344980         2016100121NB06  VW             POLO VAN       Gasoleo 0110000000013401000000000308200000016483        00001    2016100120161031Mercadorias
00000011312344980         2016100121NB06  VW             POLO VAN       Gasoleo 1000000000000194000000000000000000000194        00001    2016100120161031Mercadorias
00000011312344980         2016100121NB06  VW             POLO VAN       Gasoleo 1000000000001086000000000000000000001086        00001    2016100120161031Mercadorias
00000011312344980         2016100121NB06  VW             POLO VAN       Gasoleo 1000000000000100000000000000000000000100        00001    2016100120161031Mercadorias
00000011312344980         2016100121NB06  VW             POLO VAN       Gasoleo 1000000000000933000000000000000000000933        00001    2016100120161031Mercadorias
00000011312344980         2016100121NB06  VW             POLO VAN       Gasoleo 1000000000000175000000000000000000000175        00001    2016100120161031Mercadorias
00000011312344980         2016100121NB06  VW             POLO VAN       Gasoleo 1000000000000100000000000000000000000100        00001    2016100120161031Mercadorias
00000011312344980         2016100121NB06  VW             POLO VAN       Gasoleo 5800000000002830000000000065100000003481        00001    2016100120161031Mercadorias
00000011312344980         2016100121NB06  VW             POLO VAN       Gasoleo 5810000000001813000000000041700000002230        00001    2016100120161031Mercadorias
00000011312344980         2016100121NB06  VW             POLO VAN       Gasoleo 6200000000000629000000000014500000000774        00001    2016100120161031Mercadorias
00000011312344980         2016100121NB06  VW             POLO VAN       Gasoleo 6500000000000218000000000005000000000268        00001    2016100120161031Mercadorias
00000011312344980         2016100121NB06  VW             POLO VAN       Gasoleo 6700000000000316000000000000000000000316        00001    2016100120161031Mercadorias
00000011312344980         2016100121NB06  VW             POLO VAN       Gasoleo 7110000000000500000000000011500000000615        00001    2016100120161031Mercadorias
00000011312344980         2016100121NB06  VW             POLO VAN       Gasoleo 7200000000000367000000000008400000000451        00001    2016100120161031Mercadorias
00000011312344980         2016100121NB06  VW             POLO VAN       Gasoleo 7300000000000237000000000005500000000292        00001    2016100120161031Mercadorias
00000011312344980         2016100121NB06  VW             POLO VAN       Gasoleo 7400000000000050000000000001200000000062        00001    2016100120161031Mercadorias
00000011312344980         2016100121NB06  VW             POLO VAN       Gasoleo 9990000000004756000000000109400000005850        00001    2016100120161031Mercadorias
00000011312344980         2016100197NA00  VW             POLO VAN       Gasoleo 0110000000013401000000000308200000016483        00005    2016100120161031Mercadorias
00000011312344980         2016100197NA00  VW             POLO VAN       Gasoleo 1000000000000194000000000000000000000194        00005    2016100120161031Mercadorias
00000011312344980         2016100197NA00  VW             POLO VAN       Gasoleo 1000000000001086000000000000000000001086        00005    2016100120161031Mercadorias
00000011312344980         2016100197NA00  VW             POLO VAN       Gasoleo 1000000000000100000000000000000000000100        00005    2016100120161031Mercadorias
00000011312344980         2016100197NA00  VW             POLO VAN       Gasoleo 1000000000000933000000000000000000000933        00005    2016100120161031Mercadorias
00000011312344980         2016100197NA00  VW             POLO VAN       Gasoleo 1000000000000175000000000000000000000175        00005    2016100120161031Mercadorias
00000011312344980         2016100197NA00  VW             POLO VAN       Gasoleo 1000000000000100000000000000000000000100        00005    2016100120161031Mercadorias
00000011312344980         2016100197NA00  VW             POLO VAN       Gasoleo 5800000000002830000000000065100000003481        00005    2016100120161031Mercadorias
00000011312344980         2016100197NA00  VW             POLO VAN       Gasoleo 5810000000001813000000000041700000002230        00005    2016100120161031Mercadorias
00000011312344980         2016100197NA00  VW             POLO VAN       Gasoleo 6200000000000629000000000014500000000774        00005    2016100120161031Mercadorias
00000011312344980         2016100197NA00  VW             POLO VAN       Gasoleo 6500000000000218000000000005000000000268        00005    2016100120161031Mercadorias
00000011312344980         2016100197NA00  VW             POLO VAN       Gasoleo 6700000000000316000000000000000000000316        00005    2016100120161031Mercadorias
00000011312344980         2016100197NA00  VW             POLO VAN       Gasoleo 7110000000000500000000000011500000000615        00005    2016100120161031Mercadorias
00000011312344980         2016100197NA00  VW             POLO VAN       Gasoleo 7200000000000367000000000008400000000451        00005    2016100120161031Mercadorias
00000011312344980         2016100197NA00  VW             POLO VAN       Gasoleo 7300000000000237000000000005500000000292        00005    2016100120161031Mercadorias
00000011312344980         2016100197NA00  VW             POLO VAN       Gasoleo 7400000000000050000000000001200000000062        00005    2016100120161031Mercadorias
00000011312344980         2016100197NA00  VW             POLO VAN       Gasoleo 9990000000004756000000000109400000005850        00005    2016100120161031Mercadorias
00000011312344980         2016100120NB94  VW             POLO VAN       Gasoleo 0110000000013401000000000308200000016483        00001    2016100120161031Mercadorias
00000011312344980         2016100120NB94  VW             POLO VAN       Gasoleo 1000000000000194000000000000000000000194        00001    2016100120161031Mercadorias
00000011312344980         2016100120NB94  VW             POLO VAN       Gasoleo 1000000000001086000000000000000000001086        00001    2016100120161031Mercadorias
00000011312344980         2016100120NB94  VW             POLO VAN       Gasoleo 1000000000000100000000000000000000000100        00001    2016100120161031Mercadorias
00000011312344980         2016100120NB94  VW             POLO VAN       Gasoleo 1000000000000933000000000000000000000933        00001    2016100120161031Mercadorias
00000011312344980         2016100120NB94  VW             POLO VAN       Gasoleo 1000000000000175000000000000000000000175        00001    2016100120161031Mercadorias
00000011312344980         2016100120NB94  VW             POLO VAN       Gasoleo 1000000000000100000000000000000000000100        00001    2016100120161031Mercadorias
00000011312344980         2016100120NB94  VW             POLO VAN       Gasoleo 5800000000002830000000000065100000003481        00001    2016100120161031Mercadorias
00000011312344980         2016100120NB94  VW             POLO VAN       Gasoleo 5810000000001813000000000041700000002230        00001    2016100120161031Mercadorias
00000011312344980         2016100120NB94  VW             POLO VAN       Gasoleo 6200000000000629000000000014500000000774        00001    2016100120161031Mercadorias
00000011312344980         2016100120NB94  VW             POLO VAN       Gasoleo 6500000000000218000000000005000000000268        00001    2016100120161031Mercadorias
00000011312344980         2016100120NB94  VW             POLO VAN       Gasoleo 6700000000000316000000000000000000000316        00001    2016100120161031Mercadorias
00000011312344980         2016100120NB94  VW             POLO VAN       Gasoleo 7110000000000500000000000011500000000615        00001    2016100120161031Mercadorias
00000011312344980         2016100120NB94  VW             POLO VAN       Gasoleo 7200000000000367000000000008400000000451        00001    2016100120161031Mercadorias
00000011312344980         2016100120NB94  VW             POLO VAN       Gasoleo 7300000000000237000000000005500000000292        00001    2016100120161031Mercadorias
00000011312344980         2016100120NB94  VW             POLO VAN       Gasoleo 7400000000000050000000000001200000000062        00001    2016100120161031Mercadorias
00000011312344980         2016100120NB94  VW             POLO VAN       Gasoleo 9990000000004756000000000109400000005850        00001    2016100120161031Mercadorias
00000011312344980         2016100121NB14  VW             POLO VAN       Gasoleo 0110000000013401000000000308200000016483        00001    2016100120161031Mercadorias
00000011312344980         2016100121NB14  VW             POLO VAN       Gasoleo 1000000000000194000000000000000000000194        00001    2016100120161031Mercadorias
00000011312344980         2016100121NB14  VW             POLO VAN       Gasoleo 1000000000001086000000000000000000001086        00001    2016100120161031Mercadorias
00000011312344980         2016100121NB14  VW             POLO VAN       Gasoleo 1000000000000100000000000000000000000100        00001    2016100120161031Mercadorias
00000011312344980         2016100121NB14  VW             POLO VAN       Gasoleo 1000000000000933000000000000000000000933        00001    2016100120161031Mercadorias
00000011312344980         2016100121NB14  VW             POLO VAN       Gasoleo 1000000000000175000000000000000000000175        00001    2016100120161031Mercadorias
00000011312344980         2016100121NB14  VW             POLO VAN       Gasoleo 1000000000000100000000000000000000000100        00001    2016100120161031Mercadorias
00000011312344980         2016100121NB14  VW             POLO VAN       Gasoleo 5800000000002830000000000065100000003481        00001    2016100120161031Mercadorias
00000011312344980         2016100121NB14  VW             POLO VAN       Gasoleo 5810000000001813000000000041700000002230        00001    2016100120161031Mercadorias
00000011312344980         2016100121NB14  VW             POLO VAN       Gasoleo 6200000000000629000000000014500000000774        00001    2016100120161031Mercadorias
00000011312344980         2016100121NB14  VW             POLO VAN       Gasoleo 6500000000000218000000000005000000000268        00001    2016100120161031Mercadorias
00000011312344980         2016100121NB14  VW             POLO VAN       Gasoleo 6700000000000316000000000000000000000316        00001    2016100120161031Mercadorias
00000011312344980         2016100121NB14  VW             POLO VAN       Gasoleo 7110000000000500000000000011500000000615        00001    2016100120161031Mercadorias
00000011312344980         2016100121NB14  VW             POLO VAN       Gasoleo 7200000000000367000000000008400000000451        00001    2016100120161031Mercadorias
00000011312344980         2016100121NB14  VW             POLO VAN       Gasoleo 7300000000000237000000000005500000000292        00001    2016100120161031Mercadorias
00000011312344980         2016100121NB14  VW             POLO VAN       Gasoleo 7400000000000050000000000001200000000062        00001    2016100120161031Mercadorias
00000011312344980         2016100121NB14  VW             POLO VAN       Gasoleo 9990000000004756000000000109400000005850        00001    2016100120161031Mercadorias
00000011312344980         2016100197NA13  VW             POLO VAN       Gasoleo 0110000000013401000000000308200000016483        00001    2016100120161031Mercadorias
00000011312344980         2016100197NA13  VW             POLO VAN       Gasoleo 1000000000000194000000000000000000000194        00001    2016100120161031Mercadorias
00000011312344980         2016100197NA13  VW             POLO VAN       Gasoleo 1000000000001086000000000000000000001086        00001    2016100120161031Mercadorias
00000011312344980         2016100197NA13  VW             POLO VAN       Gasoleo 1000000000000100000000000000000000000100        00001    2016100120161031Mercadorias
00000011312344980         2016100197NA13  VW             POLO VAN       Gasoleo 1000000000000933000000000000000000000933        00001    2016100120161031Mercadorias
00000011312344980         2016100197NA13  VW             POLO VAN       Gasoleo 1000000000000175000000000000000000000175        00001    2016100120161031Mercadorias
00000011312344980         2016100197NA13  VW             POLO VAN       Gasoleo 1000000000000100000000000000000000000100        00001    2016100120161031Mercadorias
00000011312344980         2016100197NA13  VW             POLO VAN       Gasoleo 5800000000002830000000000065100000003481        00001    2016100120161031Mercadorias
00000011312344980         2016100197NA13  VW             POLO VAN       Gasoleo 5810000000001813000000000041700000002230        00001    2016100120161031Mercadorias
00000011312344980         2016100197NA13  VW             POLO VAN       Gasoleo 6200000000000629000000000014500000000774        00001    2016100120161031Mercadorias
00000011312344980         2016100197NA13  VW             POLO VAN       Gasoleo 6500000000000218000000000005000000000268        00001    2016100120161031Mercadorias
00000011312344980         2016100197NA13  VW             POLO VAN       Gasoleo 6700000000000316000000000000000000000316        00001    2016100120161031Mercadorias
00000011312344980         2016100197NA13  VW             POLO VAN       Gasoleo 7110000000000500000000000011500000000615        00001    2016100120161031Mercadorias
00000011312344980         2016100197NA13  VW             POLO VAN       Gasoleo 7200000000000367000000000008400000000451        00001    2016100120161031Mercadorias
00000011312344980         2016100197NA13  VW             POLO VAN       Gasoleo 7300000000000237000000000005500000000292        00001    2016100120161031Mercadorias
00000011312344980         2016100197NA13  VW             POLO VAN       Gasoleo 7400000000000050000000000001200000000062        00001    2016100120161031Mercadorias
00000011312344980         2016100197NA13  VW             POLO VAN       Gasoleo 9990000000004756000000000109400000005850        00001    2016100120161031Mercadorias
00000011312344980         2016100197NA08  VW             POLO VAN       Gasoleo 0110000000013401000000000308200000016483        00001    2016100120161031Mercadorias
00000011312344980         2016100197NA08  VW             POLO VAN       Gasoleo 1000000000000194000000000000000000000194        00001    2016100120161031Mercadorias
00000011312344980         2016100197NA08  VW             POLO VAN       Gasoleo 1000000000001086000000000000000000001086        00001    2016100120161031Mercadorias
00000011312344980         2016100197NA08  VW             POLO VAN       Gasoleo 1000000000000100000000000000000000000100        00001    2016100120161031Mercadorias
00000011312344980         2016100197NA08  VW             POLO VAN       Gasoleo 1000000000000933000000000000000000000933        00001    2016100120161031Mercadorias
00000011312344980         2016100197NA08  VW             POLO VAN       Gasoleo 1000000000000175000000000000000000000175        00001    2016100120161031Mercadorias
00000011312344980         2016100197NA08  VW             POLO VAN       Gasoleo 1000000000000100000000000000000000000100        00001    2016100120161031Mercadorias
00000011312344980         2016100197NA08  VW             POLO VAN       Gasoleo 5800000000002830000000000065100000003481        00001    2016100120161031Mercadorias
00000011312344980         2016100197NA08  VW             POLO VAN       Gasoleo 5810000000001813000000000041700000002230        00001    2016100120161031Mercadorias
00000011312344980         2016100197NA08  VW             POLO VAN       Gasoleo 6200000000000629000000000014500000000774        00001    2016100120161031Mercadorias
00000011312344980         2016100197NA08  VW             POLO VAN       Gasoleo 6500000000000218000000000005000000000268        00001    2016100120161031Mercadorias
00000011312344980         2016100197NA08  VW             POLO VAN       Gasoleo 6700000000000316000000000000000000000316        00001    2016100120161031Mercadorias
00000011312344980         2016100197NA08  VW             POLO VAN       Gasoleo 7110000000000500000000000011500000000615        00001    2016100120161031Mercadorias
00000011312344980         2016100197NA08  VW             POLO VAN       Gasoleo 7200000000000367000000000008400000000451        00001    2016100120161031Mercadorias
00000011312344980         2016100197NA08  VW             POLO VAN       Gasoleo 7300000000000237000000000005500000000292        00001    2016100120161031Mercadorias
00000011312344980         2016100197NA08  VW             POLO VAN       Gasoleo 7400000000000050000000000001200000000062        00001    2016100120161031Mercadorias
00000011312344980         2016100197NA08  VW             POLO VAN       Gasoleo 9990000000004756000000000109400000005850        00001    2016100120161031Mercadorias
00000011312344980         2016100121NB19  VW             POLO (6R1)     Gasoleo 0110000000006653000000000153000000008183        00001    2016100120161031Passageiros
00000011312344980         2016100121NB19  VW             POLO (6R1)     Gasoleo 1000000000000217000000000000000000000217        00001    2016100120161031Passageiros
00000011312344980         2016100121NB19  VW             POLO (6R1)     Gasoleo 1000000000001116000000000000000000001116        00001    2016100120161031Passageiros
00000011312344980         2016100121NB19  VW             POLO (6R1)     Gasoleo 1000000000000100000000000000000000000100        00001    2016100120161031Passageiros
00000011312344980         2016100121NB19  VW             POLO (6R1)     Gasoleo 1000000000000931000000000000000000000931        00001    2016100120161031Passageiros
00000011312344980         2016100121NB19  VW             POLO (6R1)     Gasoleo 1000000000000175000000000000000000000175        00001    2016100120161031Passageiros
00000011312344980         2016100121NB19  VW             POLO (6R1)     Gasoleo 1000000000000100000000000000000000000100        00001    2016100120161031Passageiros
00000011312344980         2016100121NB19  VW             POLO (6R1)     Gasoleo 5800000000002660000000000061200000003272        00001    2016100120161031Passageiros
00000011312344980         2016100121NB19  VW             POLO (6R1)     Gasoleo 5810000000001705000000000039200000002097        00001    2016100120161031Passageiros
00000011312344980         2016100121NB19  VW             POLO (6R1)     Gasoleo 6200000000000629000000000014500000000774        00001    2016100120161031Passageiros
00000011312344980         2016100121NB19  VW             POLO (6R1)     Gasoleo 6500000000000678000000000015600000000834        00001    2016100120161031Passageiros
00000011312344980         2016100121NB19  VW             POLO (6R1)     Gasoleo 6700000000000316000000000000000000000316        00001    2016100120161031Passageiros
00000011312344980         2016100121NB19  VW             POLO (6R1)     Gasoleo 7110000000000500000000000011500000000615        00001    2016100120161031Passageiros
00000011312344980         2016100121NB19  VW             POLO (6R1)     Gasoleo 7200000000000367000000000008400000000451        00001    2016100120161031Passageiros
00000011312344980         2016100121NB19  VW             POLO (6R1)     Gasoleo 7300000000000237000000000005500000000292        00001    2016100120161031Passageiros
00000011312344980         2016100121NB19  VW             POLO (6R1)     Gasoleo 7400000000000050000000000001200000000062        00001    2016100120161031Passageiros
00000011312344980         2016100121NB19  VW             POLO (6R1)     Gasoleo 9990000000004922000000000113200000006054        00001    2016100120161031Passageiros
00000011312344980         2016100123NC54  VW             POLO (6R1)     Gasoleo 0110000000006653000000000153000000008183        00001    2016100120161031Passageiros
00000011312344980         2016100123NC54  VW             POLO (6R1)     Gasoleo 1000000000000218000000000000000000000218        00001    2016100120161031Passageiros
00000011312344980         2016100123NC54  VW             POLO (6R1)     Gasoleo 1000000000001123000000000000000000001123        00001    2016100120161031Passageiros
00000011312344980         2016100123NC54  VW             POLO (6R1)     Gasoleo 1000000000000100000000000000000000000100        00001    2016100120161031Passageiros
00000011312344980         2016100123NC54  VW             POLO (6R1)     Gasoleo 1000000000000930000000000000000000000930        00001    2016100120161031Passageiros
00000011312344980         2016100123NC54  VW             POLO (6R1)     Gasoleo 1000000000000175000000000000000000000175        00001    2016100120161031Passageiros
00000011312344980         2016100123NC54  VW             POLO (6R1)     Gasoleo 1000000000000100000000000000000000000100        00001    2016100120161031Passageiros
00000011312344980         2016100123NC54  VW             POLO (6R1)     Gasoleo 5800000000002660000000000061200000003272        00001    2016100120161031Passageiros
00000011312344980         2016100123NC54  VW             POLO (6R1)     Gasoleo 5810000000001705000000000039200000002097        00001    2016100120161031Passageiros
00000011312344980         2016100123NC54  VW             POLO (6R1)     Gasoleo 6200000000000629000000000014500000000774        00001    2016100120161031Passageiros
00000011312344980         2016100123NC54  VW             POLO (6R1)     Gasoleo 6500000000000678000000000015600000000834        00001    2016100120161031Passageiros
00000011312344980         2016100123NC54  VW             POLO (6R1)     Gasoleo 6700000000000316000000000000000000000316        00001    2016100120161031Passageiros
00000011312344980         2016100123NC54  VW             POLO (6R1)     Gasoleo 7110000000000500000000000011500000000615        00001    2016100120161031Passageiros
00000011312344980         2016100123NC54  VW             POLO (6R1)     Gasoleo 7200000000000367000000000008400000000451        00001    2016100120161031Passageiros
00000011312344980         2016100123NC54  VW             POLO (6R1)     Gasoleo 7300000000000237000000000005500000000292        00001    2016100120161031Passageiros
00000011312344980         2016100123NC54  VW             POLO (6R1)     Gasoleo 7400000000000050000000000001200000000062        00001    2016100120161031Passageiros
00000011312344980         2016100123NC54  VW             POLO (6R1)     Gasoleo 9990000000004922000000000113200000006054        00001    2016100120161031Passageiros
00000011312344980         2016100123NC51  VW             POLO (6R1)     Gasoleo 0110000000006653000000000119800000007851        00003    2016100120161031Passageiros
00000011312344980         2016100123NC51  VW             POLO (6R1)     Gasoleo 1000000000000219000000000000000000000219        00003    2016100120161031Passageiros
00000011312344980         2016100123NC51  VW             POLO (6R1)     Gasoleo 1000000000001126000000000000000000001126        00003    2016100120161031Passageiros
00000011312344980         2016100123NC51  VW             POLO (6R1)     Gasoleo 1000000000000100000000000000000000000100        00003    2016100120161031Passageiros
00000011312344980         2016100123NC51  VW             POLO (6R1)     Gasoleo 1000000000000930000000000000000000000930        00003    2016100120161031Passageiros
00000011312344980         2016100123NC51  VW             POLO (6R1)     Gasoleo 1000000000000175000000000000000000000175        00003    2016100120161031Passageiros
00000011312344980         2016100123NC51  VW             POLO (6R1)     Gasoleo 1000000000000100000000000000000000000100        00003    2016100120161031Passageiros
00000011312344980         2016100123NC51  VW             POLO (6R1)     Gasoleo 5800000000002660000000000047900000003139        00003    2016100120161031Passageiros
00000011312344980         2016100123NC51  VW             POLO (6R1)     Gasoleo 5810000000001705000000000030700000002012        00003    2016100120161031Passageiros
00000011312344980         2016100123NC51  VW             POLO (6R1)     Gasoleo 6200000000000629000000000011300000000742        00003    2016100120161031Passageiros
00000011312344980         2016100123NC51  VW             POLO (6R1)     Gasoleo 6500000000000678000000000012200000000800        00003    2016100120161031Passageiros
00000011312344980         2016100123NC51  VW             POLO (6R1)     Gasoleo 6700000000000316000000000000000000000316        00003    2016100120161031Passageiros
00000011312344980         2016100123NC51  VW             POLO (6R1)     Gasoleo 7110000000000500000000000009000000000590        00003    2016100120161031Passageiros
00000011312344980         2016100123NC51  VW             POLO (6R1)     Gasoleo 7200000000000367000000000006600000000433        00003    2016100120161031Passageiros
00000011312344980         2016100123NC51  VW             POLO (6R1)     Gasoleo 7300000000000237000000000004300000000280        00003    2016100120161031Passageiros
00000011312344980         2016100123NC51  VW             POLO (6R1)     Gasoleo 7400000000000050000000000000900000000059        00003    2016100120161031Passageiros
00000011312344980         2016100123NC51  VW             POLO (6R1)     Gasoleo 9990000000004922000000000088600000005808        00003    2016100120161031Passageiros
00000011312344980         2016100123NC42  VW             POLO (6R1)     Gasoleo 0110000000006653000000000153000000008183        00005    2016100120161031Passageiros
00000011312344980         2016100123NC42  VW             POLO (6R1)     Gasoleo 1000000000000218000000000000000000000218        00005    2016100120161031Passageiros
00000011312344980         2016100123NC42  VW             POLO (6R1)     Gasoleo 1000000000001123000000000000000000001123        00005    2016100120161031Passageiros
00000011312344980         2016100123NC42  VW             POLO (6R1)     Gasoleo 1000000000000100000000000000000000000100        00005    2016100120161031Passageiros
00000011312344980         2016100123NC42  VW             POLO (6R1)     Gasoleo 1000000000000930000000000000000000000930        00005    2016100120161031Passageiros
00000011312344980         2016100123NC42  VW             POLO (6R1)     Gasoleo 1000000000000175000000000000000000000175        00005    2016100120161031Passageiros
00000011312344980         2016100123NC42  VW             POLO (6R1)     Gasoleo 1000000000000100000000000000000000000100        00005    2016100120161031Passageiros
00000011312344980         2016100123NC42  VW             POLO (6R1)     Gasoleo 5800000000002660000000000061200000003272        00005    2016100120161031Passageiros
00000011312344980         2016100123NC42  VW             POLO (6R1)     Gasoleo 5810000000001705000000000039200000002097        00005    2016100120161031Passageiros
00000011312344980         2016100123NC42  VW             POLO (6R1)     Gasoleo 6200000000000629000000000014500000000774        00005    2016100120161031Passageiros
00000011312344980         2016100123NC42  VW             POLO (6R1)     Gasoleo 6500000000000678000000000015600000000834        00005    2016100120161031Passageiros
00000011312344980         2016100123NC42  VW             POLO (6R1)     Gasoleo 6700000000000316000000000000000000000316        00005    2016100120161031Passageiros
00000011312344980         2016100123NC42  VW             POLO (6R1)     Gasoleo 7110000000000500000000000011500000000615        00005    2016100120161031Passageiros
00000011312344980         2016100123NC42  VW             POLO (6R1)     Gasoleo 7200000000000367000000000008400000000451        00005    2016100120161031Passageiros
00000011312344980         2016100123NC42  VW             POLO (6R1)     Gasoleo 7300000000000237000000000005500000000292        00005    2016100120161031Passageiros
00000011312344980         2016100123NC42  VW             POLO (6R1)     Gasoleo 7400000000000050000000000001200000000062        00005    2016100120161031Passageiros
00000011312344980         2016100123NC42  VW             POLO (6R1)     Gasoleo 9990000000004922000000000113200000006054        00005    2016100120161031Passageiros
00000011312344980         2016100123NC60  VW             POLO (6R1)     Gasoleo 0110000000008708000000000200300000010711        00001    2016100120161031Passageiros
00000011312344980         2016100123NC60  VW             POLO (6R1)     Gasoleo 1000000000000218000000000000000000000218        00001    2016100120161031Passageiros
00000011312344980         2016100123NC60  VW             POLO (6R1)     Gasoleo 1000000000001123000000000000000000001123        00001    2016100120161031Passageiros
00000011312344980         2016100123NC60  VW             POLO (6R1)     Gasoleo 1000000000000100000000000000000000000100        00001    2016100120161031Passageiros
00000011312344980         2016100123NC60  VW             POLO (6R1)     Gasoleo 1000000000000930000000000000000000000930        00001    2016100120161031Passageiros
00000011312344980         2016100123NC60  VW             POLO (6R1)     Gasoleo 1000000000000175000000000000000000000175        00001    2016100120161031Passageiros
00000011312344980         2016100123NC60  VW             POLO (6R1)     Gasoleo 1000000000000100000000000000000000000100        00001    2016100120161031Passageiros
00000011312344980         2016100123NC60  VW             POLO (6R1)     Gasoleo 5800000000003868000000000089000000004758        00001    2016100120161031Passageiros
00000011312344980         2016100123NC60  VW             POLO (6R1)     Gasoleo 5810000000002481000000000057100000003052        00001    2016100120161031Passageiros
00000011312344980         2016100123NC60  VW             POLO (6R1)     Gasoleo 6200000000000629000000000014500000000774        00001    2016100120161031Passageiros
00000011312344980         2016100123NC60  VW             POLO (6R1)     Gasoleo 6300000000000058000000000001300000000071        00001    2016100120161031Passageiros
00000011312344980         2016100123NC60  VW             POLO (6R1)     Gasoleo 6500000000000678000000000015600000000834        00001    2016100120161031Passageiros
00000011312344980         2016100123NC60  VW             POLO (6R1)     Gasoleo 6700000000000316000000000000000000000316        00001    2016100120161031Passageiros
00000011312344980         2016100123NC60  VW             POLO (6R1)     Gasoleo 7110000000000500000000000011500000000615        00001    2016100120161031Passageiros
00000011312344980         2016100123NC60  VW             POLO (6R1)     Gasoleo 7200000000000367000000000008400000000451        00001    2016100120161031Passageiros
00000011312344980         2016100123NC60  VW             POLO (6R1)     Gasoleo 7300000000000237000000000005500000000292        00001    2016100120161031Passageiros
00000011312344980         2016100123NC60  VW             POLO (6R1)     Gasoleo 7400000000000050000000000001200000000062        00001    2016100120161031Passageiros
00000011312344980         2016100123NC60  VW             POLO (6R1)     Gasoleo 9990000000004681000000000107700000005758        00001    2016100120161031Passageiros
00000011312344980         2016100123NC63  VW             POLO (6R1)     Gasoleo 0110000000006653000000000153000000008183        00001    2016100120161031Passageiros
00000011312344980         2016100123NC63  VW             POLO (6R1)     Gasoleo 1000000000000218000000000000000000000218        00001    2016100120161031Passageiros
00000011312344980         2016100123NC63  VW             POLO (6R1)     Gasoleo 1000000000001123000000000000000000001123        00001    2016100120161031Passageiros
00000011312344980         2016100123NC63  VW             POLO (6R1)     Gasoleo 1000000000000100000000000000000000000100        00001    2016100120161031Passageiros
00000011312344980         2016100123NC63  VW             POLO (6R1)     Gasoleo 1000000000000930000000000000000000000930        00001    2016100120161031Passageiros
00000011312344980         2016100123NC63  VW             POLO (6R1)     Gasoleo 1000000000000175000000000000000000000175        00001    2016100120161031Passageiros
00000011312344980         2016100123NC63  VW             POLO (6R1)     Gasoleo 1000000000000100000000000000000000000100        00001    2016100120161031Passageiros
00000011312344980         2016100123NC63  VW             POLO (6R1)     Gasoleo 5800000000002660000000000061200000003272        00001    2016100120161031Passageiros
00000011312344980         2016100123NC63  VW             POLO (6R1)     Gasoleo 5810000000001705000000000039200000002097        00001    2016100120161031Passageiros
00000011312344980         2016100123NC63  VW             POLO (6R1)     Gasoleo 6200000000000629000000000014500000000774        00001    2016100120161031Passageiros
00000011312344980         2016100123NC63  VW             POLO (6R1)     Gasoleo 6500000000000678000000000015600000000834        00001    2016100120161031Passageiros
00000011312344980         2016100123NC63  VW             POLO (6R1)     Gasoleo 6700000000000316000000000000000000000316        00001    2016100120161031Passageiros
00000011312344980         2016100123NC63  VW             POLO (6R1)     Gasoleo 7110000000000500000000000011500000000615        00001    2016100120161031Passageiros
00000011312344980         2016100123NC63  VW             POLO (6R1)     Gasoleo 7200000000000367000000000008400000000451        00001    2016100120161031Passageiros
00000011312344980         2016100123NC63  VW             POLO (6R1)     Gasoleo 7300000000000237000000000005500000000292        00001    2016100120161031Passageiros
00000011312344980         2016100123NC63  VW             POLO (6R1)     Gasoleo 7400000000000050000000000001200000000062        00001    2016100120161031Passageiros
00000011312344980         2016100123NC63  VW             POLO (6R1)     Gasoleo 9990000000004922000000000113200000006054        00001    2016100120161031Passageiros
00000011312344980         2016100149NB85  VW             POLO (6R1)     Gasoleo 0110000000008569000000000197100000010540        00001    2016100120161031Passageiros
00000011312344980         2016100149NB85  VW             POLO (6R1)     Gasoleo 1000000000000218000000000000000000000218        00001    2016100120161031Passageiros
00000011312344980         2016100149NB85  VW             POLO (6R1)     Gasoleo 1000000000001123000000000000000000001123        00001    2016100120161031Passageiros
00000011312344980         2016100149NB85  VW             POLO (6R1)     Gasoleo 1000000000000100000000000000000000000100        00001    2016100120161031Passageiros
00000011312344980         2016100149NB85  VW             POLO (6R1)     Gasoleo 1000000000000930000000000000000000000930        00001    2016100120161031Passageiros
00000011312344980         2016100149NB85  VW             POLO (6R1)     Gasoleo 1000000000000175000000000000000000000175        00001    2016100120161031Passageiros
00000011312344980         2016100149NB85  VW             POLO (6R1)     Gasoleo 1000000000000100000000000000000000000100        00001    2016100120161031Passageiros
00000011312344980         2016100149NB85  VW             POLO (6R1)     Gasoleo 5800000000003722000000000085600000004578        00001    2016100120161031Passageiros
00000011312344980         2016100149NB85  VW             POLO (6R1)     Gasoleo 5810000000002238000000000051500000002753        00001    2016100120161031Passageiros
00000011312344980         2016100149NB85  VW             POLO (6R1)     Gasoleo 6200000000000629000000000014500000000774        00001    2016100120161031Passageiros
00000011312344980         2016100149NB85  VW             POLO (6R1)     Gasoleo 6300000000000058000000000001300000000071        00001    2016100120161031Passageiros
00000011312344980         2016100149NB85  VW             POLO (6R1)     Gasoleo 6500000000000678000000000015600000000834        00001    2016100120161031Passageiros
00000011312344980         2016100149NB85  VW             POLO (6R1)     Gasoleo 6700000000000316000000000000000000000316        00001    2016100120161031Passageiros
00000011312344980         2016100149NB85  VW             POLO (6R1)     Gasoleo 7110000000000500000000000011500000000615        00001    2016100120161031Passageiros
00000011312344980         2016100149NB85  VW             POLO (6R1)     Gasoleo 7200000000000367000000000008400000000451        00001    2016100120161031Passageiros
00000011312344980         2016100149NB85  VW             POLO (6R1)     Gasoleo 7300000000000237000000000005500000000292        00001    2016100120161031Passageiros
00000011312344980         2016100149NB85  VW             POLO (6R1)     Gasoleo 7400000000000050000000000001200000000062        00001    2016100120161031Passageiros
00000011312344980         2016100149NB85  VW             POLO (6R1)     Gasoleo 9990000000004697000000000108000000005777        00001    2016100120161031Passageiros
00000011312344980         2016100123NC75  VW             POLO (6R1)     Gasoleo 0110000000009539000000000219400000011733        00001    2016100120161031Passageiros
00000011312344980         2016100123NC75  VW             POLO (6R1)     Gasoleo 1000000000000218000000000000000000000218        00001    2016100120161031Passageiros
00000011312344980         2016100123NC75  VW             POLO (6R1)     Gasoleo 1000000000001123000000000000000000001123        00001    2016100120161031Passageiros
00000011312344980         2016100123NC75  VW             POLO (6R1)     Gasoleo 1000000000000100000000000000000000000100        00001    2016100120161031Passageiros
00000011312344980         2016100123NC75  VW             POLO (6R1)     Gasoleo 1000000000000930000000000000000000000930        00001    2016100120161031Passageiros
00000011312344980         2016100123NC75  VW             POLO (6R1)     Gasoleo 1000000000000175000000000000000000000175        00001    2016100120161031Passageiros
00000011312344980         2016100123NC75  VW             POLO (6R1)     Gasoleo 1000000000000100000000000000000000000100        00001    2016100120161031Passageiros
00000011312344980         2016100123NC75  VW             POLO (6R1)     Gasoleo 5800000000004901000000000112700000006028        00001    2016100120161031Passageiros
00000011312344980         2016100123NC75  VW             POLO (6R1)     Gasoleo 5810000000002803000000000064500000003448        00001    2016100120161031Passageiros
00000011312344980         2016100123NC75  VW             POLO (6R1)     Gasoleo 6200000000000629000000000014500000000774        00001    2016100120161031Passageiros
00000011312344980         2016100123NC75  VW             POLO (6R1)     Gasoleo 6300000000000058000000000001300000000071        00001    2016100120161031Passageiros
00000011312344980         2016100123NC75  VW             POLO (6R1)     Gasoleo 6500000000000678000000000015600000000834        00001    2016100120161031Passageiros
00000011312344980         2016100123NC75  VW             POLO (6R1)     Gasoleo 6700000000000316000000000000000000000316        00001    2016100120161031Passageiros
00000011312344980         2016100123NC75  VW             POLO (6R1)     Gasoleo 7110000000000500000000000011500000000615        00001    2016100120161031Passageiros
00000011312344980         2016100123NC75  VW             POLO (6R1)     Gasoleo 7200000000000367000000000008400000000451        00001    2016100120161031Passageiros
00000011312344980         2016100123NC75  VW             POLO (6R1)     Gasoleo 7300000000000237000000000005500000000292        00001    2016100120161031Passageiros
00000011312344980         2016100123NC75  VW             POLO (6R1)     Gasoleo 7400000000000050000000000001200000000062        00001    2016100120161031Passageiros
00000011312344980         2016100123NC75  VW             POLO (6R1)     Gasoleo 9990000000004584000000000105400000005638        00001    2016100120161031Passageiros
00000011312344980         2016100123NC56  VW             POLO (6R1)     Gasoleo 0110000000008950000000000205900000011009        00001    2016100120161031Passageiros
00000011312344980         2016100123NC56  VW             POLO (6R1)     Gasoleo 1000000000000218000000000000000000000218        00001    2016100120161031Passageiros
00000011312344980         2016100123NC56  VW             POLO (6R1)     Gasoleo 1000000000001123000000000000000000001123        00001    2016100120161031Passageiros
00000011312344980         2016100123NC56  VW             POLO (6R1)     Gasoleo 1000000000000100000000000000000000000100        00001    2016100120161031Passageiros
00000011312344980         2016100123NC56  VW             POLO (6R1)     Gasoleo 1000000000000930000000000000000000000930        00001    2016100120161031Passageiros
00000011312344980         2016100123NC56  VW             POLO (6R1)     Gasoleo 1000000000000175000000000000000000000175        00001    2016100120161031Passageiros
00000011312344980         2016100123NC56  VW             POLO (6R1)     Gasoleo 1000000000000100000000000000000000000100        00001    2016100120161031Passageiros
00000011312344980         2016100123NC56  VW             POLO (6R1)     Gasoleo 5800000000004142000000000095300000005095        00001    2016100120161031Passageiros
00000011312344980         2016100123NC56  VW             POLO (6R1)     Gasoleo 5810000000001983000000000045600000002439        00001    2016100120161031Passageiros
00000011312344980         2016100123NC56  VW             POLO (6R1)     Gasoleo 6200000000000629000000000014500000000774        00001    2016100120161031Passageiros
00000011312344980         2016100123NC56  VW             POLO (6R1)     Gasoleo 6300000000000058000000000001300000000071        00001    2016100120161031Passageiros
00000011312344980         2016100123NC56  VW             POLO (6R1)     Gasoleo 6500000000000678000000000015600000000834        00001    2016100120161031Passageiros
00000011312344980         2016100123NC56  VW             POLO (6R1)     Gasoleo 6700000000000316000000000000000000000316        00001    2016100120161031Passageiros
00000011312344980         2016100123NC56  VW             POLO (6R1)     Gasoleo 7110000000000500000000000011500000000615        00001    2016100120161031Passageiros
00000011312344980         2016100123NC56  VW             POLO (6R1)     Gasoleo 7200000000000367000000000008400000000451        00001    2016100120161031Passageiros
00000011312344980         2016100123NC56  VW             POLO (6R1)     Gasoleo 7300000000000237000000000005500000000292        00001    2016100120161031Passageiros
00000011312344980         2016100123NC56  VW             POLO (6R1)     Gasoleo 7400000000000050000000000001200000000062        00001    2016100120161031Passageiros
00000011312344980         2016100123NC56  VW             POLO (6R1)     Gasoleo 9990000000004653000000000107000000005723        00001    2016100120161031Passageiros
00000011312344980         2016100123NC48  VW             POLO (6R1)     Gasoleo 0110000000006653000000000153000000008183        00001    2016100120161031Passageiros
00000011312344980         2016100123NC48  VW             POLO (6R1)     Gasoleo 1000000000000218000000000000000000000218        00001    2016100120161031Passageiros
00000011312344980         2016100123NC48  VW             POLO (6R1)     Gasoleo 1000000000001123000000000000000000001123        00001    2016100120161031Passageiros
00000011312344980         2016100123NC48  VW             POLO (6R1)     Gasoleo 1000000000000100000000000000000000000100        00001    2016100120161031Passageiros
00000011312344980         2016100123NC48  VW             POLO (6R1)     Gasoleo 1000000000000930000000000000000000000930        00001    2016100120161031Passageiros
00000011312344980         2016100123NC48  VW             POLO (6R1)     Gasoleo 1000000000000175000000000000000000000175        00001    2016100120161031Passageiros
00000011312344980         2016100123NC48  VW             POLO (6R1)     Gasoleo 1000000000000100000000000000000000000100        00001    2016100120161031Passageiros
00000011312344980         2016100123NC48  VW             POLO (6R1)     Gasoleo 5800000000002660000000000061200000003272        00001    2016100120161031Passageiros
00000011312344980         2016100123NC48  VW             POLO (6R1)     Gasoleo 5810000000001705000000000039200000002097        00001    2016100120161031Passageiros
00000011312344980         2016100123NC48  VW             POLO (6R1)     Gasoleo 6200000000000629000000000014500000000774        00001    2016100120161031Passageiros
00000011312344980         2016100123NC48  VW             POLO (6R1)     Gasoleo 6500000000000678000000000015600000000834        00001    2016100120161031Passageiros
00000011312344980         2016100123NC48  VW             POLO (6R1)     Gasoleo 6700000000000316000000000000000000000316        00001    2016100120161031Passageiros
00000011312344980         2016100123NC48  VW             POLO (6R1)     Gasoleo 7110000000000500000000000011500000000615        00001    2016100120161031Passageiros
00000011312344980         2016100123NC48  VW             POLO (6R1)     Gasoleo 7200000000000367000000000008400000000451        00001    2016100120161031Passageiros
00000011312344980         2016100123NC48  VW             POLO (6R1)     Gasoleo 7300000000000237000000000005500000000292        00001    2016100120161031Passageiros
00000011312344980         2016100123NC48  VW             POLO (6R1)     Gasoleo 7400000000000050000000000001200000000062        00001    2016100120161031Passageiros
00000011312344980         2016100123NC48  VW             POLO (6R1)     Gasoleo 9990000000004922000000000113200000006054        00001    2016100120161031Passageiros
00000011312344980         2016100149NB80  VW             POLO (6R1)     Gasoleo 0110000000008535000000000196300000010498        00001    2016100120161031Passageiros
00000011312344980         2016100149NB80  VW             POLO (6R1)     Gasoleo 1000000000000218000000000000000000000218        00001    2016100120161031Passageiros
00000011312344980         2016100149NB80  VW             POLO (6R1)     Gasoleo 1000000000001123000000000000000000001123        00001    2016100120161031Passageiros
00000011312344980         2016100149NB80  VW             POLO (6R1)     Gasoleo 1000000000000100000000000000000000000100        00001    2016100120161031Passageiros
00000011312344980         2016100149NB80  VW             POLO (6R1)     Gasoleo 1000000000000930000000000000000000000930        00001    2016100120161031Passageiros
00000011312344980         2016100149NB80  VW             POLO (6R1)     Gasoleo 1000000000000175000000000000000000000175        00001    2016100120161031Passageiros
00000011312344980         2016100149NB80  VW             POLO (6R1)     Gasoleo 1000000000000100000000000000000000000100        00001    2016100120161031Passageiros
00000011312344980         2016100149NB80  VW             POLO (6R1)     Gasoleo 5800000000003701000000000085100000004552        00001    2016100120161031Passageiros
00000011312344980         2016100149NB80  VW             POLO (6R1)     Gasoleo 5810000000002371000000000054500000002916        00001    2016100120161031Passageiros
00000011312344980         2016100149NB80  VW             POLO (6R1)     Gasoleo 6200000000000629000000000014500000000774        00001    2016100120161031Passageiros
00000011312344980         2016100149NB80  VW             POLO (6R1)     Gasoleo 6300000000000058000000000001300000000071        00001    2016100120161031Passageiros
00000011312344980         2016100149NB80  VW             POLO (6R1)     Gasoleo 6500000000000678000000000015600000000834        00001    2016100120161031Passageiros
00000011312344980         2016100149NB80  VW             POLO (6R1)     Gasoleo 6700000000000316000000000000000000000316        00001    2016100120161031Passageiros
00000011312344980         2016100149NB80  VW             POLO (6R1)     Gasoleo 7110000000000500000000000011500000000615        00001    2016100120161031Passageiros
00000011312344980         2016100149NB80  VW             POLO (6R1)     Gasoleo 7200000000000367000000000008400000000451        00001    2016100120161031Passageiros
00000011312344980         2016100149NB80  VW             POLO (6R1)     Gasoleo 7300000000000237000000000005500000000292        00001    2016100120161031Passageiros
00000011312344980         2016100149NB80  VW             POLO (6R1)     Gasoleo 7400000000000050000000000001200000000062        00001    2016100120161031Passageiros
00000011312344980         2016100149NB80  VW             POLO (6R1)     Gasoleo 9990000000004701000000000108100000005782        00001    2016100120161031Passageiros
00000011312344980         2016100148NB99  VW             POLO (6R1)     Gasoleo 0110000000006653000000000153000000008183        00001    2016100120161031Passageiros
00000011312344980         2016100148NB99  VW             POLO (6R1)     Gasoleo 1000000000000218000000000000000000000218        00001    2016100120161031Passageiros
00000011312344980         2016100148NB99  VW             POLO (6R1)     Gasoleo 1000000000001123000000000000000000001123        00001    2016100120161031Passageiros
00000011312344980         2016100148NB99  VW             POLO (6R1)     Gasoleo 1000000000000100000000000000000000000100        00001    2016100120161031Passageiros
00000011312344980         2016100148NB99  VW             POLO (6R1)     Gasoleo 1000000000000930000000000000000000000930        00001    2016100120161031Passageiros
00000011312344980         2016100148NB99  VW             POLO (6R1)     Gasoleo 1000000000000175000000000000000000000175        00001    2016100120161031Passageiros
00000011312344980         2016100148NB99  VW             POLO (6R1)     Gasoleo 1000000000000100000000000000000000000100        00001    2016100120161031Passageiros
00000011312344980         2016100148NB99  VW             POLO (6R1)     Gasoleo 5800000000002660000000000061200000003272        00001    2016100120161031Passageiros
00000011312344980         2016100148NB99  VW             POLO (6R1)     Gasoleo 5810000000001705000000000039200000002097        00001    2016100120161031Passageiros
00000011312344980         2016100148NB99  VW             POLO (6R1)     Gasoleo 6200000000000629000000000014500000000774        00001    2016100120161031Passageiros
00000011312344980         2016100148NB99  VW             POLO (6R1)     Gasoleo 6500000000000678000000000015600000000834        00001    2016100120161031Passageiros
00000011312344980         2016100148NB99  VW             POLO (6R1)     Gasoleo 6700000000000316000000000000000000000316        00001    2016100120161031Passageiros
00000011312344980         2016100148NB99  VW             POLO (6R1)     Gasoleo 7110000000000500000000000011500000000615        00001    2016100120161031Passageiros
00000011312344980         2016100148NB99  VW             POLO (6R1)     Gasoleo 7200000000000367000000000008400000000451        00001    2016100120161031Passageiros
00000011312344980         2016100148NB99  VW             POLO (6R1)     Gasoleo 7300000000000237000000000005500000000292        00001    2016100120161031Passageiros
00000011312344980         2016100148NB99  VW             POLO (6R1)     Gasoleo 7400000000000050000000000001200000000062        00001    2016100120161031Passageiros
00000011312344980         2016100148NB99  VW             POLO (6R1)     Gasoleo 9990000000004922000000000113200000006054        00001    2016100120161031Passageiros
00000011312344980         2016100150NB29  VW             POLO (6R1)     Gasoleo 0110000000006653000000000153000000008183        00001    2016100120161031Passageiros
00000011312344980         2016100150NB29  VW             POLO (6R1)     Gasoleo 1000000000000218000000000000000000000218        00001    2016100120161031Passageiros
00000011312344980         2016100150NB29  VW             POLO (6R1)     Gasoleo 1000000000001123000000000000000000001123        00001    2016100120161031Passageiros
00000011312344980         2016100150NB29  VW             POLO (6R1)     Gasoleo 1000000000000100000000000000000000000100        00001    2016100120161031Passageiros
00000011312344980         2016100150NB29  VW             POLO (6R1)     Gasoleo 1000000000000930000000000000000000000930        00001    2016100120161031Passageiros
00000011312344980         2016100150NB29  VW             POLO (6R1)     Gasoleo 1000000000000175000000000000000000000175        00001    2016100120161031Passageiros
00000011312344980         2016100150NB29  VW             POLO (6R1)     Gasoleo 1000000000000100000000000000000000000100        00001    2016100120161031Passageiros
00000011312344980         2016100150NB29  VW             POLO (6R1)     Gasoleo 5800000000002660000000000061200000003272        00001    2016100120161031Passageiros
00000011312344980         2016100150NB29  VW             POLO (6R1)     Gasoleo 5810000000001705000000000039200000002097        00001    2016100120161031Passageiros
00000011312344980         2016100150NB29  VW             POLO (6R1)     Gasoleo 6200000000000629000000000014500000000774        00001    2016100120161031Passageiros
00000011312344980         2016100150NB29  VW             POLO (6R1)     Gasoleo 6500000000000678000000000015600000000834        00001    2016100120161031Passageiros
00000011312344980         2016100150NB29  VW             POLO (6R1)     Gasoleo 6700000000000316000000000000000000000316        00001    2016100120161031Passageiros
00000011312344980         2016100150NB29  VW             POLO (6R1)     Gasoleo 7110000000000500000000000011500000000615        00001    2016100120161031Passageiros
00000011312344980         2016100150NB29  VW             POLO (6R1)     Gasoleo 7200000000000367000000000008400000000451        00001    2016100120161031Passageiros
00000011312344980         2016100150NB29  VW             POLO (6R1)     Gasoleo 7300000000000237000000000005500000000292        00001    2016100120161031Passageiros
00000011312344980         2016100150NB29  VW             POLO (6R1)     Gasoleo 7400000000000050000000000001200000000062        00001    2016100120161031Passageiros
00000011312344980         2016100150NB29  VW             POLO (6R1)     Gasoleo 9990000000004922000000000113200000006054        00001    2016100120161031Passageiros
00000011312344980         2016100149NB82  VW             POLO (6R1)     Gasoleo 0110000000009227000000000212200000011349        00001    2016100120161031Passageiros
00000011312344980         2016100149NB82  VW             POLO (6R1)     Gasoleo 1000000000000218000000000000000000000218        00001    2016100120161031Passageiros
00000011312344980         2016100149NB82  VW             POLO (6R1)     Gasoleo 1000000000001123000000000000000000001123        00001    2016100120161031Passageiros
00000011312344980         2016100149NB82  VW             POLO (6R1)     Gasoleo 1000000000000100000000000000000000000100        00001    2016100120161031Passageiros
00000011312344980         2016100149NB82  VW             POLO (6R1)     Gasoleo 1000000000000930000000000000000000000930        00001    2016100120161031Passageiros
00000011312344980         2016100149NB82  VW             POLO (6R1)     Gasoleo 1000000000000175000000000000000000000175        00001    2016100120161031Passageiros
00000011312344980         2016100149NB82  VW             POLO (6R1)     Gasoleo 1000000000000100000000000000000000000100        00001    2016100120161031Passageiros
00000011312344980         2016100149NB82  VW             POLO (6R1)     Gasoleo 5800000000004545000000000104500000005590        00001    2016100120161031Passageiros
00000011312344980         2016100149NB82  VW             POLO (6R1)     Gasoleo 5810000000002801000000000064400000003445        00001    2016100120161031Passageiros
00000011312344980         2016100149NB82  VW             POLO (6R1)     Gasoleo 6200000000000629000000000014500000000774        00001    2016100120161031Passageiros
00000011312344980         2016100149NB82  VW             POLO (6R1)     Gasoleo 6300000000000058000000000001300000000071        00001    2016100120161031Passageiros
00000011312344980         2016100149NB82  VW             POLO (6R1)     Gasoleo 6500000000000678000000000015600000000834        00001    2016100120161031Passageiros
00000011312344980         2016100149NB82  VW             POLO (6R1)     Gasoleo 6700000000000316000000000000000000000316        00001    2016100120161031Passageiros
00000011312344980         2016100149NB82  VW             POLO (6R1)     Gasoleo 7110000000000500000000000011500000000615        00001    2016100120161031Passageiros
00000011312344980         2016100149NB82  VW             POLO (6R1)     Gasoleo 7200000000000367000000000008400000000451        00001    2016100120161031Passageiros
00000011312344980         2016100149NB82  VW             POLO (6R1)     Gasoleo 7300000000000237000000000005500000000292        00001    2016100120161031Passageiros
00000011312344980         2016100149NB82  VW             POLO (6R1)     Gasoleo 7400000000000050000000000001200000000062        00001    2016100120161031Passageiros
00000011312344980         2016100149NB82  VW             POLO (6R1)     Gasoleo 9990000000004620000000000106300000005683        00001    2016100120161031Passageiros
00000011312344980         2016100106NB75  VW             POLO (6R1)     Gasoleo 0110000000006653000000000153000000008183        00001    2016100120161031Passageiros
00000011312344980         2016100106NB75  VW             POLO (6R1)     Gasoleo 1000000000000217000000000000000000000217        00001    2016100120161031Passageiros
00000011312344980         2016100106NB75  VW             POLO (6R1)     Gasoleo 1000000000001116000000000000000000001116        00001    2016100120161031Passageiros
00000011312344980         2016100106NB75  VW             POLO (6R1)     Gasoleo 1000000000000100000000000000000000000100        00001    2016100120161031Passageiros
00000011312344980         2016100106NB75  VW             POLO (6R1)     Gasoleo 1000000000000931000000000000000000000931        00001    2016100120161031Passageiros
00000011312344980         2016100106NB75  VW             POLO (6R1)     Gasoleo 1000000000000175000000000000000000000175        00001    2016100120161031Passageiros
00000011312344980         2016100106NB75  VW             POLO (6R1)     Gasoleo 1000000000000100000000000000000000000100        00001    2016100120161031Passageiros
00000011312344980         2016100106NB75  VW             POLO (6R1)     Gasoleo 5800000000002660000000000061200000003272        00001    2016100120161031Passageiros
00000011312344980         2016100106NB75  VW             POLO (6R1)     Gasoleo 5810000000001705000000000039200000002097        00001    2016100120161031Passageiros
00000011312344980         2016100106NB75  VW             POLO (6R1)     Gasoleo 6200000000000629000000000014500000000774        00001    2016100120161031Passageiros
00000011312344980         2016100106NB75  VW             POLO (6R1)     Gasoleo 6500000000000678000000000015600000000834        00001    2016100120161031Passageiros
00000011312344980         2016100106NB75  VW             POLO (6R1)     Gasoleo 6700000000000316000000000000000000000316        00001    2016100120161031Passageiros
00000011312344980         2016100106NB75  VW             POLO (6R1)     Gasoleo 7110000000000500000000000011500000000615        00001    2016100120161031Passageiros
00000011312344980         2016100106NB75  VW             POLO (6R1)     Gasoleo 7200000000000367000000000008400000000451        00001    2016100120161031Passageiros
00000011312344980         2016100106NB75  VW             POLO (6R1)     Gasoleo 7300000000000237000000000005500000000292        00001    2016100120161031Passageiros
00000011312344980         2016100106NB75  VW             POLO (6R1)     Gasoleo 7400000000000050000000000001200000000062        00001    2016100120161031Passageiros
00000011312344980         2016100106NB75  VW             POLO (6R1)     Gasoleo 9990000000004922000000000113200000006054        00001    2016100120161031Passageiros
00000011312344980         2016100149NB90  VW             POLO (6R1)     Gasoleo 0110000000006653000000000153000000008183        00001    2016100120161031Passageiros
00000011312344980         2016100149NB90  VW             POLO (6R1)     Gasoleo 1000000000000218000000000000000000000218        00001    2016100120161031Passageiros
00000011312344980         2016100149NB90  VW             POLO (6R1)     Gasoleo 1000000000001123000000000000000000001123        00001    2016100120161031Passageiros
00000011312344980         2016100149NB90  VW             POLO (6R1)     Gasoleo 1000000000000100000000000000000000000100        00001    2016100120161031Passageiros
00000011312344980         2016100149NB90  VW             POLO (6R1)     Gasoleo 1000000000000930000000000000000000000930        00001    2016100120161031Passageiros
00000011312344980         2016100149NB90  VW             POLO (6R1)     Gasoleo 1000000000000175000000000000000000000175        00001    2016100120161031Passageiros
00000011312344980         2016100149NB90  VW             POLO (6R1)     Gasoleo 1000000000000100000000000000000000000100        00001    2016100120161031Passageiros
00000011312344980         2016100149NB90  VW             POLO (6R1)     Gasoleo 5800000000002660000000000061200000003272        00001    2016100120161031Passageiros
00000011312344980         2016100149NB90  VW             POLO (6R1)     Gasoleo 5810000000001705000000000039200000002097        00001    2016100120161031Passageiros
00000011312344980         2016100149NB90  VW             POLO (6R1)     Gasoleo 6200000000000629000000000014500000000774        00001    2016100120161031Passageiros
00000011312344980         2016100149NB90  VW             POLO (6R1)     Gasoleo 6500000000000678000000000015600000000834        00001    2016100120161031Passageiros
00000011312344980         2016100149NB90  VW             POLO (6R1)     Gasoleo 6700000000000316000000000000000000000316        00001    2016100120161031Passageiros
00000011312344980         2016100149NB90  VW             POLO (6R1)     Gasoleo 7110000000000500000000000011500000000615        00001    2016100120161031Passageiros
00000011312344980         2016100149NB90  VW             POLO (6R1)     Gasoleo 7200000000000367000000000008400000000451        00001    2016100120161031Passageiros
00000011312344980         2016100149NB90  VW             POLO (6R1)     Gasoleo 7300000000000237000000000005500000000292        00001    2016100120161031Passageiros
00000011312344980         2016100149NB90  VW             POLO (6R1)     Gasoleo 7400000000000050000000000001200000000062        00001    2016100120161031Passageiros
00000011312344980         2016100149NB90  VW             POLO (6R1)     Gasoleo 9990000000004922000000000113200000006054        00001    2016100120161031Passageiros
00000011312344980         2016100121NB09  VW             POLO (6R1)     Gasoleo 0110000000008500000000000195500000010455        00001    2016100120161031Passageiros
00000011312344980         2016100121NB09  VW             POLO (6R1)     Gasoleo 1000000000000217000000000000000000000217        00001    2016100120161031Passageiros
00000011312344980         2016100121NB09  VW             POLO (6R1)     Gasoleo 1000000000001116000000000000000000001116        00001    2016100120161031Passageiros
00000011312344980         2016100121NB09  VW             POLO (6R1)     Gasoleo 1000000000000100000000000000000000000100        00001    2016100120161031Passageiros
00000011312344980         2016100121NB09  VW             POLO (6R1)     Gasoleo 1000000000000931000000000000000000000931        00001    2016100120161031Passageiros
00000011312344980         2016100121NB09  VW             POLO (6R1)     Gasoleo 1000000000000175000000000000000000000175        00001    2016100120161031Passageiros
00000011312344980         2016100121NB09  VW             POLO (6R1)     Gasoleo 1000000000000100000000000000000000000100        00001    2016100120161031Passageiros
00000011312344980         2016100121NB09  VW             POLO (6R1)     Gasoleo 5800000000003671000000000084400000004515        00001    2016100120161031Passageiros
00000011312344980         2016100121NB09  VW             POLO (6R1)     Gasoleo 5810000000002348000000000054000000002888        00001    2016100120161031Passageiros
00000011312344980         2016100121NB09  VW             POLO (6R1)     Gasoleo 6200000000000629000000000014500000000774        00001    2016100120161031Passageiros
00000011312344980         2016100121NB09  VW             POLO (6R1)     Gasoleo 6300000000000058000000000001300000000071        00001    2016100120161031Passageiros
00000011312344980         2016100121NB09  VW             POLO (6R1)     Gasoleo 6500000000000678000000000015600000000834        00001    2016100120161031Passageiros
00000011312344980         2016100121NB09  VW             POLO (6R1)     Gasoleo 6700000000000316000000000000000000000316        00001    2016100120161031Passageiros
00000011312344980         2016100121NB09  VW             POLO (6R1)     Gasoleo 7110000000000500000000000011500000000615        00001    2016100120161031Passageiros
00000011312344980         2016100121NB09  VW             POLO (6R1)     Gasoleo 7200000000000367000000000008400000000451        00001    2016100120161031Passageiros
00000011312344980         2016100121NB09  VW             POLO (6R1)     Gasoleo 7300000000000237000000000005500000000292        00001    2016100120161031Passageiros
00000011312344980         2016100121NB09  VW             POLO (6R1)     Gasoleo 7400000000000050000000000001200000000062        00001    2016100120161031Passageiros
00000011312344980         2016100121NB09  VW             POLO (6R1)     Gasoleo 9990000000004706000000000108200000005788        00001    2016100120161031Passageiros
00000011312344980         2016100149NB81  VW             POLO (6R1)     Gasoleo 0110000000008985000000000206700000011052        00001    2016100120161031Passageiros
00000011312344980         2016100149NB81  VW             POLO (6R1)     Gasoleo 1000000000000218000000000000000000000218        00001    2016100120161031Passageiros
00000011312344980         2016100149NB81  VW             POLO (6R1)     Gasoleo 1000000000001123000000000000000000001123        00001    2016100120161031Passageiros
00000011312344980         2016100149NB81  VW             POLO (6R1)     Gasoleo 1000000000000100000000000000000000000100        00001    2016100120161031Passageiros
00000011312344980         2016100149NB81  VW             POLO (6R1)     Gasoleo 1000000000000930000000000000000000000930        00001    2016100120161031Passageiros
00000011312344980         2016100149NB81  VW             POLO (6R1)     Gasoleo 1000000000000175000000000000000000000175        00001    2016100120161031Passageiros
00000011312344980         2016100149NB81  VW             POLO (6R1)     Gasoleo 1000000000000100000000000000000000000100        00001    2016100120161031Passageiros
00000011312344980         2016100149NB81  VW             POLO (6R1)     Gasoleo 5800000000004195000000000096500000005160        00001    2016100120161031Passageiros
00000011312344980         2016100149NB81  VW             POLO (6R1)     Gasoleo 5810000000002651000000000061000000003261        00001    2016100120161031Passageiros
00000011312344980         2016100149NB81  VW             POLO (6R1)     Gasoleo 6200000000000629000000000014500000000774        00001    2016100120161031Passageiros
00000011312344980         2016100149NB81  VW             POLO (6R1)     Gasoleo 6300000000000058000000000001300000000071        00001    2016100120161031Passageiros
00000011312344980         2016100149NB81  VW             POLO (6R1)     Gasoleo 6500000000000678000000000015600000000834        00001    2016100120161031Passageiros
00000011312344980         2016100149NB81  VW             POLO (6R1)     Gasoleo 6700000000000316000000000000000000000316        00001    2016100120161031Passageiros
00000011312344980         2016100149NB81  VW             POLO (6R1)     Gasoleo 7110000000000500000000000011500000000615        00001    2016100120161031Passageiros
00000011312344980         2016100149NB81  VW             POLO (6R1)     Gasoleo 7200000000000367000000000008400000000451        00001    2016100120161031Passageiros
00000011312344980         2016100149NB81  VW             POLO (6R1)     Gasoleo 7300000000000237000000000005500000000292        00001    2016100120161031Passageiros
00000011312344980         2016100149NB81  VW             POLO (6R1)     Gasoleo 7400000000000050000000000001200000000062        00001    2016100120161031Passageiros
00000011312344980         2016100149NB81  VW             POLO (6R1)     Gasoleo 9990000000004649000000000106900000005718        00001    2016100120161031Passageiros
00000011312344980         2016100148NB88  VW             POLO (6R1)     Gasoleo 0110000000006653000000000153000000008183        00001    2016100120161031Passageiros
